{
    "contractName": "ERC721C",
    "abi": [
        {
            "inputs": [],
            "name": "AccessControlBadConfirmation",
            "type": "error"
        },
        {
            "inputs": [
                {
                    "internalType": "address",
                    "name": "account",
                    "type": "address"
                },
                {
                    "internalType": "bytes32",
                    "name": "neededRole",
                    "type": "bytes32"
                }
            ],
            "name": "AccessControlUnauthorizedAccount",
            "type": "error"
        },
        {
            "inputs": [
                {
                    "internalType": "address",
                    "name": "target",
                    "type": "address"
                }
            ],
            "name": "AddressEmptyCode",
            "type": "error"
        },
        {
            "inputs": [
                {
                    "internalType": "address",
                    "name": "implementation",
                    "type": "address"
                }
            ],
            "name": "ERC1967InvalidImplementation",
            "type": "error"
        },
        {
            "inputs": [],
            "name": "ERC1967NonPayable",
            "type": "error"
        },
        {
            "inputs": [],
            "name": "ERC721EnumerableForbiddenBatchMint",
            "type": "error"
        },
        {
            "inputs": [
                {
                    "internalType": "address",
                    "name": "sender",
                    "type": "address"
                },
                {
                    "internalType": "uint256",
                    "name": "tokenId",
                    "type": "uint256"
                },
                {
                    "internalType": "address",
                    "name": "owner",
                    "type": "address"
                }
            ],
            "name": "ERC721IncorrectOwner",
            "type": "error"
        },
        {
            "inputs": [
                {
                    "internalType": "address",
                    "name": "operator",
                    "type": "address"
                },
                {
                    "internalType": "uint256",
                    "name": "tokenId",
                    "type": "uint256"
                }
            ],
            "name": "ERC721InsufficientApproval",
            "type": "error"
        },
        {
            "inputs": [
                {
                    "internalType": "address",
                    "name": "approver",
                    "type": "address"
                }
            ],
            "name": "ERC721InvalidApprover",
            "type": "error"
        },
        {
            "inputs": [
                {
                    "internalType": "address",
                    "name": "operator",
                    "type": "address"
                }
            ],
            "name": "ERC721InvalidOperator",
            "type": "error"
        },
        {
            "inputs": [
                {
                    "internalType": "address",
                    "name": "owner",
                    "type": "address"
                }
            ],
            "name": "ERC721InvalidOwner",
            "type": "error"
        },
        {
            "inputs": [
                {
                    "internalType": "address",
                    "name": "receiver",
                    "type": "address"
                }
            ],
            "name": "ERC721InvalidReceiver",
            "type": "error"
        },
        {
            "inputs": [
                {
                    "internalType": "address",
                    "name": "sender",
                    "type": "address"
                }
            ],
            "name": "ERC721InvalidSender",
            "type": "error"
        },
        {
            "inputs": [
                {
                    "internalType": "uint256",
                    "name": "tokenId",
                    "type": "uint256"
                }
            ],
            "name": "ERC721NonexistentToken",
            "type": "error"
        },
        {
            "inputs": [
                {
                    "internalType": "address",
                    "name": "owner",
                    "type": "address"
                },
                {
                    "internalType": "uint256",
                    "name": "index",
                    "type": "uint256"
                }
            ],
            "name": "ERC721OutOfBoundsIndex",
            "type": "error"
        },
        {
            "inputs": [],
            "name": "FailedCall",
            "type": "error"
        },
        {
            "inputs": [],
            "name": "InvalidInitialization",
            "type": "error"
        },
        {
            "inputs": [],
            "name": "InvalidPrice",
            "type": "error"
        },
        {
            "inputs": [],
            "name": "InvalidRoyalties",
            "type": "error"
        },
        {
            "inputs": [],
            "name": "InvalidTotalShares",
            "type": "error"
        },
        {
            "inputs": [],
            "name": "MaxQuantityReached",
            "type": "error"
        },
        {
            "inputs": [],
            "name": "NoFundsToDistribute",
            "type": "error"
        },
        {
            "inputs": [],
            "name": "NotAuthorized",
            "type": "error"
        },
        {
            "inputs": [],
            "name": "NotInitializing",
            "type": "error"
        },
        {
            "inputs": [],
            "name": "SharesLengthMismatch",
            "type": "error"
        },
        {
            "inputs": [],
            "name": "TokenNotForSale",
            "type": "error"
        },
        {
            "inputs": [],
            "name": "TokenRented",
            "type": "error"
        },
        {
            "inputs": [],
            "name": "TransferFailed",
            "type": "error"
        },
        {
            "inputs": [],
            "name": "UUPSUnauthorizedCallContext",
            "type": "error"
        },
        {
            "inputs": [
                {
                    "internalType": "bytes32",
                    "name": "slot",
                    "type": "bytes32"
                }
            ],
            "name": "UUPSUnsupportedProxiableUUID",
            "type": "error"
        },
        {
            "anonymous": false,
            "inputs": [
                {
                    "indexed": true,
                    "internalType": "address",
                    "name": "owner",
                    "type": "address"
                },
                {
                    "indexed": true,
                    "internalType": "address",
                    "name": "approved",
                    "type": "address"
                },
                {
                    "indexed": true,
                    "internalType": "uint256",
                    "name": "tokenId",
                    "type": "uint256"
                }
            ],
            "name": "Approval",
            "type": "event"
        },
        {
            "anonymous": false,
            "inputs": [
                {
                    "indexed": true,
                    "internalType": "address",
                    "name": "owner",
                    "type": "address"
                },
                {
                    "indexed": true,
                    "internalType": "address",
                    "name": "operator",
                    "type": "address"
                },
                {
                    "indexed": false,
                    "internalType": "bool",
                    "name": "approved",
                    "type": "bool"
                }
            ],
            "name": "ApprovalForAll",
            "type": "event"
        },
        {
            "anonymous": false,
            "inputs": [
                {
                    "indexed": false,
                    "internalType": "uint256",
                    "name": "_fromTokenId",
                    "type": "uint256"
                },
                {
                    "indexed": false,
                    "internalType": "uint256",
                    "name": "_toTokenId",
                    "type": "uint256"
                }
            ],
            "name": "BatchMetadataUpdate",
            "type": "event"
        },
        {
            "anonymous": false,
            "inputs": [
                {
                    "indexed": true,
                    "internalType": "uint256",
                    "name": "tokenId",
                    "type": "uint256"
                },
                {
                    "indexed": true,
                    "internalType": "address",
                    "name": "buyer",
                    "type": "address"
                }
            ],
            "name": "Bought",
            "type": "event"
        },
        {
            "anonymous": false,
            "inputs": [
                {
                    "indexed": false,
                    "internalType": "uint64",
                    "name": "version",
                    "type": "uint64"
                }
            ],
            "name": "Initialized",
            "type": "event"
        },
        {
            "anonymous": false,
            "inputs": [
                {
                    "indexed": false,
                    "internalType": "uint256",
                    "name": "_tokenId",
                    "type": "uint256"
                }
            ],
            "name": "MetadataUpdate",
            "type": "event"
        },
        {
            "anonymous": false,
            "inputs": [
                {
                    "indexed": true,
                    "internalType": "uint256",
                    "name": "tokenId",
                    "type": "uint256"
                }
            ],
            "name": "Minted",
            "type": "event"
        },
        {
            "anonymous": false,
            "inputs": [
                {
                    "indexed": true,
                    "internalType": "uint256",
                    "name": "tokenId",
                    "type": "uint256"
                },
                {
                    "indexed": true,
                    "internalType": "address",
                    "name": "renter",
                    "type": "address"
                }
            ],
            "name": "RentalEnded",
            "type": "event"
        },
        {
            "anonymous": false,
            "inputs": [
                {
                    "indexed": true,
                    "internalType": "uint256",
                    "name": "tokenId",
                    "type": "uint256"
                },
                {
                    "indexed": true,
                    "internalType": "address",
                    "name": "renter",
                    "type": "address"
                },
                {
                    "indexed": false,
                    "internalType": "uint128",
                    "name": "rentalEndTime",
                    "type": "uint128"
                },
                {
                    "indexed": false,
                    "internalType": "bool",
                    "name": "isStart",
                    "type": "bool"
                }
            ],
            "name": "RentalUpdate",
            "type": "event"
        },
        {
            "anonymous": false,
            "inputs": [
                {
                    "indexed": true,
                    "internalType": "bytes32",
                    "name": "role",
                    "type": "bytes32"
                },
                {
                    "indexed": true,
                    "internalType": "bytes32",
                    "name": "previousAdminRole",
                    "type": "bytes32"
                },
                {
                    "indexed": true,
                    "internalType": "bytes32",
                    "name": "newAdminRole",
                    "type": "bytes32"
                }
            ],
            "name": "RoleAdminChanged",
            "type": "event"
        },
        {
            "anonymous": false,
            "inputs": [
                {
                    "indexed": true,
                    "internalType": "bytes32",
                    "name": "role",
                    "type": "bytes32"
                },
                {
                    "indexed": true,
                    "internalType": "address",
                    "name": "account",
                    "type": "address"
                },
                {
                    "indexed": true,
                    "internalType": "address",
                    "name": "sender",
                    "type": "address"
                }
            ],
            "name": "RoleGranted",
            "type": "event"
        },
        {
            "anonymous": false,
            "inputs": [
                {
                    "indexed": true,
                    "internalType": "bytes32",
                    "name": "role",
                    "type": "bytes32"
                },
                {
                    "indexed": true,
                    "internalType": "address",
                    "name": "account",
                    "type": "address"
                },
                {
                    "indexed": true,
                    "internalType": "address",
                    "name": "sender",
                    "type": "address"
                }
            ],
            "name": "RoleRevoked",
            "type": "event"
        },
        {
            "anonymous": false,
            "inputs": [
                {
                    "indexed": true,
                    "internalType": "address",
                    "name": "from",
                    "type": "address"
                },
                {
                    "indexed": true,
                    "internalType": "address",
                    "name": "to",
                    "type": "address"
                },
                {
                    "indexed": true,
                    "internalType": "uint256",
                    "name": "tokenId",
                    "type": "uint256"
                }
            ],
            "name": "Transfer",
            "type": "event"
        },
        {
            "anonymous": false,
            "inputs": [
                {
                    "indexed": true,
                    "internalType": "address",
                    "name": "implementation",
                    "type": "address"
                }
            ],
            "name": "Upgraded",
            "type": "event"
        },
        {
            "inputs": [],
            "name": "DEFAULT_ADMIN_ROLE",
            "outputs": [
                {
                    "internalType": "bytes32",
                    "name": "",
                    "type": "bytes32"
                }
            ],
            "stateMutability": "view",
            "type": "function"
        },
        {
            "inputs": [],
            "name": "MINTER_ROLE",
            "outputs": [
                {
                    "internalType": "bytes32",
                    "name": "",
                    "type": "bytes32"
                }
            ],
            "stateMutability": "view",
            "type": "function"
        },
        {
            "inputs": [],
            "name": "UPGRADER_ROLE",
            "outputs": [
                {
                    "internalType": "bytes32",
                    "name": "",
                    "type": "bytes32"
                }
            ],
            "stateMutability": "view",
            "type": "function"
        },
        {
            "inputs": [],
            "name": "UPGRADE_INTERFACE_VERSION",
            "outputs": [
                {
                    "internalType": "string",
                    "name": "",
                    "type": "string"
                }
            ],
            "stateMutability": "view",
            "type": "function"
        },
        {
            "inputs": [
                {
                    "internalType": "address",
                    "name": "to",
                    "type": "address"
                },
                {
                    "internalType": "uint256",
                    "name": "tokenId",
                    "type": "uint256"
                }
            ],
            "name": "approve",
            "outputs": [],
            "stateMutability": "nonpayable",
            "type": "function"
        },
        {
            "inputs": [
                {
                    "internalType": "address",
                    "name": "owner",
                    "type": "address"
                }
            ],
            "name": "balanceOf",
            "outputs": [
                {
                    "internalType": "uint256",
                    "name": "",
                    "type": "uint256"
                }
            ],
            "stateMutability": "view",
            "type": "function"
        },
        {
            "inputs": [
                {
                    "internalType": "uint256",
                    "name": "tokenId",
                    "type": "uint256"
                }
            ],
            "name": "burn",
            "outputs": [],
            "stateMutability": "nonpayable",
            "type": "function"
        },
        {
            "inputs": [
                {
                    "internalType": "uint256",
                    "name": "tokenId",
                    "type": "uint256"
                }
            ],
            "name": "buy",
            "outputs": [],
            "stateMutability": "nonpayable",
            "type": "function"
        },
        {
            "inputs": [
                {
                    "internalType": "uint256",
                    "name": "totalReceived",
                    "type": "uint256"
                },
                {
                    "internalType": "uint256",
                    "name": "tokenId",
                    "type": "uint256"
                }
            ],
            "name": "distributeRoyalties",
            "outputs": [
                {
                    "internalType": "uint256",
                    "name": "",
                    "type": "uint256"
                }
            ],
            "stateMutability": "nonpayable",
            "type": "function"
        },
        {
            "inputs": [
                {
                    "internalType": "uint256",
                    "name": "tokenId",
                    "type": "uint256"
                }
            ],
            "name": "endRental",
            "outputs": [],
            "stateMutability": "nonpayable",
            "type": "function"
        },
        {
            "inputs": [
                {
                    "internalType": "uint256",
                    "name": "tokenId",
                    "type": "uint256"
                }
            ],
            "name": "getApproved",
            "outputs": [
                {
                    "internalType": "address",
                    "name": "",
                    "type": "address"
                }
            ],
            "stateMutability": "view",
            "type": "function"
        },
        {
            "inputs": [],
            "name": "getCurrentTokenId",
            "outputs": [
                {
                    "internalType": "uint256",
                    "name": "",
                    "type": "uint256"
                }
            ],
            "stateMutability": "view",
            "type": "function"
        },
        {
            "inputs": [],
            "name": "getMaxQuantity",
            "outputs": [
                {
                    "internalType": "uint256",
                    "name": "",
                    "type": "uint256"
                }
            ],
            "stateMutability": "view",
            "type": "function"
        },
        {
            "inputs": [
                {
                    "internalType": "uint256",
                    "name": "tokenId",
                    "type": "uint256"
                }
            ],
            "name": "getPrice",
            "outputs": [
                {
                    "internalType": "uint256",
                    "name": "",
                    "type": "uint256"
                }
            ],
            "stateMutability": "view",
            "type": "function"
        },
        {
            "inputs": [
                {
                    "internalType": "bytes32",
                    "name": "role",
                    "type": "bytes32"
                }
            ],
            "name": "getRoleAdmin",
            "outputs": [
                {
                    "internalType": "bytes32",
                    "name": "",
                    "type": "bytes32"
                }
            ],
            "stateMutability": "view",
            "type": "function"
        },
        {
            "inputs": [],
            "name": "getSecondaryRoyaltyPercentage",
            "outputs": [
                {
                    "internalType": "uint256",
                    "name": "",
                    "type": "uint256"
                }
            ],
            "stateMutability": "view",
            "type": "function"
        },
        {
            "inputs": [
                {
                    "internalType": "bytes32",
                    "name": "role",
                    "type": "bytes32"
                },
                {
                    "internalType": "address",
                    "name": "account",
                    "type": "address"
                }
            ],
            "name": "grantRole",
            "outputs": [],
            "stateMutability": "nonpayable",
            "type": "function"
        },
        {
            "inputs": [
                {
                    "internalType": "bytes32",
                    "name": "role",
                    "type": "bytes32"
                },
                {
                    "internalType": "address",
                    "name": "account",
                    "type": "address"
                }
            ],
            "name": "hasRole",
            "outputs": [
                {
                    "internalType": "bool",
                    "name": "",
                    "type": "bool"
                }
            ],
            "stateMutability": "view",
            "type": "function"
        },
        {
            "inputs": [
                {
                    "internalType": "string",
                    "name": "name",
                    "type": "string"
                },
                {
                    "internalType": "string",
                    "name": "symbol",
                    "type": "string"
                },
                {
                    "internalType": "address[]",
                    "name": "royaltyReceivers",
                    "type": "address[]"
                },
                {
                    "internalType": "uint256[]",
                    "name": "royaltyShares",
                    "type": "uint256[]"
                },
                {
                    "internalType": "uint256",
                    "name": "secondaryRoyaltyPercentage",
                    "type": "uint256"
                },
                {
                    "internalType": "address",
                    "name": "paymentTokenAddress",
                    "type": "address"
                },
                {
                    "internalType": "uint256",
                    "name": "maxQty",
                    "type": "uint256"
                }
            ],
            "name": "initialize",
            "outputs": [],
            "stateMutability": "nonpayable",
            "type": "function"
        },
        {
            "inputs": [
                {
                    "internalType": "address",
                    "name": "owner",
                    "type": "address"
                },
                {
                    "internalType": "address",
                    "name": "operator",
                    "type": "address"
                }
            ],
            "name": "isApprovedForAll",
            "outputs": [
                {
                    "internalType": "bool",
                    "name": "",
                    "type": "bool"
                }
            ],
            "stateMutability": "view",
            "type": "function"
        },
        {
            "inputs": [
                {
                    "internalType": "uint256",
                    "name": "tokenId",
                    "type": "uint256"
                }
            ],
            "name": "isRented",
            "outputs": [
                {
                    "internalType": "bool",
                    "name": "",
                    "type": "bool"
                }
            ],
            "stateMutability": "view",
            "type": "function"
        },
        {
            "inputs": [
                {
                    "internalType": "address",
                    "name": "to",
                    "type": "address"
                },
                {
                    "internalType": "string",
                    "name": "uri",
                    "type": "string"
                },
                {
                    "internalType": "uint256",
                    "name": "price",
                    "type": "uint256"
                },
                {
                    "internalType": "address[]",
                    "name": "collaborators",
                    "type": "address[]"
                }
            ],
            "name": "mint",
            "outputs": [],
            "stateMutability": "nonpayable",
            "type": "function"
        },
        {
            "inputs": [],
            "name": "name",
            "outputs": [
                {
                    "internalType": "string",
                    "name": "",
                    "type": "string"
                }
            ],
            "stateMutability": "view",
            "type": "function"
        },
        {
            "inputs": [
                {
                    "internalType": "uint256",
                    "name": "tokenId",
                    "type": "uint256"
                }
            ],
            "name": "ownerOf",
            "outputs": [
                {
                    "internalType": "address",
                    "name": "",
                    "type": "address"
                }
            ],
            "stateMutability": "view",
            "type": "function"
        },
        {
            "inputs": [],
            "name": "proxiableUUID",
            "outputs": [
                {
                    "internalType": "bytes32",
                    "name": "",
                    "type": "bytes32"
                }
            ],
            "stateMutability": "view",
            "type": "function"
        },
        {
            "inputs": [
                {
                    "internalType": "bytes32",
                    "name": "role",
                    "type": "bytes32"
                },
                {
                    "internalType": "address",
                    "name": "callerConfirmation",
                    "type": "address"
                }
            ],
            "name": "renounceRole",
            "outputs": [],
            "stateMutability": "nonpayable",
            "type": "function"
        },
        {
            "inputs": [
                {
                    "internalType": "bytes32",
                    "name": "role",
                    "type": "bytes32"
                },
                {
                    "internalType": "address",
                    "name": "account",
                    "type": "address"
                }
            ],
            "name": "revokeRole",
            "outputs": [],
            "stateMutability": "nonpayable",
            "type": "function"
        },
        {
            "inputs": [
                {
                    "internalType": "address",
                    "name": "from",
                    "type": "address"
                },
                {
                    "internalType": "address",
                    "name": "to",
                    "type": "address"
                },
                {
                    "internalType": "uint256",
                    "name": "tokenId",
                    "type": "uint256"
                }
            ],
            "name": "safeTransferFrom",
            "outputs": [],
            "stateMutability": "nonpayable",
            "type": "function"
        },
        {
            "inputs": [
                {
                    "internalType": "address",
                    "name": "from",
                    "type": "address"
                },
                {
                    "internalType": "address",
                    "name": "to",
                    "type": "address"
                },
                {
                    "internalType": "uint256",
                    "name": "tokenId",
                    "type": "uint256"
                },
                {
                    "internalType": "bytes",
                    "name": "data",
                    "type": "bytes"
                }
            ],
            "name": "safeTransferFrom",
            "outputs": [],
            "stateMutability": "nonpayable",
            "type": "function"
        },
        {
            "inputs": [
                {
                    "internalType": "address",
                    "name": "operator",
                    "type": "address"
                },
                {
                    "internalType": "bool",
                    "name": "approved",
                    "type": "bool"
                }
            ],
            "name": "setApprovalForAll",
            "outputs": [],
            "stateMutability": "nonpayable",
            "type": "function"
        },
        {
            "inputs": [
                {
                    "internalType": "uint256",
                    "name": "tokenId",
                    "type": "uint256"
                },
                {
                    "internalType": "uint256",
                    "name": "price",
                    "type": "uint256"
                }
            ],
            "name": "setPrice",
            "outputs": [],
            "stateMutability": "nonpayable",
            "type": "function"
        },
        {
            "inputs": [
                {
                    "internalType": "uint256",
                    "name": "share",
                    "type": "uint256"
                }
            ],
            "name": "setSecondaryRoyaltyPercentage",
            "outputs": [],
            "stateMutability": "nonpayable",
            "type": "function"
        },
        {
            "inputs": [
                {
                    "internalType": "uint256",
                    "name": "tokenId",
                    "type": "uint256"
                },
                {
                    "internalType": "string",
                    "name": "uri",
                    "type": "string"
                }
            ],
            "name": "setTokenUri",
            "outputs": [],
            "stateMutability": "nonpayable",
            "type": "function"
        },
        {
            "inputs": [
                {
                    "internalType": "uint256",
                    "name": "tokenId",
                    "type": "uint256"
                },
                {
                    "internalType": "address",
                    "name": "renter",
                    "type": "address"
                },
                {
                    "internalType": "uint256",
                    "name": "duration",
                    "type": "uint256"
                }
            ],
            "name": "startRental",
            "outputs": [],
            "stateMutability": "nonpayable",
            "type": "function"
        },
        {
            "inputs": [
                {
                    "internalType": "bytes4",
                    "name": "interfaceId",
                    "type": "bytes4"
                }
            ],
            "name": "supportsInterface",
            "outputs": [
                {
                    "internalType": "bool",
                    "name": "",
                    "type": "bool"
                }
            ],
            "stateMutability": "view",
            "type": "function"
        },
        {
            "inputs": [],
            "name": "symbol",
            "outputs": [
                {
                    "internalType": "string",
                    "name": "",
                    "type": "string"
                }
            ],
            "stateMutability": "view",
            "type": "function"
        },
        {
            "inputs": [
                {
                    "internalType": "uint256",
                    "name": "index",
                    "type": "uint256"
                }
            ],
            "name": "tokenByIndex",
            "outputs": [
                {
                    "internalType": "uint256",
                    "name": "",
                    "type": "uint256"
                }
            ],
            "stateMutability": "view",
            "type": "function"
        },
        {
            "inputs": [
                {
                    "internalType": "address",
                    "name": "owner",
                    "type": "address"
                },
                {
                    "internalType": "uint256",
                    "name": "index",
                    "type": "uint256"
                }
            ],
            "name": "tokenOfOwnerByIndex",
            "outputs": [
                {
                    "internalType": "uint256",
                    "name": "",
                    "type": "uint256"
                }
            ],
            "stateMutability": "view",
            "type": "function"
        },
        {
            "inputs": [
                {
                    "internalType": "uint256",
                    "name": "tokenId",
                    "type": "uint256"
                }
            ],
            "name": "tokenURI",
            "outputs": [
                {
                    "internalType": "string",
                    "name": "",
                    "type": "string"
                }
            ],
            "stateMutability": "view",
            "type": "function"
        },
        {
            "inputs": [],
            "name": "totalSupply",
            "outputs": [
                {
                    "internalType": "uint256",
                    "name": "",
                    "type": "uint256"
                }
            ],
            "stateMutability": "view",
            "type": "function"
        },
        {
            "inputs": [
                {
                    "internalType": "address",
                    "name": "from",
                    "type": "address"
                },
                {
                    "internalType": "address",
                    "name": "to",
                    "type": "address"
                },
                {
                    "internalType": "uint256",
                    "name": "tokenId",
                    "type": "uint256"
                }
            ],
            "name": "transferFrom",
            "outputs": [],
            "stateMutability": "nonpayable",
            "type": "function"
        },
        {
            "inputs": [
                {
                    "internalType": "address",
                    "name": "newImplementation",
                    "type": "address"
                },
                {
                    "internalType": "bytes",
                    "name": "data",
                    "type": "bytes"
                }
            ],
            "name": "upgradeToAndCall",
            "outputs": [],
            "stateMutability": "payable",
            "type": "function"
        }
    ],
    "bytecode": "60a080604052346029573060805261366c908161002e8239608051818181611581015261166c0152f35b5f80fdfe6080806040526004361015610012575f80fd5b5f3560e01c90816301ffc9a714611f345750806306fdde0314611e8a578063081812fc14611e62578063095ea7b314611d6357806318160ddd14611d3a57806323b872dd14611d23578063248a9ca314611cec5780632f2ff15d14611ca25780632f745c5914611c2457806336568abe14611be05780633d4a855c14611bc75780633e8af41f146118a757806342842e0e1461187e57806342966c68146118615780634f1ef2861461162f5780634f6ccce7146115d557806352d1902d1461156f578063561892361461155257806357f7789e146113a857806358fc378714610cc45780636352211e14610c9457806370a0823114610c69578063771e2b0614610a8757806389db904e14610a0e57806391af33ed146109f157806391d148541461099c57806395d89b41146108ba57806397491d6f1461076e578063a217fddf14610754578063a22cb465146106bc578063aa15d40f14610694578063ad3cb1cc1461064d578063b88d4fde146105ff578063c87b56dd146105c8578063d53913931461058e578063d547741f1461053d578063d96a094a146102e8578063e3fa569f146102cb578063e75722301461029e578063e985e9c514610252578063f72c0d8b146102185763f7d97577146101ea575f80fd5b34610214576101f836612077565b90610201612e82565b5f526004602052600260405f2001555f80f35b5f80fd5b34610214575f3660031901126102145760206040517f189ab7a9244df0848122154315af71fe140f3db0fe014031783b0946b8c9d2e38152f35b346102145760403660031901126102145761026b612011565b61027c610276612027565b916124ec565b9060018060a01b03165f52602052602060ff60405f2054166040519015158152f35b34610214576020366003190112610214576004355f5260046020526020600260405f200154604051908152f35b34610214575f366003190112610214576020600554604051908152f35b3461021457602036600319011261021457600435805f52600460205260405f20600281018054801561052e576006546040516323b872dd60e01b81523360048201523060248201526044810192909252602090829060649082905f906001600160a01b03165af19081156104f0575f9161050f575b50156104b25761036e8382546125a4565b905490808211610445575b505060030180546001600160a01b03163315610432576001600160a01b036103a184336128e1565b1690816103bb5783637e27328960e01b5f5260045260245ffd5b80820361041857505080546001600160a01b031916339081179091555f828152600360205260408120805460ff191660011790559091907fc54c8cc1c7525b424ec71b685c00d9355581a280488018c22005332ceb2fd4069080a3005b83906364283d7b60e01b5f5260045260245260445260645ffd5b633250574960e11b5f525f60045260245ffd5b60065460038401546001600160a01b039182169391169181039081116104fb5760405163a9059cbb60e01b81526001600160a01b03929092166004830152602482015290602090829060449082905f905af19081156104f0575f916104c1575b50156104b2578280610379565b6312171d8360e31b5f5260045ffd5b6104e3915060203d6020116104e9575b6104db818361208d565b81019061258c565b836104a5565b503d6104d1565b6040513d5f823e3d90fd5b634e487b7160e01b5f52601160045260245ffd5b610528915060203d6020116104e9576104db818361208d565b8461035d565b63037eff1360e21b5f5260045ffd5b346102145760403660031901126102145761058c60043561055c612027565b90610587610582825f525f5160206135975f395f51905f52602052600160405f20015490565b612ef1565b6131d6565b005b34610214575f3660031901126102145760206040517f9f2df0fed2c77648de5860a4cc508cd0818c85b8b8a1ab4ceeef8d981c8956a68152f35b34610214576020366003190112610214576105fb6105e76004356132e7565b604051918291602083526020830190611fed565b0390f35b3461021457608036600319011261021457610618612011565b610620612027565b606435916001600160401b0383116102145761064361058c9336906004016120c9565b9160443591612760565b34610214575f366003190112610214576105fb60405161066e60408261208d565b60058152640352e302e360dc1b6020820152604051918291602083526020830190611fed565b346102145760203660031901126102145760206106b260043561271f565b6040519015158152f35b34610214576040366003190112610214576106d5612011565b60243590811515809203610214576001600160a01b0316908115610741576106fc336124ec565b825f5260205260405f2060ff1981541660ff83161790556040519081527f17307eab39ab6107e8899845ad3d59bd9653f200f220920489ca2b5937696c3160203392a3005b50630b61174360e31b5f5260045260245ffd5b34610214575f3660031901126102145760206040515f8152f35b3461021457602036600319011261021457600435805f52600760205260018060a01b0360405f205416331480156108a0575b15610847575f818152600760205260409020546001600160a01b03161561080c575f818152600760205260408120805482825560019091018290556001600160a01b031691907ff9bbd47d9659083aa5b016ffd346aca413549aace523513f610200aeed1e1dd49080a3005b60405162461bcd60e51b8152602060048201526013602482015272151bdad95b881a5cc81b9bdd081c995b9d1959606a1b6044820152606490fd5b60405162461bcd60e51b815260206004820152602b60248201527f4f6e6c79207468652072656e746572206f72206f776e65722063616e20656e6460448201526a081d1a19481c995b9d185b60aa1b6064820152608490fd5b50336001600160a01b036108b383612879565b16146107a0565b34610214575f366003190112610214576040515f5f5160206135f75f395f51905f52546108e681612192565b8084529060018116908115610978575060011461090e575b6105fb836105e78185038261208d565b5f5160206135f75f395f51905f525f9081527ff4bad0a69248f59680a4f2b3000328cec71a413447c96781cfe5996daa8c456e939250905b80821061095e575090915081016020016105e76108fe565b919260018160209254838588010152019101909291610946565b60ff191660208086019190915291151560051b840190910191506105e790506108fe565b34610214576040366003190112610214576109b5612027565b6004355f525f5160206135975f395f51905f5260205260405f209060018060a01b03165f52602052602060ff60405f2054166040519015158152f35b34610214575f366003190112610214576020600254604051908152f35b3461021457602036600319011261021457600435610a2a612e82565b6103e88111610a3857600255005b60405162461bcd60e51b815260206004820152602160248201527f50657263656e74616765206d757374206265206c657373207468616e203130306044820152600360fc1b6064820152608490fd5b3461021457606036600319011261021457600435610aa3612027565b90610aac612e82565b610ab581612879565b336001600160a01b0390911603610c16575f818152600760205260409020546001600160a01b0316610bd1576001600160801b03604435166001600160801b03421601916001600160801b0383116104fb5760405160408101908082106001600160401b03831117610bbd5760409182526001600160a01b039283168082526001600160801b0395861660208084018281525f88815260078352869020945185546001600160a01b03191697169690961784559451600193840180546fffffffffffffffffffffffffffffffff1916919098161790965582519586529285015290927fcd8520b03d334e6f2013c967df2f3b747f950035978a9c6b756c0b6414886bbb9190a3005b634e487b7160e01b5f52604160045260245ffd5b60405162461bcd60e51b815260206004820152601760248201527f546f6b656e20697320616c72656164792072656e7465640000000000000000006044820152606490fd5b60405162461bcd60e51b815260206004820152602560248201527f4f6e6c7920746865206f776e65722063616e2072656e74206f757420746865206044820152643a37b5b2b760d91b6064820152608490fd5b34610214576020366003190112610214576020610c8c610c87612011565b6126f0565b604051908152f35b34610214576020366003190112610214576020610cb2600435612879565b6040516001600160a01b039091168152f35b346102145760e0366003190112610214576004356001600160401b03811161021457610cf49036906004016120c9565b6024356001600160401b03811161021457610d139036906004016120c9565b906044356001600160401b03811161021457610d33903690600401612124565b90606435906001600160401b038211610214573660238301121561021457816004013593610d608561210d565b92610d6e604051948561208d565b858452602084016024819760051b8301019136831161021457602401905b8282106113985750505060a4356001600160a01b0381169190829003610214575f5160206135d75f395f51905f52549260ff8460401c1615936001600160401b03811680159081611390575b6001149081611386575b15908161137d575b5061136e5767ffffffffffffffff1981166001175f5160206135d75f395f51905f525584611342575b50610e1c61342d565b610e2461342d565b8051906001600160401b038211610bbd578190610e4e5f5160206135175f395f51905f5254612192565b601f81116112d8575b50602090601f831160011461124f575f92611244575b50508160011b915f199060031b1c1916175f5160206135175f395f51905f52555b8051906001600160401b038211610bbd578190610eb85f5160206135f75f395f51905f5254612192565b601f81116111df575b50602090601f8311600114611161575f92611156575b50508160011b915f199060031b1c1916175f5160206135f75f395f51905f52555b610f0061342d565b610f0861342d565b610f1061342d565b610f1861342d565b610f2061342d565b60c4356005558351835103611147575f94855b8451871015610f5b57610f4687866126dc565b5181018091116104fb57600190960195610f33565b85612710869203611138578051906001600160401b038211610bbd57600160401b8211610bbd576020905f54835f5580841061111d575b50015f80525f5b8281106110e05750505051906001600160401b038211610bbd57600160401b8211610bbd57600154826001558083106110a6575b5060015f525f5b828110611072575050506084356002556001600160601b0360a01b600654161760065561100033612f37565b5061100a33612fd3565b506110143361308c565b5061101b57005b68ff0000000000000000195f5160206135d75f395f51905f5254165f5160206135d75f395f51905f52557fc7f505b2f371ae2175ee4913f4499e1f2633a7b5936321eed1cdaeb6115181d2602060405160018152a1005b60019060208351930192817fb10e2d527612073b26eecdfd717e6a320cf44b4afac2b0732d9fcbe2b7fa0cf6015501610fd4565b60015f526110da907fb10e2d527612073b26eecdfd717e6a320cf44b4afac2b0732d9fcbe2b7fa0cf69081019084016126c6565b84610fcd565b81516001600160a01b03167f290decd9548b62a8d60345a988386fc84ba6bc95484008f6362f93160ef3e563820155602090910190600101610f99565b611132905f805284845f2091820191016126c6565b87610f92565b633a7be37b60e01b5f5260045ffd5b6328658a1160e11b5f5260045ffd5b015190508780610ed7565b5f5160206135f75f395f51905f525f9081528281209350601f198516905b8181106111c757509084600195949392106111af575b505050811b015f5160206135f75f395f51905f5255610ef8565b01515f1960f88460031b161c19169055878080611195565b9293602060018192878601518155019501930161117f565b5f5160206135f75f395f51905f525f52611234907ff4bad0a69248f59680a4f2b3000328cec71a413447c96781cfe5996daa8c456e601f850160051c8101916020861061123a575b601f0160051c01906126c6565b88610ec1565b9091508190611227565b015190508880610e6d565b5f5160206135175f395f51905f525f9081525f5160206136175f395f51905f529350601f198516905b8181106112c057509084600195949392106112a8575b505050811b015f5160206135175f395f51905f5255610e8e565b01515f1960f88460031b161c1916905588808061128e565b92936020600181928786015181550195019301611278565b611327905f5160206135175f395f51905f525f52601f840160051c5f5160206136175f395f51905f5201906020851061132d575b601f0160051c5f5160206136175f395f51905f5201906126c6565b89610e57565b5f5160206136175f395f51905f52915061130c565b68ffffffffffffffffff191668010000000000000001175f5160206135d75f395f51905f525587610e13565b63f92ee8a960e01b5f5260045ffd5b90501589610dea565b303b159150610de2565b869150610dd8565b8135815260209182019101610d8c565b34610214576040366003190112610214576004356024356001600160401b038111610214576113db9036906004016120c9565b6113e3612e82565b815f527f0542a41881ee128a365a727b282c86fa859579490b9bb45aab8503648c8e790060205260405f20908051906001600160401b038211610bbd5761142a8354612192565b601f8111611522575b50602090601f831160011461149a579180602094927ff8e1a15aba9398e019f0b49df1a4fde98ee17ae345cb5f6b5e2c27f5033e8ce796945f9261148f575b50508160011b915f199060031b1c19161790555b604051908152a1005b015190508680611472565b90601f19831691845f52815f20925f5b81811061150a57509260019285927ff8e1a15aba9398e019f0b49df1a4fde98ee17ae345cb5f6b5e2c27f5033e8ce7989660209896106114f2575b505050811b019055611486565b01515f1960f88460031b161c191690558680806114e5565b929360206001819287860151815501950193016114aa565b61154c90845f5260205f20601f850160051c8101916020861061123a57601f0160051c01906126c6565b84611433565b34610214575f366003190112610214576020600854604051908152f35b34610214575f366003190112610214577f00000000000000000000000000000000000000000000000000000000000000006001600160a01b031630036115c65760206040515f5160206135575f395f51905f528152f35b63703e46dd60e11b5f5260045ffd5b34610214576020366003190112610214576004355f5160206135775f395f51905f52548110156116195761160a60209161255c565b90549060031b1c604051908152f35b63295f44f760e21b5f525f60045260245260445ffd5b604036600319011261021457611643612011565b6024356001600160401b038111610214576116629036906004016120c9565b6001600160a01b037f00000000000000000000000000000000000000000000000000000000000000001630811490811561183f575b506115c657335f9081527fab71e3f32666744d246edff3f96e4bdafee2e9867098cdd118a979a7464786a8602052604090205460ff1615611808576040516352d1902d60e01b81526001600160a01b0383169290602081600481875afa5f91816117d4575b506117145783634c9c8ce360e01b5f5260045260245ffd5b805f5160206135575f395f51905f528592036117c25750813b156117b0575f5160206135575f395f51905f5280546001600160a01b031916821790557fbc7cd75a20ee27fd9adebab32041f755214dbc6bffa90cc0225b39da2e5c2d3b5f80a2815115611798575f8083602061058c95519101845af46117926132b8565b91613458565b5050346117a157005b63b398979f60e01b5f5260045ffd5b634c9c8ce360e01b5f5260045260245ffd5b632a87526960e21b5f5260045260245ffd5b9091506020813d602011611800575b816117f06020938361208d565b81010312610214575190856116fc565b3d91506117e3565b63e2517d3f60e01b5f52336004527f189ab7a9244df0848122154315af71fe140f3db0fe014031783b0946b8c9d2e360245260445ffd5b5f5160206135575f395f51905f52546001600160a01b03161415905083611697565b346102145760203660031901126102145761058c33600435612bf6565b346102145761058c61188f3661203d565b906040519261189f60208561208d565b5f8452612760565b34610214576080366003190112610214576118c0612011565b6024356001600160401b038111610214576118df9036906004016120c9565b906064356001600160401b038111610214576118ff903690600401612124565b906005548015159081611bba575b50611bab576008545f1981146104fb576001016008819055906001600160a01b03811615610432576001600160a01b03906119499083906128e1565b16611b9857805f52600460205260405f2083516001600160401b038111610bbd576119748254612192565b601f8111611b68575b50602094601f8211600114611b07579481929394955f92611afc575b50508160011b915f199060031b1c19161790555b5f81815260046020526040902060443560028201556003810180546001600160a01b031916331790558251600190910192906001600160401b038111610bbd57600160401b8111610bbd578354818555808210611ae0575b5060208201935f5260205f205f5b828110611ac35784611a253386613272565b15611a65575b805f52600360205260405f2060ff1981541690557f176b02bb2d12439ff7a20b59f402cca16c76f50508b13ef3166a600eb719354a5f80a2005b805f526004602052600160405f2001805490600160401b821015610bbd5760018201808255821015611aaf575f5260205f2001336001600160601b0360a01b825416179055611a2b565b634e487b7160e01b5f52603260045260245ffd5b85516001600160a01b031681830155602090950194600101611a13565b611af690855f528260205f2091820191016126c6565b84611a05565b015190508580611999565b601f19821695835f52805f20915f5b888110611b5057508360019596979810611b38575b505050811b0190556119ad565b01515f1960f88460031b161c19169055858080611b2b565b91926020600181928685015181550194019201611b16565b611b9290835f5260205f20601f840160051c8101916020851061123a57601f0160051c01906126c6565b8561197d565b6339e3563760e11b5f525f60045260245ffd5b6357ecdf3b60e01b5f5260045ffd5b905060085410158461190d565b34610214576020610c8c611bda36612077565b906125a4565b3461021457604036600319011261021457611bf9612027565b336001600160a01b03821603611c155761058c906004356131d6565b63334bd91960e11b5f5260045ffd5b3461021457604036600319011261021457611c3d612011565b60243590611c4a816126f0565b821015611c855760018060a01b03165f525f5160206134f75f395f51905f5260205260405f20905f52602052602060405f2054604051908152f35b63295f44f760e21b5f5260018060a01b031660045260245260445ffd5b346102145760403660031901126102145761058c600435611cc1612027565b90611ce7610582825f525f5160206135975f395f51905f52602052600160405f20015490565b613145565b34610214576020366003190112610214576020610c8c6004355f525f5160206135975f395f51905f52602052600160405f20015490565b346102145761058c611d343661203d565b916121ca565b34610214575f3660031901126102145760205f5160206135775f395f51905f5254604051908152f35b3461021457604036600319011261021457611d7c612011565b602435611d8881612879565b33151580611e4f575b80611e2c575b611e195781906001600160a01b0384811691167f8c5be1e5ebec7d5bd14f71427d1e84f3dd0314c0f7b2291e5b200ac8c7c3b9255f80a45f9081527f80bb2b638cc20bc4d0a60d66940f3ab4a00c1d7b313497ca82fb0b4ab00793046020526040902080546001600160a01b0319166001600160a01b03909216919091179055005b63a9fbf51f60e01b5f523360045260245ffd5b50611e36816124ec565b335f908152602091909152604090205460ff1615611d97565b506001600160a01b038116331415611d91565b34610214576020366003190112610214576020610cb2600435611e8481612879565b506128a8565b34610214575f366003190112610214576040515f5f5160206135175f395f51905f5254611eb681612192565b80845290600181169081156109785750600114611edd576105fb836105e78185038261208d565b5f5160206135175f395f51905f525f9081525f5160206136175f395f51905f52939250905b808210611f1a575090915081016020016105e76108fe565b919260018160209254838588010152019101909291611f02565b34610214576020366003190112610214576004359063ffffffff60e01b821680920361021457602091637965db0b60e01b8114908115611f76575b5015158152f35b63780e9d6360e01b811491508115611f90575b5083611f6f565b632483248360e11b811491508115611faa575b5083611f89565b6380ac58cd60e01b811491508115611fdc575b8115611fcb575b5083611fa3565b6301ffc9a760e01b14905083611fc4565b635b5e139f60e01b81149150611fbd565b805180835260209291819084018484015e5f828201840152601f01601f1916010190565b600435906001600160a01b038216820361021457565b602435906001600160a01b038216820361021457565b6060906003190112610214576004356001600160a01b038116810361021457906024356001600160a01b0381168103610214579060443590565b6040906003190112610214576004359060243590565b90601f801991011681019081106001600160401b03821117610bbd57604052565b6001600160401b038111610bbd57601f01601f191660200190565b81601f82011215610214576020813591016120e3826120ae565b926120f1604051948561208d565b8284528282011161021457815f92602092838601378301015290565b6001600160401b038111610bbd5760051b60200190565b9080601f830112156102145781359061213c8261210d565b9261214a604051948561208d565b82845260208085019360051b82010191821161021457602001915b8183106121725750505090565b82356001600160a01b038116810361021457815260209283019201612165565b90600182811c921680156121c0575b60208310146121ac57565b634e487b7160e01b5f52602260045260245ffd5b91607f16916121a1565b9091906001600160a01b0383168015610432576121e68361271f565b6124dd576121f3836133cb565b9033151580612440575b506001600160a01b0382169485158015612422575b61221b82612524565b60018154019055855f525f5160206135b75f395f51905f5260205260405f20836001600160601b0360a01b8254161790558583887fddf252ad1be2c89b69c2b068fc378daa952ba7f163c4a11628f55a4df523b3ef5f80a415612375575f5160206135775f395f51905f5254855f525f5160206135375f395f51905f526020528060405f2055600160401b811015610bbd57856122cd8260016122e594015f5160206135775f395f51905f525561255c565b90919082549060031b91821b915f19901b1916179055565b81860361231d575b5050506001600160a01b031680830361230557505050565b6364283d7b60e01b5f5260045260245260445260645ffd5b612326906126f0565b5f198101919082116104fb575f525f5160206134f75f395f51905f5260205260405f20815f526020528360405f2055835f525f5160206134d75f395f51905f5260205260405f20555f806122ed565b8582146122e557612385836126f0565b855f525f5160206134d75f395f51905f5260205260405f205490875f525f5160206134f75f395f51905f5260205260405f20918181036123eb575b50865f525f5160206134d75f395f51905f526020525f60408120555f526020525f60408120556122e5565b815f528260205260405f2054815f52836020528060405f20555f525f5160206134d75f395f51905f5260205260405f20555f6123c0565b61242b866133f1565b61243484612524565b80545f19019055612212565b80612488575b15612451575f6121fd565b836001600160a01b03831661247257637e27328960e01b5f5260045260245ffd5b63177e802f60e01b5f523360045260245260445ffd5b506001600160a01b038216331480156124bb575b806124465750336001600160a01b036124b4866128a8565b1614612446565b506124c5826124ec565b335f908152602091909152604090205460ff1661249c565b63977590bd60e01b5f5260045ffd5b6001600160a01b03165f9081527f80bb2b638cc20bc4d0a60d66940f3ab4a00c1d7b313497ca82fb0b4ab00793056020526040902090565b6001600160a01b03165f9081527f80bb2b638cc20bc4d0a60d66940f3ab4a00c1d7b313497ca82fb0b4ab00793036020526040902090565b5f5160206135775f395f51905f5254811015611aaf575f5160206135775f395f51905f525f5260205f2001905f90565b90816020910312610214575180151581036102145790565b919082156126b7575f52600360205260ff60405f2054165f146126af5760025480156126a8575b5f92835b5f548510156126a257600154851015611aaf5760015f526305f5e100838660205f2001540283020460018060a01b03600654165f54871015611aaf575f8080527f290decd9548b62a8d60345a988386fc84ba6bc95484008f6362f93160ef3e56388015460405163a9059cbb60e01b81526001600160a01b0390911660048201526024810184905291602091839160449183915af19081156104f0575f91612684575b50156104b257600191019401936125cf565b61269c915060203d81116104e9576104db818361208d565b5f612672565b93505050565b505f6125cb565b6127106125cb565b6318f5992f60e21b5f5260045ffd5b8181106126d1575050565b5f81556001016126c6565b8051821015611aaf5760209160051b010190565b6001600160a01b0381161561270c5761270890612524565b5490565b6322718ad960e21b5f525f60045260245ffd5b5f90815260076020526040902080546001600160a01b031615159081612743575090565b6001600160801b03915060010154166001600160801b0342161090565b929161276d8183866121ca565b813b61277a575b50505050565b604051630a85bd0160e11b81523360048201526001600160a01b03948516602482015260448101919091526080606482015292169190602090829081906127c5906084830190611fed565b03815f865af15f9181612834575b5061280157506127e16132b8565b805190816127fc5782633250574960e11b5f5260045260245ffd5b602001fd5b6001600160e01b03191663757a42ff60e11b0161282257505f808080612774565b633250574960e11b5f5260045260245ffd5b9091506020813d602011612871575b816128506020938361208d565b8101031261021457516001600160e01b03198116810361021457905f6127d3565b3d9150612843565b612882816133cb565b906001600160a01b03821615612896575090565b637e27328960e01b5f5260045260245ffd5b5f9081527f80bb2b638cc20bc4d0a60d66940f3ab4a00c1d7b313497ca82fb0b4ab007930460205260409020546001600160a01b031690565b6128ea8261271f565b6124dd576128f7826133cb565b916001600160a01b038316801592908315612bd8575b6001600160a01b038216938415908115612bc3575b845f525f5160206135b75f395f51905f5260205260405f20866001600160601b0360a01b8254161790558486847fddf252ad1be2c89b69c2b068fc378daa952ba7f163c4a11628f55a4df523b3ef5f80a415612b16575f5160206135775f395f51905f5254845f525f5160206135375f395f51905f526020528060405f2055600160401b811015610bbd57846122cd8260016129cd94015f5160206135775f395f51905f525561255c565b15612ab157505090505f5160206135775f395f51905f52545f1981019081116104fb57815f525f5160206135375f395f51905f52602052612a1260405f20549161255c565b90549060031b1c612a26816122cd8461255c565b5f525f5160206135375f395f51905f5260205260405f20555f525f5160206135375f395f51905f526020525f60408120555f5160206135775f395f51905f52548015612a9d575f1901612a8b612a7b8261255c565b8154905f199060031b1b19169055565b5f5160206135775f395f51905f525590565b634e487b7160e01b5f52603160045260245ffd5b8303612abe575b50505090565b612ac7906126f0565b5f198101929083116104fb575f525f5160206134f75f395f51905f5260205260405f20825f526020528060405f20555f525f5160206134d75f395f51905f5260205260405f20555f8080612ab8565b8185146129cd57612b26866126f0565b845f525f5160206134d75f395f51905f5260205260405f205490835f525f5160206134f75f395f51905f5260205260405f2091818103612b8c575b50855f525f5160206134d75f395f51905f526020525f60408120555f526020525f60408120556129cd565b815f528260205260405f2054815f52836020528060405f20555f525f5160206134d75f395f51905f5260205260405f20555f612b61565b612bcc84612524565b60018154019055612922565b612be1836133f1565b612bea85612524565b80545f1901905561290d565b612bff8161271f565b6124dd57612c0c816133cb565b916001600160a01b031680151580612deb575b50506001600160a01b038216801580159081612dcd575b5f8481525f5160206135b75f395f51905f526020526040812080546001600160a01b03191690558490847fddf252ad1be2c89b69c2b068fc378daa952ba7f163c4a11628f55a4df523b3ef8280a415612d1c5750505f5160206135775f395f51905f5254815f525f5160206135375f395f51905f526020528060405f2055600160401b811015610bbd57816122cd826001612ce094015f5160206135775f395f51905f525561255c565b5f5160206135775f395f51905f52545f1981019081116104fb57815f525f5160206135375f395f51905f52602052612a1260405f20549161255c565b612d27575b50612ce0565b612d30836126f0565b825f525f5160206134d75f395f51905f5260205260405f2054915f525f5160206134f75f395f51905f5260205260405f2091818103612d96575b50825f525f5160206134d75f395f51905f526020525f60408120555f526020525f60408120555f612d21565b815f528260205260405f2054815f52836020528060405f20555f525f5160206134d75f395f51905f5260205260405f20555f612d6a565b612dd6846133f1565b612ddf85612524565b80545f19019055612c36565b80612e32575b15612dfc5780612c1f565b6001600160a01b038316612e1d5750637e27328960e01b5f5260045260245ffd5b63177e802f60e01b5f5260045260245260445ffd5b506001600160a01b03831681148015612e65575b80612df15750806001600160a01b03612e5e846128a8565b1614612df1565b50612e6f836124ec565b815f5260205260ff60405f205416612e46565b335f9081527f549fe2656c81d2947b3b913f0a53b9ea86c71e049f3a1b8aa23c09a8a05cb8d4602052604090205460ff1615612eba57565b63e2517d3f60e01b5f52336004527f9f2df0fed2c77648de5860a4cc508cd0818c85b8b8a1ab4ceeef8d981c8956a660245260445ffd5b5f8181525f5160206135975f395f51905f526020908152604080832033845290915290205460ff1615612f215750565b63e2517d3f60e01b5f523360045260245260445ffd5b6001600160a01b0381165f9081527fb7db2dd08fcb62d0c9e08c51941cae53c267786a0b75803fb7960902fc8ef97d602052604090205460ff16612fce576001600160a01b03165f8181527fb7db2dd08fcb62d0c9e08c51941cae53c267786a0b75803fb7960902fc8ef97d60205260408120805460ff191660011790553391905f5160206134b75f395f51905f528180a4600190565b505f90565b6001600160a01b0381165f9081527f549fe2656c81d2947b3b913f0a53b9ea86c71e049f3a1b8aa23c09a8a05cb8d4602052604090205460ff16612fce576001600160a01b03165f8181527f549fe2656c81d2947b3b913f0a53b9ea86c71e049f3a1b8aa23c09a8a05cb8d460205260408120805460ff191660011790553391907f9f2df0fed2c77648de5860a4cc508cd0818c85b8b8a1ab4ceeef8d981c8956a6905f5160206134b75f395f51905f529080a4600190565b6001600160a01b0381165f9081527fab71e3f32666744d246edff3f96e4bdafee2e9867098cdd118a979a7464786a8602052604090205460ff16612fce576001600160a01b03165f8181527fab71e3f32666744d246edff3f96e4bdafee2e9867098cdd118a979a7464786a860205260408120805460ff191660011790553391907f189ab7a9244df0848122154315af71fe140f3db0fe014031783b0946b8c9d2e3905f5160206134b75f395f51905f529080a4600190565b5f8181525f5160206135975f395f51905f52602090815260408083206001600160a01b038616845290915290205460ff166131d0575f8181525f5160206135975f395f51905f52602090815260408083206001600160a01b0395909516808452949091528120805460ff19166001179055339291905f5160206134b75f395f51905f529080a4600190565b50505f90565b5f8181525f5160206135975f395f51905f52602090815260408083206001600160a01b038616845290915290205460ff16156131d0575f8181525f5160206135975f395f51905f52602090815260408083206001600160a01b0395909516808452949091528120805460ff19169055339291907ff6391f5c32d9c69d2a47ea670b442974b53935d1edc7fd64eb21e047a839171b9080a4600190565b905f5b82518110156132b1576001600160a01b0361329082856126dc565b51166001600160a01b038316146132a957600101613275565b505050600190565b5050505f90565b3d156132e2573d906132c9826120ae565b916132d7604051938461208d565b82523d5f602084013e565b606090565b6132f081612879565b505f527f0542a41881ee128a365a727b282c86fa859579490b9bb45aab8503648c8e790060205260405f2060405190815f82549261332d84612192565b80845293600181169081156133a95750600114613365575b506133529250038261208d565b5f60405161336160208261208d565b5290565b90505f9291925260205f20905f915b81831061338d575050906020613352928201015f613345565b6020919350806001915483858801015201910190918392613374565b90506020925061335294915060ff191682840152151560051b8201015f613345565b5f9081525f5160206135b75f395f51905f5260205260409020546001600160a01b031690565b5f527f80bb2b638cc20bc4d0a60d66940f3ab4a00c1d7b313497ca82fb0b4ab007930460205260405f206001600160601b0360a01b8154169055565b60ff5f5160206135d75f395f51905f525460401c161561344957565b631afcd79f60e31b5f5260045ffd5b9061347c575080511561346d57805190602001fd5b63d6bda27560e01b5f5260045ffd5b815115806134ad575b61348d575090565b639996b31560e01b5f9081526001600160a01b0391909116600452602490fd5b50803b1561348556fe2f8788117e7eff1d82e926ec794901d17c78024a50270940304540a733656f0d645e039705490088daad89bae25049a34f4a9072d398537b1ab2425f24cbed01645e039705490088daad89bae25049a34f4a9072d398537b1ab2425f24cbed0080bb2b638cc20bc4d0a60d66940f3ab4a00c1d7b313497ca82fb0b4ab0079300645e039705490088daad89bae25049a34f4a9072d398537b1ab2425f24cbed03360894a13ba1a3210667c828492db98dca3e2076cc3735a920a3ca505d382bbc645e039705490088daad89bae25049a34f4a9072d398537b1ab2425f24cbed0202dd7bc7dec4dceedda775e58dd541e08a116c6c53815c0bd028192f7b62680080bb2b638cc20bc4d0a60d66940f3ab4a00c1d7b313497ca82fb0b4ab0079302f0c57e16840df040f15088dc2f81fe391c3923bec73e23a9662efc9c229c6a0080bb2b638cc20bc4d0a60d66940f3ab4a00c1d7b313497ca82fb0b4ab007930137c58c799b6609234b945e882912ee9ad34948a1dfaa20a97485e1a7752bbf81a26469706673582212203b0bee47502abf5f726f248cc5547054e37eddab98b780f3114a6021a59675d164736f6c634300081c0033",
    "sourcePath": "/Users/paul.stinchcombe/kami_dev/ERC721-C/contracts/ERC721-C.sol",
    "compiler": {
        "name": "solc",
        "version": "0.8.28+commit.7893614a"
    },
    "functionHashes": {
        "DEFAULT_ADMIN_ROLE()": "a217fddf",
        "MINTER_ROLE()": "d5391393",
        "UPGRADER_ROLE()": "f72c0d8b",
        "UPGRADE_INTERFACE_VERSION()": "ad3cb1cc",
        "approve(address,uint256)": "095ea7b3",
        "balanceOf(address)": "70a08231",
        "burn(uint256)": "42966c68",
        "buy(uint256)": "d96a094a",
        "distributeRoyalties(uint256,uint256)": "3d4a855c",
        "endRental(uint256)": "97491d6f",
        "getApproved(uint256)": "081812fc",
        "getCurrentTokenId()": "56189236",
        "getMaxQuantity()": "e3fa569f",
        "getPrice(uint256)": "e7572230",
        "getRoleAdmin(bytes32)": "248a9ca3",
        "getSecondaryRoyaltyPercentage()": "91af33ed",
        "grantRole(bytes32,address)": "2f2ff15d",
        "hasRole(bytes32,address)": "91d14854",
        "initialize(string,string,address[],uint256[],uint256,address,uint256)": "58fc3787",
        "isApprovedForAll(address,address)": "e985e9c5",
        "isRented(uint256)": "aa15d40f",
        "mint(address,string,uint256,address[])": "3e8af41f",
        "name()": "06fdde03",
        "ownerOf(uint256)": "6352211e",
        "proxiableUUID()": "52d1902d",
        "renounceRole(bytes32,address)": "36568abe",
        "revokeRole(bytes32,address)": "d547741f",
        "safeTransferFrom(address,address,uint256)": "42842e0e",
        "safeTransferFrom(address,address,uint256,bytes)": "b88d4fde",
        "setApprovalForAll(address,bool)": "a22cb465",
        "setPrice(uint256,uint256)": "f7d97577",
        "setSecondaryRoyaltyPercentage(uint256)": "89db904e",
        "setTokenUri(uint256,string)": "57f7789e",
        "startRental(uint256,address,uint256)": "771e2b06",
        "supportsInterface(bytes4)": "01ffc9a7",
        "symbol()": "95d89b41",
        "tokenByIndex(uint256)": "4f6ccce7",
        "tokenOfOwnerByIndex(address,uint256)": "2f745c59",
        "tokenURI(uint256)": "c87b56dd",
        "totalSupply()": "18160ddd",
        "transferFrom(address,address,uint256)": "23b872dd",
        "upgradeToAndCall(address,bytes)": "4f1ef286"
    },
    "gasEstimates": {
        "creation": {
            "codeDepositCost": "2786400",
            "executionCost": "infinite",
            "totalCost": "infinite"
        },
        "external": {
            "DEFAULT_ADMIN_ROLE()": "768",
            "MINTER_ROLE()": "901",
            "UPGRADER_ROLE()": "1033",
            "UPGRADE_INTERFACE_VERSION()": "1138",
            "approve(address,uint256)": "31255",
            "balanceOf(address)": "2969",
            "burn(uint256)": "infinite",
            "buy(uint256)": "infinite",
            "distributeRoyalties(uint256,uint256)": "infinite",
            "endRental(uint256)": "infinite",
            "getApproved(uint256)": "infinite",
            "getCurrentTokenId()": "2630",
            "getMaxQuantity()": "3070",
            "getPrice(uint256)": "3163",
            "getRoleAdmin(bytes32)": "infinite",
            "getSecondaryRoyaltyPercentage()": "2784",
            "grantRole(bytes32,address)": "33576",
            "hasRole(bytes32,address)": "infinite",
            "initialize(string,string,address[],uint256[],uint256,address,uint256)": "infinite",
            "isApprovedForAll(address,address)": "3465",
            "isRented(uint256)": "5220",
            "mint(address,string,uint256,address[])": "infinite",
            "name()": "infinite",
            "ownerOf(uint256)": "infinite",
            "proxiableUUID()": "infinite",
            "renounceRole(bytes32,address)": "29097",
            "revokeRole(bytes32,address)": "34160",
            "safeTransferFrom(address,address,uint256)": "infinite",
            "safeTransferFrom(address,address,uint256,bytes)": "infinite",
            "setApprovalForAll(address,bool)": "27112",
            "setPrice(uint256,uint256)": "25465",
            "setSecondaryRoyaltyPercentage(uint256)": "24983",
            "setTokenUri(uint256,string)": "infinite",
            "startRental(uint256,address,uint256)": "infinite",
            "supportsInterface(bytes4)": "493",
            "symbol()": "infinite",
            "tokenByIndex(uint256)": "infinite",
            "tokenOfOwnerByIndex(address,uint256)": "infinite",
            "tokenURI(uint256)": "infinite",
            "totalSupply()": "infinite",
            "transferFrom(address,address,uint256)": "infinite",
            "upgradeToAndCall(address,bytes)": "infinite"
        },
        "internal": {
            "_authorizeUpgrade(address)": "infinite",
            "_increaseBalance(address,uint128)": "infinite",
            "_isAddressInArray(address[] memory,address)": "infinite",
            "_update(address,uint256,address)": "infinite",
            "setupRoles()": "infinite"
        }
    }
}