{
	"data": {
		"bytecode": {
			"linkReferences": {},
			"object": "60a06040523073ffffffffffffffffffffffffffffffffffffffff1660809073ffffffffffffffffffffffffffffffffffffffff168152503480156041575f5ffd5b506080516163806100685f395f8181612fb10152818161300601526131e301526163805ff3fe6080604052600436106102e3575f3560e01c80636a326ab11161018f578063ad3cb1cc116100db578063d96a094a11610094578063e985e9c51161006e578063e985e9c514610b65578063f00acbaa14610ba1578063f72c0d8b14610bcb578063f7d9757714610bf5576102e3565b8063d96a094a14610ad7578063e3fa569f14610aff578063e757223014610b29576102e3565b8063ad3cb1cc146109cd578063b88d4fde146109f7578063c87b56dd14610a1f578063d41c3a6514610a5b578063d539139314610a85578063d547741f14610aaf576102e3565b806391d1485411610148578063a217fddf11610122578063a217fddf14610915578063a22cb4651461093f578063a596dae314610967578063aa15d40f14610991576102e3565b806391d148541461088757806395d89b41146108c357806397491d6f146108ed576102e3565b80636a326ab11461076d57806370a0823114610795578063771e2b06146107d157806389db904e146107f95780638c0a79741461082157806391af33ed1461085d576102e3565b80633d4a855c1161024e5780634f1ef2861161020757806352d1902d116101e157806352d1902d146106b557806356189236146106df57806357f7789e146107095780636352211e14610731576102e3565b80634f1ef286146106355780634f6ccce71461065157806352bd50ab1461068d576102e3565b80633d4a855c146105315780633e8af41f1461056d57806342842e0e1461059557806342966c68146105bd5780634a65a575146105e55780634cd88b761461060d576102e3565b8063248a9ca3116102a0578063248a9ca3146104035780632f2ff15d1461043f5780632f745c5914610467578063326fd3d4146104a357806336568abe146104df5780633a6bf9ba14610507576102e3565b806301ffc9a7146102e757806306fdde0314610323578063081812fc1461034d578063095ea7b31461038957806318160ddd146103b157806323b872dd146103db575b5f5ffd5b3480156102f2575f5ffd5b5061030d60048036038101906103089190614c31565b610c1d565b60405161031a9190614c76565b60405180910390f35b34801561032e575f5ffd5b50610337610c2e565b6040516103449190614cff565b60405180910390f35b348015610358575f5ffd5b50610373600480360381019061036e9190614d52565b610ccb565b6040516103809190614dbc565b60405180910390f35b348015610394575f5ffd5b506103af60048036038101906103aa9190614dff565b610ce6565b005b3480156103bc575f5ffd5b506103c5610cfc565b6040516103d29190614e4c565b60405180910390f35b3480156103e6575f5ffd5b5061040160048036038101906103fc9190614e65565b610d16565b005b34801561040e575f5ffd5b5061042960048036038101906104249190614ee8565b610e15565b6040516104369190614f22565b60405180910390f35b34801561044a575f5ffd5b5061046560048036038101906104609190614f3b565b610e3f565b005b348015610472575f5ffd5b5061048d60048036038101906104889190614dff565b610e61565b60405161049a9190614e4c565b60405180910390f35b3480156104ae575f5ffd5b506104c960048036038101906104c49190614d52565b610f12565b6040516104d69190614e4c565b60405180910390f35b3480156104ea575f5ffd5b5061050560048036038101906105009190614f3b565b610f37565b005b348015610512575f5ffd5b5061051b610fb2565b6040516105289190615030565b60405180910390f35b34801561053c575f5ffd5b5061055760048036038101906105529190615050565b61103c565b6040516105649190614e4c565b60405180910390f35b348015610578575f5ffd5b50610593600480360381019061058e919061527e565b611396565b005b3480156105a0575f5ffd5b506105bb60048036038101906105b69190614e65565b61159b565b005b3480156105c8575f5ffd5b506105e360048036038101906105de9190614d52565b6115ba565b005b3480156105f0575f5ffd5b5061060b60048036038101906106069190614d52565b6115d0565b005b348015610618575f5ffd5b50610633600480360381019061062e919061531a565b6115e7565b005b61064f600480360381019061064a919061542e565b611820565b005b34801561065c575f5ffd5b5061067760048036038101906106729190614d52565b61183f565b6040516106849190614e4c565b60405180910390f35b348015610698575f5ffd5b506106b360048036038101906106ae9190615548565b6118bf565b005b3480156106c0575f5ffd5b506106c96118fd565b6040516106d69190614f22565b60405180910390f35b3480156106ea575f5ffd5b506106f361192e565b6040516107009190614e4c565b60405180910390f35b348015610714575f5ffd5b5061072f600480360381019061072a91906155be565b611937565b005b34801561073c575f5ffd5b5061075760048036038101906107529190614d52565b611970565b6040516107649190614dbc565b60405180910390f35b348015610778575f5ffd5b50610793600480360381019061078e9190615618565b611981565b005b3480156107a0575f5ffd5b506107bb60048036038101906107b69190615618565b6119d1565b6040516107c89190614e4c565b60405180910390f35b3480156107dc575f5ffd5b506107f760048036038101906107f29190615643565b611a95565b005b348015610804575f5ffd5b5061081f600480360381019061081a9190614d52565b611d10565b005b34801561082c575f5ffd5b5061084760048036038101906108429190615050565b611d8a565b604051610854919061574a565b60405180910390f35b348015610868575f5ffd5b50610871611f7b565b60405161087e9190614e4c565b60405180910390f35b348015610892575f5ffd5b506108ad60048036038101906108a89190614f3b565b611f84565b6040516108ba9190614c76565b60405180910390f35b3480156108ce575f5ffd5b506108d7611ff5565b6040516108e49190614cff565b60405180910390f35b3480156108f8575f5ffd5b50610913600480360381019061090e9190614d52565b612093565b005b348015610920575f5ffd5b506109296122ea565b6040516109369190614f22565b60405180910390f35b34801561094a575f5ffd5b5061096560048036038101906109609190615794565b6122f0565b005b348015610972575f5ffd5b5061097b612306565b604051610988919061574a565b60405180910390f35b34801561099c575f5ffd5b506109b760048036038101906109b29190614d52565b61235c565b6040516109c49190614c76565b60405180910390f35b3480156109d8575f5ffd5b506109e1612419565b6040516109ee9190614cff565b60405180910390f35b348015610a02575f5ffd5b50610a1d6004803603810190610a1891906157d2565b612452565b005b348015610a2a575f5ffd5b50610a456004803603810190610a409190614d52565b612477565b604051610a529190614cff565b60405180910390f35b348015610a66575f5ffd5b50610a6f612489565b604051610a7c9190614dbc565b60405180910390f35b348015610a90575f5ffd5b50610a996124b1565b604051610aa69190614f22565b60405180910390f35b348015610aba575f5ffd5b50610ad56004803603810190610ad09190614f3b565b6124d5565b005b348015610ae2575f5ffd5b50610afd6004803603810190610af89190614d52565b6124f7565b005b348015610b0a575f5ffd5b50610b13612850565b604051610b209190614e4c565b60405180910390f35b348015610b34575f5ffd5b50610b4f6004803603810190610b4a9190614d52565b612859565b604051610b5c9190614e4c565b60405180910390f35b348015610b70575f5ffd5b50610b8b6004803603810190610b869190615852565b612876565b604051610b989190614c76565b60405180910390f35b348015610bac575f5ffd5b50610bb5612912565b604051610bc29190614f22565b60405180910390f35b348015610bd6575f5ffd5b50610bdf612936565b604051610bec9190614f22565b60405180910390f35b348015610c00575f5ffd5b50610c1b6004803603810190610c169190615050565b61295a565b005b5f610c27826129a2565b9050919050565b60605f610c39612a1b565b9050805f018054610c49906158bd565b80601f0160208091040260200160405190810160405280929190818152602001828054610c75906158bd565b8015610cc05780601f10610c9757610100808354040283529160200191610cc0565b820191905f5260205f20905b815481529060010190602001808311610ca357829003601f168201915b505050505091505090565b5f610cd582612a42565b50610cdf82612ac8565b9050919050565b610cf88282610cf3612b0f565b612b16565b5050565b5f5f610d06612b28565b9050806002018054905091505090565b5f73ffffffffffffffffffffffffffffffffffffffff168273ffffffffffffffffffffffffffffffffffffffff1603610d86575f6040517f64a0ae92000000000000000000000000000000000000000000000000000000008152600401610d7d9190614dbc565b60405180910390fd5b5f610d998383610d94612b0f565b612b4f565b90508373ffffffffffffffffffffffffffffffffffffffff168173ffffffffffffffffffffffffffffffffffffffff1614610e0f578382826040517f64283d7b000000000000000000000000000000000000000000000000000000008152600401610e06939291906158ed565b60405180910390fd5b50505050565b5f5f610e1f612ba4565b9050805f015f8481526020019081526020015f2060010154915050919050565b610e4882610e15565b610e5181612bcb565b610e5b8383612bdf565b50505050565b5f5f610e6b612b28565b9050610e76846119d1565b8310610ebb5783836040517fa57d13dc000000000000000000000000000000000000000000000000000000008152600401610eb2929190615922565b60405180910390fd5b805f015f8573ffffffffffffffffffffffffffffffffffffffff1673ffffffffffffffffffffffffffffffffffffffff1681526020019081526020015f205f8481526020019081526020015f205491505092915050565b5f60018281548110610f2757610f26615949565b5b905f5260205f2001549050919050565b610f3f612b0f565b73ffffffffffffffffffffffffffffffffffffffff168173ffffffffffffffffffffffffffffffffffffffff1614610fa3576040517f6697b23200000000000000000000000000000000000000000000000000000000815260040160405180910390fd5b610fad8282612cd7565b505050565b60605f80548060200260200160405190810160405280929190818152602001828054801561103257602002820191905f5260205f20905b815f9054906101000a900473ffffffffffffffffffffffffffffffffffffffff1673ffffffffffffffffffffffffffffffffffffffff1681526020019060010190808311610fe9575b5050505050905090565b5f5f8303611076576040517f63d664bc00000000000000000000000000000000000000000000000000000000815260040160405180910390fd5b7fe8482ec6ca8430924a4791fa337de48dd53e9ace1c963558f81dabb4227afd51836040516110a59190614e4c565b60405180910390a15f60035f8481526020019081526020015f205f9054906101000a900460ff166110d75760016110eb565b5f600254116110e6575f6110ea565b6002545b5b90507f529834a623ce4a9b55d2c70e5a6f1b4d8ca4246b203ec66473c0647923dfc02160035f8581526020019081526020015f205f9054906101000a900460ff168260405161113b929190615976565b60405180910390a15f5f90505f5b5f8054905081101561138a575f61271080856001858154811061116f5761116e615949565b5b905f5260205f20015402816111875761118661599d565b5b048802816111985761119761599d565b5b0490507fffad7d7508b680459d3ab590487d1647b0c5bb1fcce7baaef005e26219199fd282600184815481106111d1576111d0615949565b5b905f5260205f200154836040516111ea939291906159ca565b60405180910390a15f60065f9054906101000a900473ffffffffffffffffffffffffffffffffffffffff1673ffffffffffffffffffffffffffffffffffffffff166323b872dd305f868154811061124457611243615949565b5b905f5260205f20015f9054906101000a900473ffffffffffffffffffffffffffffffffffffffff16856040518463ffffffff1660e01b815260040161128b939291906159ff565b6020604051808303815f875af11580156112a7573d5f5f3e3d5ffd5b505050506040513d601f19601f820116820180604052508101906112cb9190615a48565b905080611304576040517f90b8ec1800000000000000000000000000000000000000000000000000000000815260040160405180910390fd5b8184019350867fff50aeaf5513a2bfcf5c38af0d681d05e9a00cd91cc42ab2e143549595e5f1725f858154811061133e5761133d615949565b5b905f5260205f20015f9054906101000a900473ffffffffffffffffffffffffffffffffffffffff1684604051611375929190615922565b60405180910390a25050806001019050611149565b50809250505092915050565b5f6005541180156113ab575060055460085410155b156113e2576040517f57ecdf3b00000000000000000000000000000000000000000000000000000000815260040160405180910390fd5b60085f8154809291906113f490615aa0565b91905055505f60085490506114098582612dcf565b8360045f8381526020019081526020015f205f0190816114299190615c87565b508260045f8381526020019081526020015f20600201819055503360045f8381526020019081526020015f206003015f6101000a81548173ffffffffffffffffffffffffffffffffffffffff021916908373ffffffffffffffffffffffffffffffffffffffff1602179055508160045f8381526020019081526020015f2060010190805190602001906114bd929190614ade565b506114c88233612ec2565b61153f5760045f8281526020019081526020015f2060010133908060018154018082558091505060019003905f5260205f20015f9091909190916101000a81548173ffffffffffffffffffffffffffffffffffffffff021916908373ffffffffffffffffffffffffffffffffffffffff1602179055505b5f60035f8381526020019081526020015f205f6101000a81548160ff021916908315150217905550807f176b02bb2d12439ff7a20b59f402cca16c76f50508b13ef3166a600eb719354a60405160405180910390a25050505050565b6115b583838360405180602001604052805f815250612452565b505050565b6115cc5f826115c7612b0f565b612b4f565b5050565b5f5f1b6115dc81612bcb565b816005819055505050565b5f6115f0612f40565b90505f815f0160089054906101000a900460ff161590505f825f015f9054906101000a900467ffffffffffffffff1690505f5f8267ffffffffffffffff161480156116385750825b90505f60018367ffffffffffffffff1614801561166b57505f3073ffffffffffffffffffffffffffffffffffffffff163b145b905081158015611679575080155b156116b0576040517ff92ee8a900000000000000000000000000000000000000000000000000000000815260040160405180910390fd5b6001855f015f6101000a81548167ffffffffffffffff021916908367ffffffffffffffff16021790555083156116fd576001855f0160086101000a81548160ff0219169083151502179055505b6117078787612f67565b61170f612f7d565b611717612f87565b61171f612f91565b611727612f9b565b61172f612fa5565b61173b5f5f1b33612bdf565b506117667f9f2df0fed2c77648de5860a4cc508cd0818c85b8b8a1ab4ceeef8d981c8956a633612bdf565b506117917f189ab7a9244df0848122154315af71fe140f3db0fe014031783b0946b8c9d2e333612bdf565b506117bc7f04824fcb60e7cc526d70b264caa65b62ed44d9c8e5d230e8ff6b0c7373843b8a33612bdf565b508315611817575f855f0160086101000a81548160ff0219169083151502179055507fc7f505b2f371ae2175ee4913f4499e1f2633a7b5936321eed1cdaeb6115181d2600160405161180e9190615da2565b60405180910390a15b50505050505050565b611828612faf565b61183182613095565b61183b82826130c3565b5050565b5f5f611849612b28565b9050611853610cfc565b8310611898575f836040517fa57d13dc00000000000000000000000000000000000000000000000000000000815260040161188f929190615922565b60405180910390fd5b8060020183815481106118ae576118ad615949565b5b905f5260205f200154915050919050565b5f5f1b6118cb81612bcb565b825f90805190602001906118e0929190614ade565b5081600190805190602001906118f7929190614b65565b50505050565b5f6119066131e1565b7f360894a13ba1a3210667c828492db98dca3e2076cc3735a920a3ca505d382bbc5f1b905090565b5f600854905090565b7f9f2df0fed2c77648de5860a4cc508cd0818c85b8b8a1ab4ceeef8d981c8956a661196181612bcb565b61196b8383613268565b505050565b5f61197a82612a42565b9050919050565b5f5f1b61198d81612bcb565b8160065f6101000a81548173ffffffffffffffffffffffffffffffffffffffff021916908373ffffffffffffffffffffffffffffffffffffffff1602179055505050565b5f5f6119db612a1b565b90505f73ffffffffffffffffffffffffffffffffffffffff168373ffffffffffffffffffffffffffffffffffffffff1603611a4d575f6040517f89c62b64000000000000000000000000000000000000000000000000000000008152600401611a449190614dbc565b60405180910390fd5b806003015f8473ffffffffffffffffffffffffffffffffffffffff1673ffffffffffffffffffffffffffffffffffffffff1681526020019081526020015f2054915050919050565b7f9f2df0fed2c77648de5860a4cc508cd0818c85b8b8a1ab4ceeef8d981c8956a6611abf81612bcb565b3373ffffffffffffffffffffffffffffffffffffffff16611adf85611970565b73ffffffffffffffffffffffffffffffffffffffff1614611b35576040517f08c379a0000000000000000000000000000000000000000000000000000000008152600401611b2c90615e2b565b60405180910390fd5b5f73ffffffffffffffffffffffffffffffffffffffff1660075f8681526020019081526020015f205f015f9054906101000a900473ffffffffffffffffffffffffffffffffffffffff1673ffffffffffffffffffffffffffffffffffffffff1614611bd5576040517f08c379a0000000000000000000000000000000000000000000000000000000008152600401611bcc90615e93565b60405180910390fd5b5f8242611be29190615ecc565b905060405180604001604052808573ffffffffffffffffffffffffffffffffffffffff168152602001826fffffffffffffffffffffffffffffffff1681525060075f8781526020019081526020015f205f820151815f015f6101000a81548173ffffffffffffffffffffffffffffffffffffffff021916908373ffffffffffffffffffffffffffffffffffffffff1602179055506020820151816001015f6101000a8154816fffffffffffffffffffffffffffffffff02191690836fffffffffffffffffffffffffffffffff1602179055509050508373ffffffffffffffffffffffffffffffffffffffff16857fcd8520b03d334e6f2013c967df2f3b747f950035978a9c6b756c0b6414886bbb836001604051611d01929190615f1e565b60405180910390a35050505050565b7f9f2df0fed2c77648de5860a4cc508cd0818c85b8b8a1ab4ceeef8d981c8956a6611d3a81612bcb565b6103e8821115611d7f576040517f08c379a0000000000000000000000000000000000000000000000000000000008152600401611d7690615fb5565b60405180910390fd5b816002819055505050565b60605f8303611dc5576040517f63d664bc00000000000000000000000000000000000000000000000000000000815260040160405180910390fd5b5f60025f80549050611dd79190615fd3565b67ffffffffffffffff811115611df057611def615096565b5b604051908082528060200260200182016040528015611e1e5781602001602082028036833780820191505090505b5090505f60035f8581526020019081526020015f205f9054906101000a900460ff16611e4a575f611e4e565b6002545b90505f5f90505f5b5f80549050811015611f1a575f5f841115611eb557612710808560018581548110611e8457611e83615949565b5b905f5260205f2001540281611e9c57611e9b61599d565b5b04890281611ead57611eac61599d565b5b049050611ee9565b61271060018381548110611ecc57611ecb615949565b5b905f5260205f200154890281611ee557611ee461599d565b5b0490505b808301925080858381518110611f0257611f01615949565b5b60200260200101818152505050806001019050611e56565b5080835f8054905081518110611f3357611f32615949565b5b602002602001018181525050818360015f80549050611f529190615fd3565b81518110611f6357611f62615949565b5b60200260200101818152505082935050505092915050565b5f600254905090565b5f5f611f8e612ba4565b9050805f015f8581526020019081526020015f205f015f8473ffffffffffffffffffffffffffffffffffffffff1673ffffffffffffffffffffffffffffffffffffffff1681526020019081526020015f205f9054906101000a900460ff1691505092915050565b60605f612000612a1b565b9050806001018054612011906158bd565b80601f016020809104026020016040519081016040528092919081815260200182805461203d906158bd565b80156120885780601f1061205f57610100808354040283529160200191612088565b820191905f5260205f20905b81548152906001019060200180831161206b57829003601f168201915b505050505091505090565b3373ffffffffffffffffffffffffffffffffffffffff1660075f8381526020019081526020015f205f015f9054906101000a900473ffffffffffffffffffffffffffffffffffffffff1673ffffffffffffffffffffffffffffffffffffffff16148061213257503373ffffffffffffffffffffffffffffffffffffffff1661211a82611970565b73ffffffffffffffffffffffffffffffffffffffff16145b612171576040517f08c379a000000000000000000000000000000000000000000000000000000000815260040161216890616076565b60405180910390fd5b5f73ffffffffffffffffffffffffffffffffffffffff1660075f8381526020019081526020015f205f015f9054906101000a900473ffffffffffffffffffffffffffffffffffffffff1673ffffffffffffffffffffffffffffffffffffffff1603612211576040517f08c379a0000000000000000000000000000000000000000000000000000000008152600401612208906160de565b60405180910390fd5b5f60075f8381526020019081526020015f205f015f9054906101000a900473ffffffffffffffffffffffffffffffffffffffff16905060075f8381526020019081526020015f205f5f82015f6101000a81549073ffffffffffffffffffffffffffffffffffffffff0219169055600182015f6101000a8154906fffffffffffffffffffffffffffffffff021916905550508073ffffffffffffffffffffffffffffffffffffffff16827ff9bbd47d9659083aa5b016ffd346aca413549aace523513f610200aeed1e1dd460405160405180910390a35050565b5f5f1b81565b6123026122fb612b0f565b83836132cf565b5050565b6060600180548060200260200160405190810160405280929190818152602001828054801561235257602002820191905f5260205f20905b81548152602001906001019080831161233e575b5050505050905090565b5f5f60075f8481526020019081526020015f2090505f73ffffffffffffffffffffffffffffffffffffffff16815f015f9054906101000a900473ffffffffffffffffffffffffffffffffffffffff1673ffffffffffffffffffffffffffffffffffffffff16141580156124115750426fffffffffffffffffffffffffffffffff16816001015f9054906101000a90046fffffffffffffffffffffffffffffffff166fffffffffffffffffffffffffffffffff16115b915050919050565b6040518060400160405280600581526020017f352e302e3000000000000000000000000000000000000000000000000000000081525081565b61245d848484610d16565b612471612468612b0f565b85858585613446565b50505050565b6060612482826135f2565b9050919050565b5f60065f9054906101000a900473ffffffffffffffffffffffffffffffffffffffff16905090565b7f9f2df0fed2c77648de5860a4cc508cd0818c85b8b8a1ab4ceeef8d981c8956a681565b6124de82610e15565b6124e781612bcb565b6124f18383612cd7565b50505050565b5f60045f8381526020019081526020015f2090505f816002015403612548576040517f0dfbfc4c00000000000000000000000000000000000000000000000000000000815260040160405180910390fd5b5f61255283611970565b90505f73ffffffffffffffffffffffffffffffffffffffff168173ffffffffffffffffffffffffffffffffffffffff16036125b9576040517f0dfbfc4c00000000000000000000000000000000000000000000000000000000815260040160405180910390fd5b60065f9054906101000a900473ffffffffffffffffffffffffffffffffffffffff1673ffffffffffffffffffffffffffffffffffffffff166323b872dd333085600201546040518463ffffffff1660e01b815260040161261b939291906159ff565b6020604051808303815f875af1158015612637573d5f5f3e3d5ffd5b505050506040513d601f19601f8201168201806040525081019061265b9190615a48565b612691576040517f90b8ec1800000000000000000000000000000000000000000000000000000000815260040160405180910390fd5b5f6126a083600201548561103c565b905080836002015411156127905760065f9054906101000a900473ffffffffffffffffffffffffffffffffffffffff1673ffffffffffffffffffffffffffffffffffffffff1663a9059cbb838386600201546126fc91906160fc565b6040518363ffffffff1660e01b8152600401612719929190615922565b6020604051808303815f875af1158015612735573d5f5f3e3d5ffd5b505050506040513d601f19601f820116820180604052508101906127599190615a48565b61278f576040517f90b8ec1800000000000000000000000000000000000000000000000000000000815260040160405180910390fd5b5b61279b82338661370c565b33836003015f6101000a81548173ffffffffffffffffffffffffffffffffffffffff021916908373ffffffffffffffffffffffffffffffffffffffff160217905550600160035f8681526020019081526020015f205f6101000a81548160ff0219169083151502179055503373ffffffffffffffffffffffffffffffffffffffff16847fc54c8cc1c7525b424ec71b685c00d9355581a280488018c22005332ceb2fd40660405160405180910390a350505050565b5f600554905090565b5f60045f8381526020019081526020015f20600201549050919050565b5f5f612880612a1b565b9050806005015f8573ffffffffffffffffffffffffffffffffffffffff1673ffffffffffffffffffffffffffffffffffffffff1681526020019081526020015f205f8473ffffffffffffffffffffffffffffffffffffffff1673ffffffffffffffffffffffffffffffffffffffff1681526020019081526020015f205f9054906101000a900460ff1691505092915050565b7f04824fcb60e7cc526d70b264caa65b62ed44d9c8e5d230e8ff6b0c7373843b8a81565b7f189ab7a9244df0848122154315af71fe140f3db0fe014031783b0946b8c9d2e381565b7f04824fcb60e7cc526d70b264caa65b62ed44d9c8e5d230e8ff6b0c7373843b8a61298481612bcb565b8160045f8581526020019081526020015f2060020181905550505050565b5f7f7965db0b000000000000000000000000000000000000000000000000000000007bffffffffffffffffffffffffffffffffffffffffffffffffffffffff1916827bffffffffffffffffffffffffffffffffffffffffffffffffffffffff19161480612a145750612a1382613874565b5b9050919050565b5f7f80bb2b638cc20bc4d0a60d66940f3ab4a00c1d7b313497ca82fb0b4ab0079300905090565b5f5f612a4d836138ed565b90505f73ffffffffffffffffffffffffffffffffffffffff168173ffffffffffffffffffffffffffffffffffffffff1603612abf57826040517f7e273289000000000000000000000000000000000000000000000000000000008152600401612ab69190614e4c565b60405180910390fd5b80915050919050565b5f5f612ad2612a1b565b9050806004015f8481526020019081526020015f205f9054906101000a900473ffffffffffffffffffffffffffffffffffffffff16915050919050565b5f33905090565b612b238383836001613934565b505050565b5f7f645e039705490088daad89bae25049a34f4a9072d398537b1ab2425f24cbed00905090565b5f612b598361235c565b15612b90576040517f977590bd00000000000000000000000000000000000000000000000000000000815260040160405180910390fd5b612b9b848484613b01565b90509392505050565b5f7f02dd7bc7dec4dceedda775e58dd541e08a116c6c53815c0bd028192f7b626800905090565b612bdc81612bd7612b0f565b613c1b565b50565b5f5f612be9612ba4565b9050612bf58484611f84565b612ccc576001815f015f8681526020019081526020015f205f015f8573ffffffffffffffffffffffffffffffffffffffff1673ffffffffffffffffffffffffffffffffffffffff1681526020019081526020015f205f6101000a81548160ff021916908315150217905550612c68612b0f565b73ffffffffffffffffffffffffffffffffffffffff168373ffffffffffffffffffffffffffffffffffffffff16857f2f8788117e7eff1d82e926ec794901d17c78024a50270940304540a733656f0d60405160405180910390a46001915050612cd1565b5f9150505b92915050565b5f5f612ce1612ba4565b9050612ced8484611f84565b15612dc4575f815f015f8681526020019081526020015f205f015f8573ffffffffffffffffffffffffffffffffffffffff1673ffffffffffffffffffffffffffffffffffffffff1681526020019081526020015f205f6101000a81548160ff021916908315150217905550612d60612b0f565b73ffffffffffffffffffffffffffffffffffffffff168373ffffffffffffffffffffffffffffffffffffffff16857ff6391f5c32d9c69d2a47ea670b442974b53935d1edc7fd64eb21e047a839171b60405160405180910390a46001915050612dc9565b5f9150505b92915050565b5f73ffffffffffffffffffffffffffffffffffffffff168273ffffffffffffffffffffffffffffffffffffffff1603612e3f575f6040517f64a0ae92000000000000000000000000000000000000000000000000000000008152600401612e369190614dbc565b60405180910390fd5b5f612e4b83835f612b4f565b90505f73ffffffffffffffffffffffffffffffffffffffff168173ffffffffffffffffffffffffffffffffffffffff1614612ebd575f6040517f73c6ac6e000000000000000000000000000000000000000000000000000000008152600401612eb49190614dbc565b60405180910390fd5b505050565b5f5f5f90505b8351811015612f35578273ffffffffffffffffffffffffffffffffffffffff16848281518110612efb57612efa615949565b5b602002602001015173ffffffffffffffffffffffffffffffffffffffff1603612f28576001915050612f3a565b8080600101915050612ec8565b505f90505b92915050565b5f7ff0c57e16840df040f15088dc2f81fe391c3923bec73e23a9662efc9c229c6a00905090565b612f6f613c6c565b612f798282613cac565b5050565b612f85613c6c565b565b612f8f613c6c565b565b612f99613c6c565b565b612fa3613c6c565b565b612fad613c6c565b565b7f000000000000000000000000000000000000000000000000000000000000000073ffffffffffffffffffffffffffffffffffffffff163073ffffffffffffffffffffffffffffffffffffffff16148061305c57507f000000000000000000000000000000000000000000000000000000000000000073ffffffffffffffffffffffffffffffffffffffff16613043613ce7565b73ffffffffffffffffffffffffffffffffffffffff1614155b15613093576040517fe07c8dba00000000000000000000000000000000000000000000000000000000815260040160405180910390fd5b565b7f189ab7a9244df0848122154315af71fe140f3db0fe014031783b0946b8c9d2e36130bf81612bcb565b5050565b8173ffffffffffffffffffffffffffffffffffffffff166352d1902d6040518163ffffffff1660e01b8152600401602060405180830381865afa92505050801561312b57506040513d601f19601f820116820180604052508101906131289190616143565b60015b61316c57816040517f4c9c8ce30000000000000000000000000000000000000000000000000000000081526004016131639190614dbc565b60405180910390fd5b7f360894a13ba1a3210667c828492db98dca3e2076cc3735a920a3ca505d382bbc5f1b81146131d257806040517faa1d49a40000000000000000000000000000000000000000000000000000000081526004016131c99190614f22565b60405180910390fd5b6131dc8383613d3a565b505050565b7f000000000000000000000000000000000000000000000000000000000000000073ffffffffffffffffffffffffffffffffffffffff163073ffffffffffffffffffffffffffffffffffffffff1614613266576040517fe07c8dba00000000000000000000000000000000000000000000000000000000815260040160405180910390fd5b565b5f613271613dac565b905081815f015f8581526020019081526020015f2090816132929190615c87565b507ff8e1a15aba9398e019f0b49df1a4fde98ee17ae345cb5f6b5e2c27f5033e8ce7836040516132c29190614e4c565b60405180910390a1505050565b5f6132d8612a1b565b90505f73ffffffffffffffffffffffffffffffffffffffff168373ffffffffffffffffffffffffffffffffffffffff160361334a57826040517f5b08ba180000000000000000000000000000000000000000000000000000000081526004016133419190614dbc565b60405180910390fd5b81816005015f8673ffffffffffffffffffffffffffffffffffffffff1673ffffffffffffffffffffffffffffffffffffffff1681526020019081526020015f205f8573ffffffffffffffffffffffffffffffffffffffff1673ffffffffffffffffffffffffffffffffffffffff1681526020019081526020015f205f6101000a81548160ff0219169083151502179055508273ffffffffffffffffffffffffffffffffffffffff168473ffffffffffffffffffffffffffffffffffffffff167f17307eab39ab6107e8899845ad3d59bd9653f200f220920489ca2b5937696c31846040516134389190614c76565b60405180910390a350505050565b5f8373ffffffffffffffffffffffffffffffffffffffff163b11156135eb578273ffffffffffffffffffffffffffffffffffffffff1663150b7a02868685856040518563ffffffff1660e01b81526004016134a494939291906161c0565b6020604051808303815f875af19250505080156134df57506040513d601f19601f820116820180604052508101906134dc919061621e565b60015b613560573d805f811461350d576040519150601f19603f3d011682016040523d82523d5f602084013e613512565b606091505b505f81510361355857836040517f64a0ae9200000000000000000000000000000000000000000000000000000000815260040161354f9190614dbc565b60405180910390fd5b805181602001fd5b63150b7a0260e01b7bffffffffffffffffffffffffffffffffffffffffffffffffffffffff1916817bffffffffffffffffffffffffffffffffffffffffffffffffffffffff1916146135e957836040517f64a0ae920000000000000000000000000000000000000000000000000000000081526004016135e09190614dbc565b60405180910390fd5b505b5050505050565b60605f6135fd613dac565b905061360883612a42565b505f815f015f8581526020019081526020015f208054613627906158bd565b80601f0160208091040260200160405190810160405280929190818152602001828054613653906158bd565b801561369e5780601f106136755761010080835404028352916020019161369e565b820191905f5260205f20905b81548152906001019060200180831161368157829003601f168201915b505050505090505f6136ae613dd3565b90505f8151036136c357819350505050613707565b5f825111156136f85780826040516020016136df929190616283565b6040516020818303038152906040529350505050613707565b61370185613de9565b93505050505b919050565b5f73ffffffffffffffffffffffffffffffffffffffff168273ffffffffffffffffffffffffffffffffffffffff160361377c575f6040517f64a0ae920000000000000000000000000000000000000000000000000000000081526004016137739190614dbc565b60405180910390fd5b5f61378883835f612b4f565b90505f73ffffffffffffffffffffffffffffffffffffffff168173ffffffffffffffffffffffffffffffffffffffff16036137fa57816040517f7e2732890000000000000000000000000000000000000000000000000000000081526004016137f19190614e4c565b60405180910390fd5b8373ffffffffffffffffffffffffffffffffffffffff168173ffffffffffffffffffffffffffffffffffffffff161461386e578382826040517f64283d7b000000000000000000000000000000000000000000000000000000008152600401613865939291906158ed565b60405180910390fd5b50505050565b5f7f780e9d63000000000000000000000000000000000000000000000000000000007bffffffffffffffffffffffffffffffffffffffffffffffffffffffff1916827bffffffffffffffffffffffffffffffffffffffffffffffffffffffff191614806138e657506138e582613e4f565b5b9050919050565b5f5f6138f7612a1b565b9050806002015f8481526020019081526020015f205f9054906101000a900473ffffffffffffffffffffffffffffffffffffffff16915050919050565b5f61393d612a1b565b9050818061397757505f73ffffffffffffffffffffffffffffffffffffffff168373ffffffffffffffffffffffffffffffffffffffff1614155b15613aa9575f61398685612a42565b90505f73ffffffffffffffffffffffffffffffffffffffff168473ffffffffffffffffffffffffffffffffffffffff16141580156139f057508373ffffffffffffffffffffffffffffffffffffffff168173ffffffffffffffffffffffffffffffffffffffff1614155b8015613a035750613a018185612876565b155b15613a4557836040517fa9fbf51f000000000000000000000000000000000000000000000000000000008152600401613a3c9190614dbc565b60405180910390fd5b8215613aa757848673ffffffffffffffffffffffffffffffffffffffff168273ffffffffffffffffffffffffffffffffffffffff167f8c5be1e5ebec7d5bd14f71427d1e84f3dd0314c0f7b2291e5b200ac8c7c3b92560405160405180910390a45b505b84816004015f8681526020019081526020015f205f6101000a81548173ffffffffffffffffffffffffffffffffffffffff021916908373ffffffffffffffffffffffffffffffffffffffff1602179055505050505050565b5f5f613b0e858585613eaf565b90505f73ffffffffffffffffffffffffffffffffffffffff168173ffffffffffffffffffffffffffffffffffffffff1603613b5157613b4c846140cc565b613b90565b8473ffffffffffffffffffffffffffffffffffffffff168173ffffffffffffffffffffffffffffffffffffffff1614613b8f57613b8e8185614122565b5b5b5f73ffffffffffffffffffffffffffffffffffffffff168573ffffffffffffffffffffffffffffffffffffffff1603613bd157613bcc8461420c565b613c10565b8473ffffffffffffffffffffffffffffffffffffffff168173ffffffffffffffffffffffffffffffffffffffff1614613c0f57613c0e85856142e6565b5b5b809150509392505050565b613c258282611f84565b613c685780826040517fe2517d3f000000000000000000000000000000000000000000000000000000008152600401613c5f9291906162a6565b60405180910390fd5b5050565b613c74614379565b613caa576040517fd7e6bcf800000000000000000000000000000000000000000000000000000000815260040160405180910390fd5b565b613cb4613c6c565b5f613cbd612a1b565b905082815f019081613ccf9190615c87565b5081816001019081613ce19190615c87565b50505050565b5f613d137f360894a13ba1a3210667c828492db98dca3e2076cc3735a920a3ca505d382bbc5f1b614397565b5f015f9054906101000a900473ffffffffffffffffffffffffffffffffffffffff16905090565b613d43826143a0565b8173ffffffffffffffffffffffffffffffffffffffff167fbc7cd75a20ee27fd9adebab32041f755214dbc6bffa90cc0225b39da2e5c2d3b60405160405180910390a25f81511115613d9f57613d998282614469565b50613da8565b613da76144e9565b5b5050565b5f7f0542a41881ee128a365a727b282c86fa859579490b9bb45aab8503648c8e7900905090565b606060405180602001604052805f815250905090565b6060613df482612a42565b505f613dfe613dd3565b90505f815111613e1c5760405180602001604052805f815250613e47565b80613e2684614525565b604051602001613e37929190616283565b6040516020818303038152906040525b915050919050565b5f634906490660e01b7bffffffffffffffffffffffffffffffffffffffffffffffffffffffff1916827bffffffffffffffffffffffffffffffffffffffffffffffffffffffff19161480613ea85750613ea7826145ef565b5b9050919050565b5f5f613eb9612a1b565b90505f613ec5856138ed565b90505f73ffffffffffffffffffffffffffffffffffffffff168473ffffffffffffffffffffffffffffffffffffffff1614613f0657613f058185876146d0565b5b5f73ffffffffffffffffffffffffffffffffffffffff168173ffffffffffffffffffffffffffffffffffffffff1614613f9357613f455f865f5f613934565b6001826003015f8373ffffffffffffffffffffffffffffffffffffffff1673ffffffffffffffffffffffffffffffffffffffff1681526020019081526020015f205f82825403925050819055505b5f73ffffffffffffffffffffffffffffffffffffffff168673ffffffffffffffffffffffffffffffffffffffff1614614014576001826003015f8873ffffffffffffffffffffffffffffffffffffffff1673ffffffffffffffffffffffffffffffffffffffff1681526020019081526020015f205f82825401925050819055505b85826002015f8781526020019081526020015f205f6101000a81548173ffffffffffffffffffffffffffffffffffffffff021916908373ffffffffffffffffffffffffffffffffffffffff160217905550848673ffffffffffffffffffffffffffffffffffffffff168273ffffffffffffffffffffffffffffffffffffffff167fddf252ad1be2c89b69c2b068fc378daa952ba7f163c4a11628f55a4df523b3ef60405160405180910390a480925050509392505050565b5f6140d5612b28565b90508060020180549050816003015f8481526020019081526020015f20819055508060020182908060018154018082558091505060019003905f5260205f20015f90919091909150555050565b5f61412b612b28565b90505f614137846119d1565b90505f826001015f8581526020019081526020015f205490505f835f015f8773ffffffffffffffffffffffffffffffffffffffff1673ffffffffffffffffffffffffffffffffffffffff1681526020019081526020015f2090508282146141db575f815f8581526020019081526020015f2054905080825f8581526020019081526020015f208190555082856001015f8381526020019081526020015f2081905550505b836001015f8681526020019081526020015f205f9055805f8481526020019081526020015f205f9055505050505050565b5f614215612b28565b90505f6001826002018054905061422c91906160fc565b90505f826003015f8581526020019081526020015f205490505f83600201838154811061425c5761425b615949565b5b905f5260205f20015490508084600201838154811061427e5761427d615949565b5b905f5260205f20018190555081846003015f8381526020019081526020015f2081905550836003015f8681526020019081526020015f205f9055836002018054806142cc576142cb6162cd565b5b600190038181905f5260205f20015f905590555050505050565b5f6142ef612b28565b90505f60016142fd856119d1565b61430791906160fc565b905082825f015f8673ffffffffffffffffffffffffffffffffffffffff1673ffffffffffffffffffffffffffffffffffffffff1681526020019081526020015f205f8381526020019081526020015f208190555080826001015f8581526020019081526020015f208190555050505050565b5f614382612f40565b5f0160089054906101000a900460ff16905090565b5f819050919050565b5f8173ffffffffffffffffffffffffffffffffffffffff163b036143fb57806040517f4c9c8ce30000000000000000000000000000000000000000000000000000000081526004016143f29190614dbc565b60405180910390fd5b806144277f360894a13ba1a3210667c828492db98dca3e2076cc3735a920a3ca505d382bbc5f1b614397565b5f015f6101000a81548173ffffffffffffffffffffffffffffffffffffffff021916908373ffffffffffffffffffffffffffffffffffffffff16021790555050565b60605f5f8473ffffffffffffffffffffffffffffffffffffffff16846040516144929190616334565b5f60405180830381855af49150503d805f81146144ca576040519150601f19603f3d011682016040523d82523d5f602084013e6144cf565b606091505b50915091506144df858383614793565b9250505092915050565b5f341115614523576040517fb398979f00000000000000000000000000000000000000000000000000000000815260040160405180910390fd5b565b60605f600161453384614820565b0190505f8167ffffffffffffffff81111561455157614550615096565b5b6040519080825280601f01601f1916602001820160405280156145835781602001600182028036833780820191505090505b5090505f82602001820190505b6001156145e4578080600190039150507f3031323334353637383961626364656600000000000000000000000000000000600a86061a8153600a85816145d9576145d861599d565b5b0494505f8503614590575b819350505050919050565b5f7f80ac58cd000000000000000000000000000000000000000000000000000000007bffffffffffffffffffffffffffffffffffffffffffffffffffffffff1916827bffffffffffffffffffffffffffffffffffffffffffffffffffffffff191614806146b957507f5b5e139f000000000000000000000000000000000000000000000000000000007bffffffffffffffffffffffffffffffffffffffffffffffffffffffff1916827bffffffffffffffffffffffffffffffffffffffffffffffffffffffff1916145b806146c957506146c882614971565b5b9050919050565b6146db8383836149da565b61478e575f73ffffffffffffffffffffffffffffffffffffffff168373ffffffffffffffffffffffffffffffffffffffff160361474f57806040517f7e2732890000000000000000000000000000000000000000000000000000000081526004016147469190614e4c565b60405180910390fd5b81816040517f177e802f000000000000000000000000000000000000000000000000000000008152600401614785929190615922565b60405180910390fd5b505050565b6060826147a8576147a382614a9a565b614818565b5f82511480156147ce57505f8473ffffffffffffffffffffffffffffffffffffffff163b145b1561481057836040517f9996b3150000000000000000000000000000000000000000000000000000000081526004016148079190614dbc565b60405180910390fd5b819050614819565b5b9392505050565b5f5f5f90507a184f03e93ff9f4daa797ed6e38ed64bf6a1f010000000000000000831061487c577a184f03e93ff9f4daa797ed6e38ed64bf6a1f01000000000000000083816148725761487161599d565b5b0492506040810190505b6d04ee2d6d415b85acef810000000083106148b9576d04ee2d6d415b85acef810000000083816148af576148ae61599d565b5b0492506020810190505b662386f26fc1000083106148e857662386f26fc1000083816148de576148dd61599d565b5b0492506010810190505b6305f5e1008310614911576305f5e10083816149075761490661599d565b5b0492506008810190505b612710831061493657612710838161492c5761492b61599d565b5b0492506004810190505b60648310614959576064838161494f5761494e61599d565b5b0492506002810190505b600a8310614968576001810190505b80915050919050565b5f7f01ffc9a7000000000000000000000000000000000000000000000000000000007bffffffffffffffffffffffffffffffffffffffffffffffffffffffff1916827bffffffffffffffffffffffffffffffffffffffffffffffffffffffff1916149050919050565b5f5f73ffffffffffffffffffffffffffffffffffffffff168373ffffffffffffffffffffffffffffffffffffffff1614158015614a9157508273ffffffffffffffffffffffffffffffffffffffff168473ffffffffffffffffffffffffffffffffffffffff161480614a525750614a518484612876565b5b80614a9057508273ffffffffffffffffffffffffffffffffffffffff16614a7883612ac8565b73ffffffffffffffffffffffffffffffffffffffff16145b5b90509392505050565b5f81511115614aac5780518082602001fd5b6040517fd6bda27500000000000000000000000000000000000000000000000000000000815260040160405180910390fd5b828054828255905f5260205f20908101928215614b54579160200282015b82811115614b53578251825f6101000a81548173ffffffffffffffffffffffffffffffffffffffff021916908373ffffffffffffffffffffffffffffffffffffffff16021790555091602001919060010190614afc565b5b509050614b619190614bb0565b5090565b828054828255905f5260205f20908101928215614b9f579160200282015b82811115614b9e578251825591602001919060010190614b83565b5b509050614bac9190614bb0565b5090565b5b80821115614bc7575f815f905550600101614bb1565b5090565b5f604051905090565b5f5ffd5b5f5ffd5b5f7fffffffff0000000000000000000000000000000000000000000000000000000082169050919050565b614c1081614bdc565b8114614c1a575f5ffd5b50565b5f81359050614c2b81614c07565b92915050565b5f60208284031215614c4657614c45614bd4565b5b5f614c5384828501614c1d565b91505092915050565b5f8115159050919050565b614c7081614c5c565b82525050565b5f602082019050614c895f830184614c67565b92915050565b5f81519050919050565b5f82825260208201905092915050565b8281835e5f83830152505050565b5f601f19601f8301169050919050565b5f614cd182614c8f565b614cdb8185614c99565b9350614ceb818560208601614ca9565b614cf481614cb7565b840191505092915050565b5f6020820190508181035f830152614d178184614cc7565b905092915050565b5f819050919050565b614d3181614d1f565b8114614d3b575f5ffd5b50565b5f81359050614d4c81614d28565b92915050565b5f60208284031215614d6757614d66614bd4565b5b5f614d7484828501614d3e565b91505092915050565b5f73ffffffffffffffffffffffffffffffffffffffff82169050919050565b5f614da682614d7d565b9050919050565b614db681614d9c565b82525050565b5f602082019050614dcf5f830184614dad565b92915050565b614dde81614d9c565b8114614de8575f5ffd5b50565b5f81359050614df981614dd5565b92915050565b5f5f60408385031215614e1557614e14614bd4565b5b5f614e2285828601614deb565b9250506020614e3385828601614d3e565b9150509250929050565b614e4681614d1f565b82525050565b5f602082019050614e5f5f830184614e3d565b92915050565b5f5f5f60608486031215614e7c57614e7b614bd4565b5b5f614e8986828701614deb565b9350506020614e9a86828701614deb565b9250506040614eab86828701614d3e565b9150509250925092565b5f819050919050565b614ec781614eb5565b8114614ed1575f5ffd5b50565b5f81359050614ee281614ebe565b92915050565b5f60208284031215614efd57614efc614bd4565b5b5f614f0a84828501614ed4565b91505092915050565b614f1c81614eb5565b82525050565b5f602082019050614f355f830184614f13565b92915050565b5f5f60408385031215614f5157614f50614bd4565b5b5f614f5e85828601614ed4565b9250506020614f6f85828601614deb565b9150509250929050565b5f81519050919050565b5f82825260208201905092915050565b5f819050602082019050919050565b614fab81614d9c565b82525050565b5f614fbc8383614fa2565b60208301905092915050565b5f602082019050919050565b5f614fde82614f79565b614fe88185614f83565b9350614ff383614f93565b805f5b8381101561502357815161500a8882614fb1565b975061501583614fc8565b925050600181019050614ff6565b5085935050505092915050565b5f6020820190508181035f8301526150488184614fd4565b905092915050565b5f5f6040838503121561506657615065614bd4565b5b5f61507385828601614d3e565b925050602061508485828601614d3e565b9150509250929050565b5f5ffd5b5f5ffd5b7f4e487b71000000000000000000000000000000000000000000000000000000005f52604160045260245ffd5b6150cc82614cb7565b810181811067ffffffffffffffff821117156150eb576150ea615096565b5b80604052505050565b5f6150fd614bcb565b905061510982826150c3565b919050565b5f67ffffffffffffffff82111561512857615127615096565b5b61513182614cb7565b9050602081019050919050565b828183375f83830152505050565b5f61515e6151598461510e565b6150f4565b90508281526020810184848401111561517a57615179615092565b5b61518584828561513e565b509392505050565b5f82601f8301126151a1576151a061508e565b5b81356151b184826020860161514c565b91505092915050565b5f67ffffffffffffffff8211156151d4576151d3615096565b5b602082029050602081019050919050565b5f5ffd5b5f6151fb6151f6846151ba565b6150f4565b9050808382526020820190506020840283018581111561521e5761521d6151e5565b5b835b8181101561524757806152338882614deb565b845260208401935050602081019050615220565b5050509392505050565b5f82601f8301126152655761526461508e565b5b81356152758482602086016151e9565b91505092915050565b5f5f5f5f6080858703121561529657615295614bd4565b5b5f6152a387828801614deb565b945050602085013567ffffffffffffffff8111156152c4576152c3614bd8565b5b6152d08782880161518d565b93505060406152e187828801614d3e565b925050606085013567ffffffffffffffff81111561530257615301614bd8565b5b61530e87828801615251565b91505092959194509250565b5f5f604083850312156153305761532f614bd4565b5b5f83013567ffffffffffffffff81111561534d5761534c614bd8565b5b6153598582860161518d565b925050602083013567ffffffffffffffff81111561537a57615379614bd8565b5b6153868582860161518d565b9150509250929050565b5f67ffffffffffffffff8211156153aa576153a9615096565b5b6153b382614cb7565b9050602081019050919050565b5f6153d26153cd84615390565b6150f4565b9050828152602081018484840111156153ee576153ed615092565b5b6153f984828561513e565b509392505050565b5f82601f8301126154155761541461508e565b5b81356154258482602086016153c0565b91505092915050565b5f5f6040838503121561544457615443614bd4565b5b5f61545185828601614deb565b925050602083013567ffffffffffffffff81111561547257615471614bd8565b5b61547e85828601615401565b9150509250929050565b5f67ffffffffffffffff8211156154a2576154a1615096565b5b602082029050602081019050919050565b5f6154c56154c084615488565b6150f4565b905080838252602082019050602084028301858111156154e8576154e76151e5565b5b835b8181101561551157806154fd8882614d3e565b8452602084019350506020810190506154ea565b5050509392505050565b5f82601f83011261552f5761552e61508e565b5b813561553f8482602086016154b3565b91505092915050565b5f5f6040838503121561555e5761555d614bd4565b5b5f83013567ffffffffffffffff81111561557b5761557a614bd8565b5b61558785828601615251565b925050602083013567ffffffffffffffff8111156155a8576155a7614bd8565b5b6155b48582860161551b565b9150509250929050565b5f5f604083850312156155d4576155d3614bd4565b5b5f6155e185828601614d3e565b925050602083013567ffffffffffffffff81111561560257615601614bd8565b5b61560e8582860161518d565b9150509250929050565b5f6020828403121561562d5761562c614bd4565b5b5f61563a84828501614deb565b91505092915050565b5f5f5f6060848603121561565a57615659614bd4565b5b5f61566786828701614d3e565b935050602061567886828701614deb565b925050604061568986828701614d3e565b9150509250925092565b5f81519050919050565b5f82825260208201905092915050565b5f819050602082019050919050565b6156c581614d1f565b82525050565b5f6156d683836156bc565b60208301905092915050565b5f602082019050919050565b5f6156f882615693565b615702818561569d565b935061570d836156ad565b805f5b8381101561573d57815161572488826156cb565b975061572f836156e2565b925050600181019050615710565b5085935050505092915050565b5f6020820190508181035f83015261576281846156ee565b905092915050565b61577381614c5c565b811461577d575f5ffd5b50565b5f8135905061578e8161576a565b92915050565b5f5f604083850312156157aa576157a9614bd4565b5b5f6157b785828601614deb565b92505060206157c885828601615780565b9150509250929050565b5f5f5f5f608085870312156157ea576157e9614bd4565b5b5f6157f787828801614deb565b945050602061580887828801614deb565b935050604061581987828801614d3e565b925050606085013567ffffffffffffffff81111561583a57615839614bd8565b5b61584687828801615401565b91505092959194509250565b5f5f6040838503121561586857615867614bd4565b5b5f61587585828601614deb565b925050602061588685828601614deb565b9150509250929050565b7f4e487b71000000000000000000000000000000000000000000000000000000005f52602260045260245ffd5b5f60028204905060018216806158d457607f821691505b6020821081036158e7576158e6615890565b5b50919050565b5f6060820190506159005f830186614dad565b61590d6020830185614e3d565b61591a6040830184614dad565b949350505050565b5f6040820190506159355f830185614dad565b6159426020830184614e3d565b9392505050565b7f4e487b71000000000000000000000000000000000000000000000000000000005f52603260045260245ffd5b5f6040820190506159895f830185614c67565b6159966020830184614e3d565b9392505050565b7f4e487b71000000000000000000000000000000000000000000000000000000005f52601260045260245ffd5b5f6060820190506159dd5f830186614e3d565b6159ea6020830185614e3d565b6159f76040830184614e3d565b949350505050565b5f606082019050615a125f830186614dad565b615a1f6020830185614dad565b615a2c6040830184614e3d565b949350505050565b5f81519050615a428161576a565b92915050565b5f60208284031215615a5d57615a5c614bd4565b5b5f615a6a84828501615a34565b91505092915050565b7f4e487b71000000000000000000000000000000000000000000000000000000005f52601160045260245ffd5b5f615aaa82614d1f565b91507fffffffffffffffffffffffffffffffffffffffffffffffffffffffffffffffff8203615adc57615adb615a73565b5b600182019050919050565b5f819050815f5260205f209050919050565b5f6020601f8301049050919050565b5f82821b905092915050565b5f60088302615b437fffffffffffffffffffffffffffffffffffffffffffffffffffffffffffffffff82615b08565b615b4d8683615b08565b95508019841693508086168417925050509392505050565b5f819050919050565b5f615b88615b83615b7e84614d1f565b615b65565b614d1f565b9050919050565b5f819050919050565b615ba183615b6e565b615bb5615bad82615b8f565b848454615b14565b825550505050565b5f5f905090565b615bcc615bbd565b615bd7818484615b98565b505050565b5b81811015615bfa57615bef5f82615bc4565b600181019050615bdd565b5050565b601f821115615c3f57615c1081615ae7565b615c1984615af9565b81016020851015615c28578190505b615c3c615c3485615af9565b830182615bdc565b50505b505050565b5f82821c905092915050565b5f615c5f5f1984600802615c44565b1980831691505092915050565b5f615c778383615c50565b9150826002028217905092915050565b615c9082614c8f565b67ffffffffffffffff811115615ca957615ca8615096565b5b615cb382546158bd565b615cbe828285615bfe565b5f60209050601f831160018114615cef575f8415615cdd578287015190505b615ce78582615c6c565b865550615d4e565b601f198416615cfd86615ae7565b5f5b82811015615d2457848901518255600182019150602085019450602081019050615cff565b86831015615d415784890151615d3d601f891682615c50565b8355505b6001600288020188555050505b505050505050565b5f819050919050565b5f67ffffffffffffffff82169050919050565b5f615d8c615d87615d8284615d56565b615b65565b615d5f565b9050919050565b615d9c81615d72565b82525050565b5f602082019050615db55f830184615d93565b92915050565b7f4f6e6c7920746865206f776e65722063616e2072656e74206f757420746865205f8201527f746f6b656e000000000000000000000000000000000000000000000000000000602082015250565b5f615e15602583614c99565b9150615e2082615dbb565b604082019050919050565b5f6020820190508181035f830152615e4281615e09565b9050919050565b7f546f6b656e20697320616c72656164792072656e7465640000000000000000005f82015250565b5f615e7d601783614c99565b9150615e8882615e49565b602082019050919050565b5f6020820190508181035f830152615eaa81615e71565b9050919050565b5f6fffffffffffffffffffffffffffffffff82169050919050565b5f615ed682615eb1565b9150615ee183615eb1565b925082820190506fffffffffffffffffffffffffffffffff811115615f0957615f08615a73565b5b92915050565b615f1881615eb1565b82525050565b5f604082019050615f315f830185615f0f565b615f3e6020830184614c67565b9392505050565b7f50657263656e74616765206d757374206265206c657373207468616e203130305f8201527f3000000000000000000000000000000000000000000000000000000000000000602082015250565b5f615f9f602183614c99565b9150615faa82615f45565b604082019050919050565b5f6020820190508181035f830152615fcc81615f93565b9050919050565b5f615fdd82614d1f565b9150615fe883614d1f565b925082820190508082111561600057615fff615a73565b5b92915050565b7f4f6e6c79207468652072656e746572206f72206f776e65722063616e20656e645f8201527f207468652072656e74616c000000000000000000000000000000000000000000602082015250565b5f616060602b83614c99565b915061606b82616006565b604082019050919050565b5f6020820190508181035f83015261608d81616054565b9050919050565b7f546f6b656e206973206e6f742072656e746564000000000000000000000000005f82015250565b5f6160c8601383614c99565b91506160d382616094565b602082019050919050565b5f6020820190508181035f8301526160f5816160bc565b9050919050565b5f61610682614d1f565b915061611183614d1f565b925082820390508181111561612957616128615a73565b5b92915050565b5f8151905061613d81614ebe565b92915050565b5f6020828403121561615857616157614bd4565b5b5f6161658482850161612f565b91505092915050565b5f81519050919050565b5f82825260208201905092915050565b5f6161928261616e565b61619c8185616178565b93506161ac818560208601614ca9565b6161b581614cb7565b840191505092915050565b5f6080820190506161d35f830187614dad565b6161e06020830186614dad565b6161ed6040830185614e3d565b81810360608301526161ff8184616188565b905095945050505050565b5f8151905061621881614c07565b92915050565b5f6020828403121561623357616232614bd4565b5b5f6162408482850161620a565b91505092915050565b5f81905092915050565b5f61625d82614c8f565b6162678185616249565b9350616277818560208601614ca9565b80840191505092915050565b5f61628e8285616253565b915061629a8284616253565b91508190509392505050565b5f6040820190506162b95f830185614dad565b6162c66020830184614f13565b9392505050565b7f4e487b71000000000000000000000000000000000000000000000000000000005f52603160045260245ffd5b5f81905092915050565b5f61630e8261616e565b61631881856162fa565b9350616328818560208601614ca9565b80840191505092915050565b5f61633f8284616304565b91508190509291505056fea2646970667358221220ea5fa85586347f3950216efc7965ef1aceeb14ae8b6eeba4f2fa104ddc3e3fa664736f6c634300081c0033",
			"opcodes": "PUSH1 0xA0 PUSH1 0x40 MSTORE ADDRESS PUSH20 0xFFFFFFFFFFFFFFFFFFFFFFFFFFFFFFFFFFFFFFFF AND PUSH1 0x80 SWAP1 PUSH20 0xFFFFFFFFFFFFFFFFFFFFFFFFFFFFFFFFFFFFFFFF AND DUP2 MSTORE POP CALLVALUE DUP1 ISZERO PUSH1 0x41 JUMPI PUSH0 PUSH0 REVERT JUMPDEST POP PUSH1 0x80 MLOAD PUSH2 0x6380 PUSH2 0x68 PUSH0 CODECOPY PUSH0 DUP2 DUP2 PUSH2 0x2FB1 ADD MSTORE DUP2 DUP2 PUSH2 0x3006 ADD MSTORE PUSH2 0x31E3 ADD MSTORE PUSH2 0x6380 PUSH0 RETURN INVALID PUSH1 0x80 PUSH1 0x40 MSTORE PUSH1 0x4 CALLDATASIZE LT PUSH2 0x2E3 JUMPI PUSH0 CALLDATALOAD PUSH1 0xE0 SHR DUP1 PUSH4 0x6A326AB1 GT PUSH2 0x18F JUMPI DUP1 PUSH4 0xAD3CB1CC GT PUSH2 0xDB JUMPI DUP1 PUSH4 0xD96A094A GT PUSH2 0x94 JUMPI DUP1 PUSH4 0xE985E9C5 GT PUSH2 0x6E JUMPI DUP1 PUSH4 0xE985E9C5 EQ PUSH2 0xB65 JUMPI DUP1 PUSH4 0xF00ACBAA EQ PUSH2 0xBA1 JUMPI DUP1 PUSH4 0xF72C0D8B EQ PUSH2 0xBCB JUMPI DUP1 PUSH4 0xF7D97577 EQ PUSH2 0xBF5 JUMPI PUSH2 0x2E3 JUMP JUMPDEST DUP1 PUSH4 0xD96A094A EQ PUSH2 0xAD7 JUMPI DUP1 PUSH4 0xE3FA569F EQ PUSH2 0xAFF JUMPI DUP1 PUSH4 0xE7572230 EQ PUSH2 0xB29 JUMPI PUSH2 0x2E3 JUMP JUMPDEST DUP1 PUSH4 0xAD3CB1CC EQ PUSH2 0x9CD JUMPI DUP1 PUSH4 0xB88D4FDE EQ PUSH2 0x9F7 JUMPI DUP1 PUSH4 0xC87B56DD EQ PUSH2 0xA1F JUMPI DUP1 PUSH4 0xD41C3A65 EQ PUSH2 0xA5B JUMPI DUP1 PUSH4 0xD5391393 EQ PUSH2 0xA85 JUMPI DUP1 PUSH4 0xD547741F EQ PUSH2 0xAAF JUMPI PUSH2 0x2E3 JUMP JUMPDEST DUP1 PUSH4 0x91D14854 GT PUSH2 0x148 JUMPI DUP1 PUSH4 0xA217FDDF GT PUSH2 0x122 JUMPI DUP1 PUSH4 0xA217FDDF EQ PUSH2 0x915 JUMPI DUP1 PUSH4 0xA22CB465 EQ PUSH2 0x93F JUMPI DUP1 PUSH4 0xA596DAE3 EQ PUSH2 0x967 JUMPI DUP1 PUSH4 0xAA15D40F EQ PUSH2 0x991 JUMPI PUSH2 0x2E3 JUMP JUMPDEST DUP1 PUSH4 0x91D14854 EQ PUSH2 0x887 JUMPI DUP1 PUSH4 0x95D89B41 EQ PUSH2 0x8C3 JUMPI DUP1 PUSH4 0x97491D6F EQ PUSH2 0x8ED JUMPI PUSH2 0x2E3 JUMP JUMPDEST DUP1 PUSH4 0x6A326AB1 EQ PUSH2 0x76D JUMPI DUP1 PUSH4 0x70A08231 EQ PUSH2 0x795 JUMPI DUP1 PUSH4 0x771E2B06 EQ PUSH2 0x7D1 JUMPI DUP1 PUSH4 0x89DB904E EQ PUSH2 0x7F9 JUMPI DUP1 PUSH4 0x8C0A7974 EQ PUSH2 0x821 JUMPI DUP1 PUSH4 0x91AF33ED EQ PUSH2 0x85D JUMPI PUSH2 0x2E3 JUMP JUMPDEST DUP1 PUSH4 0x3D4A855C GT PUSH2 0x24E JUMPI DUP1 PUSH4 0x4F1EF286 GT PUSH2 0x207 JUMPI DUP1 PUSH4 0x52D1902D GT PUSH2 0x1E1 JUMPI DUP1 PUSH4 0x52D1902D EQ PUSH2 0x6B5 JUMPI DUP1 PUSH4 0x56189236 EQ PUSH2 0x6DF JUMPI DUP1 PUSH4 0x57F7789E EQ PUSH2 0x709 JUMPI DUP1 PUSH4 0x6352211E EQ PUSH2 0x731 JUMPI PUSH2 0x2E3 JUMP JUMPDEST DUP1 PUSH4 0x4F1EF286 EQ PUSH2 0x635 JUMPI DUP1 PUSH4 0x4F6CCCE7 EQ PUSH2 0x651 JUMPI DUP1 PUSH4 0x52BD50AB EQ PUSH2 0x68D JUMPI PUSH2 0x2E3 JUMP JUMPDEST DUP1 PUSH4 0x3D4A855C EQ PUSH2 0x531 JUMPI DUP1 PUSH4 0x3E8AF41F EQ PUSH2 0x56D JUMPI DUP1 PUSH4 0x42842E0E EQ PUSH2 0x595 JUMPI DUP1 PUSH4 0x42966C68 EQ PUSH2 0x5BD JUMPI DUP1 PUSH4 0x4A65A575 EQ PUSH2 0x5E5 JUMPI DUP1 PUSH4 0x4CD88B76 EQ PUSH2 0x60D JUMPI PUSH2 0x2E3 JUMP JUMPDEST DUP1 PUSH4 0x248A9CA3 GT PUSH2 0x2A0 JUMPI DUP1 PUSH4 0x248A9CA3 EQ PUSH2 0x403 JUMPI DUP1 PUSH4 0x2F2FF15D EQ PUSH2 0x43F JUMPI DUP1 PUSH4 0x2F745C59 EQ PUSH2 0x467 JUMPI DUP1 PUSH4 0x326FD3D4 EQ PUSH2 0x4A3 JUMPI DUP1 PUSH4 0x36568ABE EQ PUSH2 0x4DF JUMPI DUP1 PUSH4 0x3A6BF9BA EQ PUSH2 0x507 JUMPI PUSH2 0x2E3 JUMP JUMPDEST DUP1 PUSH4 0x1FFC9A7 EQ PUSH2 0x2E7 JUMPI DUP1 PUSH4 0x6FDDE03 EQ PUSH2 0x323 JUMPI DUP1 PUSH4 0x81812FC EQ PUSH2 0x34D JUMPI DUP1 PUSH4 0x95EA7B3 EQ PUSH2 0x389 JUMPI DUP1 PUSH4 0x18160DDD EQ PUSH2 0x3B1 JUMPI DUP1 PUSH4 0x23B872DD EQ PUSH2 0x3DB JUMPI JUMPDEST PUSH0 PUSH0 REVERT JUMPDEST CALLVALUE DUP1 ISZERO PUSH2 0x2F2 JUMPI PUSH0 PUSH0 REVERT JUMPDEST POP PUSH2 0x30D PUSH1 0x4 DUP1 CALLDATASIZE SUB DUP2 ADD SWAP1 PUSH2 0x308 SWAP2 SWAP1 PUSH2 0x4C31 JUMP JUMPDEST PUSH2 0xC1D JUMP JUMPDEST PUSH1 0x40 MLOAD PUSH2 0x31A SWAP2 SWAP1 PUSH2 0x4C76 JUMP JUMPDEST PUSH1 0x40 MLOAD DUP1 SWAP2 SUB SWAP1 RETURN JUMPDEST CALLVALUE DUP1 ISZERO PUSH2 0x32E JUMPI PUSH0 PUSH0 REVERT JUMPDEST POP PUSH2 0x337 PUSH2 0xC2E JUMP JUMPDEST PUSH1 0x40 MLOAD PUSH2 0x344 SWAP2 SWAP1 PUSH2 0x4CFF JUMP JUMPDEST PUSH1 0x40 MLOAD DUP1 SWAP2 SUB SWAP1 RETURN JUMPDEST CALLVALUE DUP1 ISZERO PUSH2 0x358 JUMPI PUSH0 PUSH0 REVERT JUMPDEST POP PUSH2 0x373 PUSH1 0x4 DUP1 CALLDATASIZE SUB DUP2 ADD SWAP1 PUSH2 0x36E SWAP2 SWAP1 PUSH2 0x4D52 JUMP JUMPDEST PUSH2 0xCCB JUMP JUMPDEST PUSH1 0x40 MLOAD PUSH2 0x380 SWAP2 SWAP1 PUSH2 0x4DBC JUMP JUMPDEST PUSH1 0x40 MLOAD DUP1 SWAP2 SUB SWAP1 RETURN JUMPDEST CALLVALUE DUP1 ISZERO PUSH2 0x394 JUMPI PUSH0 PUSH0 REVERT JUMPDEST POP PUSH2 0x3AF PUSH1 0x4 DUP1 CALLDATASIZE SUB DUP2 ADD SWAP1 PUSH2 0x3AA SWAP2 SWAP1 PUSH2 0x4DFF JUMP JUMPDEST PUSH2 0xCE6 JUMP JUMPDEST STOP JUMPDEST CALLVALUE DUP1 ISZERO PUSH2 0x3BC JUMPI PUSH0 PUSH0 REVERT JUMPDEST POP PUSH2 0x3C5 PUSH2 0xCFC JUMP JUMPDEST PUSH1 0x40 MLOAD PUSH2 0x3D2 SWAP2 SWAP1 PUSH2 0x4E4C JUMP JUMPDEST PUSH1 0x40 MLOAD DUP1 SWAP2 SUB SWAP1 RETURN JUMPDEST CALLVALUE DUP1 ISZERO PUSH2 0x3E6 JUMPI PUSH0 PUSH0 REVERT JUMPDEST POP PUSH2 0x401 PUSH1 0x4 DUP1 CALLDATASIZE SUB DUP2 ADD SWAP1 PUSH2 0x3FC SWAP2 SWAP1 PUSH2 0x4E65 JUMP JUMPDEST PUSH2 0xD16 JUMP JUMPDEST STOP JUMPDEST CALLVALUE DUP1 ISZERO PUSH2 0x40E JUMPI PUSH0 PUSH0 REVERT JUMPDEST POP PUSH2 0x429 PUSH1 0x4 DUP1 CALLDATASIZE SUB DUP2 ADD SWAP1 PUSH2 0x424 SWAP2 SWAP1 PUSH2 0x4EE8 JUMP JUMPDEST PUSH2 0xE15 JUMP JUMPDEST PUSH1 0x40 MLOAD PUSH2 0x436 SWAP2 SWAP1 PUSH2 0x4F22 JUMP JUMPDEST PUSH1 0x40 MLOAD DUP1 SWAP2 SUB SWAP1 RETURN JUMPDEST CALLVALUE DUP1 ISZERO PUSH2 0x44A JUMPI PUSH0 PUSH0 REVERT JUMPDEST POP PUSH2 0x465 PUSH1 0x4 DUP1 CALLDATASIZE SUB DUP2 ADD SWAP1 PUSH2 0x460 SWAP2 SWAP1 PUSH2 0x4F3B JUMP JUMPDEST PUSH2 0xE3F JUMP JUMPDEST STOP JUMPDEST CALLVALUE DUP1 ISZERO PUSH2 0x472 JUMPI PUSH0 PUSH0 REVERT JUMPDEST POP PUSH2 0x48D PUSH1 0x4 DUP1 CALLDATASIZE SUB DUP2 ADD SWAP1 PUSH2 0x488 SWAP2 SWAP1 PUSH2 0x4DFF JUMP JUMPDEST PUSH2 0xE61 JUMP JUMPDEST PUSH1 0x40 MLOAD PUSH2 0x49A SWAP2 SWAP1 PUSH2 0x4E4C JUMP JUMPDEST PUSH1 0x40 MLOAD DUP1 SWAP2 SUB SWAP1 RETURN JUMPDEST CALLVALUE DUP1 ISZERO PUSH2 0x4AE JUMPI PUSH0 PUSH0 REVERT JUMPDEST POP PUSH2 0x4C9 PUSH1 0x4 DUP1 CALLDATASIZE SUB DUP2 ADD SWAP1 PUSH2 0x4C4 SWAP2 SWAP1 PUSH2 0x4D52 JUMP JUMPDEST PUSH2 0xF12 JUMP JUMPDEST PUSH1 0x40 MLOAD PUSH2 0x4D6 SWAP2 SWAP1 PUSH2 0x4E4C JUMP JUMPDEST PUSH1 0x40 MLOAD DUP1 SWAP2 SUB SWAP1 RETURN JUMPDEST CALLVALUE DUP1 ISZERO PUSH2 0x4EA JUMPI PUSH0 PUSH0 REVERT JUMPDEST POP PUSH2 0x505 PUSH1 0x4 DUP1 CALLDATASIZE SUB DUP2 ADD SWAP1 PUSH2 0x500 SWAP2 SWAP1 PUSH2 0x4F3B JUMP JUMPDEST PUSH2 0xF37 JUMP JUMPDEST STOP JUMPDEST CALLVALUE DUP1 ISZERO PUSH2 0x512 JUMPI PUSH0 PUSH0 REVERT JUMPDEST POP PUSH2 0x51B PUSH2 0xFB2 JUMP JUMPDEST PUSH1 0x40 MLOAD PUSH2 0x528 SWAP2 SWAP1 PUSH2 0x5030 JUMP JUMPDEST PUSH1 0x40 MLOAD DUP1 SWAP2 SUB SWAP1 RETURN JUMPDEST CALLVALUE DUP1 ISZERO PUSH2 0x53C JUMPI PUSH0 PUSH0 REVERT JUMPDEST POP PUSH2 0x557 PUSH1 0x4 DUP1 CALLDATASIZE SUB DUP2 ADD SWAP1 PUSH2 0x552 SWAP2 SWAP1 PUSH2 0x5050 JUMP JUMPDEST PUSH2 0x103C JUMP JUMPDEST PUSH1 0x40 MLOAD PUSH2 0x564 SWAP2 SWAP1 PUSH2 0x4E4C JUMP JUMPDEST PUSH1 0x40 MLOAD DUP1 SWAP2 SUB SWAP1 RETURN JUMPDEST CALLVALUE DUP1 ISZERO PUSH2 0x578 JUMPI PUSH0 PUSH0 REVERT JUMPDEST POP PUSH2 0x593 PUSH1 0x4 DUP1 CALLDATASIZE SUB DUP2 ADD SWAP1 PUSH2 0x58E SWAP2 SWAP1 PUSH2 0x527E JUMP JUMPDEST PUSH2 0x1396 JUMP JUMPDEST STOP JUMPDEST CALLVALUE DUP1 ISZERO PUSH2 0x5A0 JUMPI PUSH0 PUSH0 REVERT JUMPDEST POP PUSH2 0x5BB PUSH1 0x4 DUP1 CALLDATASIZE SUB DUP2 ADD SWAP1 PUSH2 0x5B6 SWAP2 SWAP1 PUSH2 0x4E65 JUMP JUMPDEST PUSH2 0x159B JUMP JUMPDEST STOP JUMPDEST CALLVALUE DUP1 ISZERO PUSH2 0x5C8 JUMPI PUSH0 PUSH0 REVERT JUMPDEST POP PUSH2 0x5E3 PUSH1 0x4 DUP1 CALLDATASIZE SUB DUP2 ADD SWAP1 PUSH2 0x5DE SWAP2 SWAP1 PUSH2 0x4D52 JUMP JUMPDEST PUSH2 0x15BA JUMP JUMPDEST STOP JUMPDEST CALLVALUE DUP1 ISZERO PUSH2 0x5F0 JUMPI PUSH0 PUSH0 REVERT JUMPDEST POP PUSH2 0x60B PUSH1 0x4 DUP1 CALLDATASIZE SUB DUP2 ADD SWAP1 PUSH2 0x606 SWAP2 SWAP1 PUSH2 0x4D52 JUMP JUMPDEST PUSH2 0x15D0 JUMP JUMPDEST STOP JUMPDEST CALLVALUE DUP1 ISZERO PUSH2 0x618 JUMPI PUSH0 PUSH0 REVERT JUMPDEST POP PUSH2 0x633 PUSH1 0x4 DUP1 CALLDATASIZE SUB DUP2 ADD SWAP1 PUSH2 0x62E SWAP2 SWAP1 PUSH2 0x531A JUMP JUMPDEST PUSH2 0x15E7 JUMP JUMPDEST STOP JUMPDEST PUSH2 0x64F PUSH1 0x4 DUP1 CALLDATASIZE SUB DUP2 ADD SWAP1 PUSH2 0x64A SWAP2 SWAP1 PUSH2 0x542E JUMP JUMPDEST PUSH2 0x1820 JUMP JUMPDEST STOP JUMPDEST CALLVALUE DUP1 ISZERO PUSH2 0x65C JUMPI PUSH0 PUSH0 REVERT JUMPDEST POP PUSH2 0x677 PUSH1 0x4 DUP1 CALLDATASIZE SUB DUP2 ADD SWAP1 PUSH2 0x672 SWAP2 SWAP1 PUSH2 0x4D52 JUMP JUMPDEST PUSH2 0x183F JUMP JUMPDEST PUSH1 0x40 MLOAD PUSH2 0x684 SWAP2 SWAP1 PUSH2 0x4E4C JUMP JUMPDEST PUSH1 0x40 MLOAD DUP1 SWAP2 SUB SWAP1 RETURN JUMPDEST CALLVALUE DUP1 ISZERO PUSH2 0x698 JUMPI PUSH0 PUSH0 REVERT JUMPDEST POP PUSH2 0x6B3 PUSH1 0x4 DUP1 CALLDATASIZE SUB DUP2 ADD SWAP1 PUSH2 0x6AE SWAP2 SWAP1 PUSH2 0x5548 JUMP JUMPDEST PUSH2 0x18BF JUMP JUMPDEST STOP JUMPDEST CALLVALUE DUP1 ISZERO PUSH2 0x6C0 JUMPI PUSH0 PUSH0 REVERT JUMPDEST POP PUSH2 0x6C9 PUSH2 0x18FD JUMP JUMPDEST PUSH1 0x40 MLOAD PUSH2 0x6D6 SWAP2 SWAP1 PUSH2 0x4F22 JUMP JUMPDEST PUSH1 0x40 MLOAD DUP1 SWAP2 SUB SWAP1 RETURN JUMPDEST CALLVALUE DUP1 ISZERO PUSH2 0x6EA JUMPI PUSH0 PUSH0 REVERT JUMPDEST POP PUSH2 0x6F3 PUSH2 0x192E JUMP JUMPDEST PUSH1 0x40 MLOAD PUSH2 0x700 SWAP2 SWAP1 PUSH2 0x4E4C JUMP JUMPDEST PUSH1 0x40 MLOAD DUP1 SWAP2 SUB SWAP1 RETURN JUMPDEST CALLVALUE DUP1 ISZERO PUSH2 0x714 JUMPI PUSH0 PUSH0 REVERT JUMPDEST POP PUSH2 0x72F PUSH1 0x4 DUP1 CALLDATASIZE SUB DUP2 ADD SWAP1 PUSH2 0x72A SWAP2 SWAP1 PUSH2 0x55BE JUMP JUMPDEST PUSH2 0x1937 JUMP JUMPDEST STOP JUMPDEST CALLVALUE DUP1 ISZERO PUSH2 0x73C JUMPI PUSH0 PUSH0 REVERT JUMPDEST POP PUSH2 0x757 PUSH1 0x4 DUP1 CALLDATASIZE SUB DUP2 ADD SWAP1 PUSH2 0x752 SWAP2 SWAP1 PUSH2 0x4D52 JUMP JUMPDEST PUSH2 0x1970 JUMP JUMPDEST PUSH1 0x40 MLOAD PUSH2 0x764 SWAP2 SWAP1 PUSH2 0x4DBC JUMP JUMPDEST PUSH1 0x40 MLOAD DUP1 SWAP2 SUB SWAP1 RETURN JUMPDEST CALLVALUE DUP1 ISZERO PUSH2 0x778 JUMPI PUSH0 PUSH0 REVERT JUMPDEST POP PUSH2 0x793 PUSH1 0x4 DUP1 CALLDATASIZE SUB DUP2 ADD SWAP1 PUSH2 0x78E SWAP2 SWAP1 PUSH2 0x5618 JUMP JUMPDEST PUSH2 0x1981 JUMP JUMPDEST STOP JUMPDEST CALLVALUE DUP1 ISZERO PUSH2 0x7A0 JUMPI PUSH0 PUSH0 REVERT JUMPDEST POP PUSH2 0x7BB PUSH1 0x4 DUP1 CALLDATASIZE SUB DUP2 ADD SWAP1 PUSH2 0x7B6 SWAP2 SWAP1 PUSH2 0x5618 JUMP JUMPDEST PUSH2 0x19D1 JUMP JUMPDEST PUSH1 0x40 MLOAD PUSH2 0x7C8 SWAP2 SWAP1 PUSH2 0x4E4C JUMP JUMPDEST PUSH1 0x40 MLOAD DUP1 SWAP2 SUB SWAP1 RETURN JUMPDEST CALLVALUE DUP1 ISZERO PUSH2 0x7DC JUMPI PUSH0 PUSH0 REVERT JUMPDEST POP PUSH2 0x7F7 PUSH1 0x4 DUP1 CALLDATASIZE SUB DUP2 ADD SWAP1 PUSH2 0x7F2 SWAP2 SWAP1 PUSH2 0x5643 JUMP JUMPDEST PUSH2 0x1A95 JUMP JUMPDEST STOP JUMPDEST CALLVALUE DUP1 ISZERO PUSH2 0x804 JUMPI PUSH0 PUSH0 REVERT JUMPDEST POP PUSH2 0x81F PUSH1 0x4 DUP1 CALLDATASIZE SUB DUP2 ADD SWAP1 PUSH2 0x81A SWAP2 SWAP1 PUSH2 0x4D52 JUMP JUMPDEST PUSH2 0x1D10 JUMP JUMPDEST STOP JUMPDEST CALLVALUE DUP1 ISZERO PUSH2 0x82C JUMPI PUSH0 PUSH0 REVERT JUMPDEST POP PUSH2 0x847 PUSH1 0x4 DUP1 CALLDATASIZE SUB DUP2 ADD SWAP1 PUSH2 0x842 SWAP2 SWAP1 PUSH2 0x5050 JUMP JUMPDEST PUSH2 0x1D8A JUMP JUMPDEST PUSH1 0x40 MLOAD PUSH2 0x854 SWAP2 SWAP1 PUSH2 0x574A JUMP JUMPDEST PUSH1 0x40 MLOAD DUP1 SWAP2 SUB SWAP1 RETURN JUMPDEST CALLVALUE DUP1 ISZERO PUSH2 0x868 JUMPI PUSH0 PUSH0 REVERT JUMPDEST POP PUSH2 0x871 PUSH2 0x1F7B JUMP JUMPDEST PUSH1 0x40 MLOAD PUSH2 0x87E SWAP2 SWAP1 PUSH2 0x4E4C JUMP JUMPDEST PUSH1 0x40 MLOAD DUP1 SWAP2 SUB SWAP1 RETURN JUMPDEST CALLVALUE DUP1 ISZERO PUSH2 0x892 JUMPI PUSH0 PUSH0 REVERT JUMPDEST POP PUSH2 0x8AD PUSH1 0x4 DUP1 CALLDATASIZE SUB DUP2 ADD SWAP1 PUSH2 0x8A8 SWAP2 SWAP1 PUSH2 0x4F3B JUMP JUMPDEST PUSH2 0x1F84 JUMP JUMPDEST PUSH1 0x40 MLOAD PUSH2 0x8BA SWAP2 SWAP1 PUSH2 0x4C76 JUMP JUMPDEST PUSH1 0x40 MLOAD DUP1 SWAP2 SUB SWAP1 RETURN JUMPDEST CALLVALUE DUP1 ISZERO PUSH2 0x8CE JUMPI PUSH0 PUSH0 REVERT JUMPDEST POP PUSH2 0x8D7 PUSH2 0x1FF5 JUMP JUMPDEST PUSH1 0x40 MLOAD PUSH2 0x8E4 SWAP2 SWAP1 PUSH2 0x4CFF JUMP JUMPDEST PUSH1 0x40 MLOAD DUP1 SWAP2 SUB SWAP1 RETURN JUMPDEST CALLVALUE DUP1 ISZERO PUSH2 0x8F8 JUMPI PUSH0 PUSH0 REVERT JUMPDEST POP PUSH2 0x913 PUSH1 0x4 DUP1 CALLDATASIZE SUB DUP2 ADD SWAP1 PUSH2 0x90E SWAP2 SWAP1 PUSH2 0x4D52 JUMP JUMPDEST PUSH2 0x2093 JUMP JUMPDEST STOP JUMPDEST CALLVALUE DUP1 ISZERO PUSH2 0x920 JUMPI PUSH0 PUSH0 REVERT JUMPDEST POP PUSH2 0x929 PUSH2 0x22EA JUMP JUMPDEST PUSH1 0x40 MLOAD PUSH2 0x936 SWAP2 SWAP1 PUSH2 0x4F22 JUMP JUMPDEST PUSH1 0x40 MLOAD DUP1 SWAP2 SUB SWAP1 RETURN JUMPDEST CALLVALUE DUP1 ISZERO PUSH2 0x94A JUMPI PUSH0 PUSH0 REVERT JUMPDEST POP PUSH2 0x965 PUSH1 0x4 DUP1 CALLDATASIZE SUB DUP2 ADD SWAP1 PUSH2 0x960 SWAP2 SWAP1 PUSH2 0x5794 JUMP JUMPDEST PUSH2 0x22F0 JUMP JUMPDEST STOP JUMPDEST CALLVALUE DUP1 ISZERO PUSH2 0x972 JUMPI PUSH0 PUSH0 REVERT JUMPDEST POP PUSH2 0x97B PUSH2 0x2306 JUMP JUMPDEST PUSH1 0x40 MLOAD PUSH2 0x988 SWAP2 SWAP1 PUSH2 0x574A JUMP JUMPDEST PUSH1 0x40 MLOAD DUP1 SWAP2 SUB SWAP1 RETURN JUMPDEST CALLVALUE DUP1 ISZERO PUSH2 0x99C JUMPI PUSH0 PUSH0 REVERT JUMPDEST POP PUSH2 0x9B7 PUSH1 0x4 DUP1 CALLDATASIZE SUB DUP2 ADD SWAP1 PUSH2 0x9B2 SWAP2 SWAP1 PUSH2 0x4D52 JUMP JUMPDEST PUSH2 0x235C JUMP JUMPDEST PUSH1 0x40 MLOAD PUSH2 0x9C4 SWAP2 SWAP1 PUSH2 0x4C76 JUMP JUMPDEST PUSH1 0x40 MLOAD DUP1 SWAP2 SUB SWAP1 RETURN JUMPDEST CALLVALUE DUP1 ISZERO PUSH2 0x9D8 JUMPI PUSH0 PUSH0 REVERT JUMPDEST POP PUSH2 0x9E1 PUSH2 0x2419 JUMP JUMPDEST PUSH1 0x40 MLOAD PUSH2 0x9EE SWAP2 SWAP1 PUSH2 0x4CFF JUMP JUMPDEST PUSH1 0x40 MLOAD DUP1 SWAP2 SUB SWAP1 RETURN JUMPDEST CALLVALUE DUP1 ISZERO PUSH2 0xA02 JUMPI PUSH0 PUSH0 REVERT JUMPDEST POP PUSH2 0xA1D PUSH1 0x4 DUP1 CALLDATASIZE SUB DUP2 ADD SWAP1 PUSH2 0xA18 SWAP2 SWAP1 PUSH2 0x57D2 JUMP JUMPDEST PUSH2 0x2452 JUMP JUMPDEST STOP JUMPDEST CALLVALUE DUP1 ISZERO PUSH2 0xA2A JUMPI PUSH0 PUSH0 REVERT JUMPDEST POP PUSH2 0xA45 PUSH1 0x4 DUP1 CALLDATASIZE SUB DUP2 ADD SWAP1 PUSH2 0xA40 SWAP2 SWAP1 PUSH2 0x4D52 JUMP JUMPDEST PUSH2 0x2477 JUMP JUMPDEST PUSH1 0x40 MLOAD PUSH2 0xA52 SWAP2 SWAP1 PUSH2 0x4CFF JUMP JUMPDEST PUSH1 0x40 MLOAD DUP1 SWAP2 SUB SWAP1 RETURN JUMPDEST CALLVALUE DUP1 ISZERO PUSH2 0xA66 JUMPI PUSH0 PUSH0 REVERT JUMPDEST POP PUSH2 0xA6F PUSH2 0x2489 JUMP JUMPDEST PUSH1 0x40 MLOAD PUSH2 0xA7C SWAP2 SWAP1 PUSH2 0x4DBC JUMP JUMPDEST PUSH1 0x40 MLOAD DUP1 SWAP2 SUB SWAP1 RETURN JUMPDEST CALLVALUE DUP1 ISZERO PUSH2 0xA90 JUMPI PUSH0 PUSH0 REVERT JUMPDEST POP PUSH2 0xA99 PUSH2 0x24B1 JUMP JUMPDEST PUSH1 0x40 MLOAD PUSH2 0xAA6 SWAP2 SWAP1 PUSH2 0x4F22 JUMP JUMPDEST PUSH1 0x40 MLOAD DUP1 SWAP2 SUB SWAP1 RETURN JUMPDEST CALLVALUE DUP1 ISZERO PUSH2 0xABA JUMPI PUSH0 PUSH0 REVERT JUMPDEST POP PUSH2 0xAD5 PUSH1 0x4 DUP1 CALLDATASIZE SUB DUP2 ADD SWAP1 PUSH2 0xAD0 SWAP2 SWAP1 PUSH2 0x4F3B JUMP JUMPDEST PUSH2 0x24D5 JUMP JUMPDEST STOP JUMPDEST CALLVALUE DUP1 ISZERO PUSH2 0xAE2 JUMPI PUSH0 PUSH0 REVERT JUMPDEST POP PUSH2 0xAFD PUSH1 0x4 DUP1 CALLDATASIZE SUB DUP2 ADD SWAP1 PUSH2 0xAF8 SWAP2 SWAP1 PUSH2 0x4D52 JUMP JUMPDEST PUSH2 0x24F7 JUMP JUMPDEST STOP JUMPDEST CALLVALUE DUP1 ISZERO PUSH2 0xB0A JUMPI PUSH0 PUSH0 REVERT JUMPDEST POP PUSH2 0xB13 PUSH2 0x2850 JUMP JUMPDEST PUSH1 0x40 MLOAD PUSH2 0xB20 SWAP2 SWAP1 PUSH2 0x4E4C JUMP JUMPDEST PUSH1 0x40 MLOAD DUP1 SWAP2 SUB SWAP1 RETURN JUMPDEST CALLVALUE DUP1 ISZERO PUSH2 0xB34 JUMPI PUSH0 PUSH0 REVERT JUMPDEST POP PUSH2 0xB4F PUSH1 0x4 DUP1 CALLDATASIZE SUB DUP2 ADD SWAP1 PUSH2 0xB4A SWAP2 SWAP1 PUSH2 0x4D52 JUMP JUMPDEST PUSH2 0x2859 JUMP JUMPDEST PUSH1 0x40 MLOAD PUSH2 0xB5C SWAP2 SWAP1 PUSH2 0x4E4C JUMP JUMPDEST PUSH1 0x40 MLOAD DUP1 SWAP2 SUB SWAP1 RETURN JUMPDEST CALLVALUE DUP1 ISZERO PUSH2 0xB70 JUMPI PUSH0 PUSH0 REVERT JUMPDEST POP PUSH2 0xB8B PUSH1 0x4 DUP1 CALLDATASIZE SUB DUP2 ADD SWAP1 PUSH2 0xB86 SWAP2 SWAP1 PUSH2 0x5852 JUMP JUMPDEST PUSH2 0x2876 JUMP JUMPDEST PUSH1 0x40 MLOAD PUSH2 0xB98 SWAP2 SWAP1 PUSH2 0x4C76 JUMP JUMPDEST PUSH1 0x40 MLOAD DUP1 SWAP2 SUB SWAP1 RETURN JUMPDEST CALLVALUE DUP1 ISZERO PUSH2 0xBAC JUMPI PUSH0 PUSH0 REVERT JUMPDEST POP PUSH2 0xBB5 PUSH2 0x2912 JUMP JUMPDEST PUSH1 0x40 MLOAD PUSH2 0xBC2 SWAP2 SWAP1 PUSH2 0x4F22 JUMP JUMPDEST PUSH1 0x40 MLOAD DUP1 SWAP2 SUB SWAP1 RETURN JUMPDEST CALLVALUE DUP1 ISZERO PUSH2 0xBD6 JUMPI PUSH0 PUSH0 REVERT JUMPDEST POP PUSH2 0xBDF PUSH2 0x2936 JUMP JUMPDEST PUSH1 0x40 MLOAD PUSH2 0xBEC SWAP2 SWAP1 PUSH2 0x4F22 JUMP JUMPDEST PUSH1 0x40 MLOAD DUP1 SWAP2 SUB SWAP1 RETURN JUMPDEST CALLVALUE DUP1 ISZERO PUSH2 0xC00 JUMPI PUSH0 PUSH0 REVERT JUMPDEST POP PUSH2 0xC1B PUSH1 0x4 DUP1 CALLDATASIZE SUB DUP2 ADD SWAP1 PUSH2 0xC16 SWAP2 SWAP1 PUSH2 0x5050 JUMP JUMPDEST PUSH2 0x295A JUMP JUMPDEST STOP JUMPDEST PUSH0 PUSH2 0xC27 DUP3 PUSH2 0x29A2 JUMP JUMPDEST SWAP1 POP SWAP2 SWAP1 POP JUMP JUMPDEST PUSH1 0x60 PUSH0 PUSH2 0xC39 PUSH2 0x2A1B JUMP JUMPDEST SWAP1 POP DUP1 PUSH0 ADD DUP1 SLOAD PUSH2 0xC49 SWAP1 PUSH2 0x58BD JUMP JUMPDEST DUP1 PUSH1 0x1F ADD PUSH1 0x20 DUP1 SWAP2 DIV MUL PUSH1 0x20 ADD PUSH1 0x40 MLOAD SWAP1 DUP2 ADD PUSH1 0x40 MSTORE DUP1 SWAP3 SWAP2 SWAP1 DUP2 DUP2 MSTORE PUSH1 0x20 ADD DUP3 DUP1 SLOAD PUSH2 0xC75 SWAP1 PUSH2 0x58BD JUMP JUMPDEST DUP1 ISZERO PUSH2 0xCC0 JUMPI DUP1 PUSH1 0x1F LT PUSH2 0xC97 JUMPI PUSH2 0x100 DUP1 DUP4 SLOAD DIV MUL DUP4 MSTORE SWAP2 PUSH1 0x20 ADD SWAP2 PUSH2 0xCC0 JUMP JUMPDEST DUP3 ADD SWAP2 SWAP1 PUSH0 MSTORE PUSH1 0x20 PUSH0 KECCAK256 SWAP1 JUMPDEST DUP2 SLOAD DUP2 MSTORE SWAP1 PUSH1 0x1 ADD SWAP1 PUSH1 0x20 ADD DUP1 DUP4 GT PUSH2 0xCA3 JUMPI DUP3 SWAP1 SUB PUSH1 0x1F AND DUP3 ADD SWAP2 JUMPDEST POP POP POP POP POP SWAP2 POP POP SWAP1 JUMP JUMPDEST PUSH0 PUSH2 0xCD5 DUP3 PUSH2 0x2A42 JUMP JUMPDEST POP PUSH2 0xCDF DUP3 PUSH2 0x2AC8 JUMP JUMPDEST SWAP1 POP SWAP2 SWAP1 POP JUMP JUMPDEST PUSH2 0xCF8 DUP3 DUP3 PUSH2 0xCF3 PUSH2 0x2B0F JUMP JUMPDEST PUSH2 0x2B16 JUMP JUMPDEST POP POP JUMP JUMPDEST PUSH0 PUSH0 PUSH2 0xD06 PUSH2 0x2B28 JUMP JUMPDEST SWAP1 POP DUP1 PUSH1 0x2 ADD DUP1 SLOAD SWAP1 POP SWAP2 POP POP SWAP1 JUMP JUMPDEST PUSH0 PUSH20 0xFFFFFFFFFFFFFFFFFFFFFFFFFFFFFFFFFFFFFFFF AND DUP3 PUSH20 0xFFFFFFFFFFFFFFFFFFFFFFFFFFFFFFFFFFFFFFFF AND SUB PUSH2 0xD86 JUMPI PUSH0 PUSH1 0x40 MLOAD PUSH32 0x64A0AE9200000000000000000000000000000000000000000000000000000000 DUP2 MSTORE PUSH1 0x4 ADD PUSH2 0xD7D SWAP2 SWAP1 PUSH2 0x4DBC JUMP JUMPDEST PUSH1 0x40 MLOAD DUP1 SWAP2 SUB SWAP1 REVERT JUMPDEST PUSH0 PUSH2 0xD99 DUP4 DUP4 PUSH2 0xD94 PUSH2 0x2B0F JUMP JUMPDEST PUSH2 0x2B4F JUMP JUMPDEST SWAP1 POP DUP4 PUSH20 0xFFFFFFFFFFFFFFFFFFFFFFFFFFFFFFFFFFFFFFFF AND DUP2 PUSH20 0xFFFFFFFFFFFFFFFFFFFFFFFFFFFFFFFFFFFFFFFF AND EQ PUSH2 0xE0F JUMPI DUP4 DUP3 DUP3 PUSH1 0x40 MLOAD PUSH32 0x64283D7B00000000000000000000000000000000000000000000000000000000 DUP2 MSTORE PUSH1 0x4 ADD PUSH2 0xE06 SWAP4 SWAP3 SWAP2 SWAP1 PUSH2 0x58ED JUMP JUMPDEST PUSH1 0x40 MLOAD DUP1 SWAP2 SUB SWAP1 REVERT JUMPDEST POP POP POP POP JUMP JUMPDEST PUSH0 PUSH0 PUSH2 0xE1F PUSH2 0x2BA4 JUMP JUMPDEST SWAP1 POP DUP1 PUSH0 ADD PUSH0 DUP5 DUP2 MSTORE PUSH1 0x20 ADD SWAP1 DUP2 MSTORE PUSH1 0x20 ADD PUSH0 KECCAK256 PUSH1 0x1 ADD SLOAD SWAP2 POP POP SWAP2 SWAP1 POP JUMP JUMPDEST PUSH2 0xE48 DUP3 PUSH2 0xE15 JUMP JUMPDEST PUSH2 0xE51 DUP2 PUSH2 0x2BCB JUMP JUMPDEST PUSH2 0xE5B DUP4 DUP4 PUSH2 0x2BDF JUMP JUMPDEST POP POP POP POP JUMP JUMPDEST PUSH0 PUSH0 PUSH2 0xE6B PUSH2 0x2B28 JUMP JUMPDEST SWAP1 POP PUSH2 0xE76 DUP5 PUSH2 0x19D1 JUMP JUMPDEST DUP4 LT PUSH2 0xEBB JUMPI DUP4 DUP4 PUSH1 0x40 MLOAD PUSH32 0xA57D13DC00000000000000000000000000000000000000000000000000000000 DUP2 MSTORE PUSH1 0x4 ADD PUSH2 0xEB2 SWAP3 SWAP2 SWAP1 PUSH2 0x5922 JUMP JUMPDEST PUSH1 0x40 MLOAD DUP1 SWAP2 SUB SWAP1 REVERT JUMPDEST DUP1 PUSH0 ADD PUSH0 DUP6 PUSH20 0xFFFFFFFFFFFFFFFFFFFFFFFFFFFFFFFFFFFFFFFF AND PUSH20 0xFFFFFFFFFFFFFFFFFFFFFFFFFFFFFFFFFFFFFFFF AND DUP2 MSTORE PUSH1 0x20 ADD SWAP1 DUP2 MSTORE PUSH1 0x20 ADD PUSH0 KECCAK256 PUSH0 DUP5 DUP2 MSTORE PUSH1 0x20 ADD SWAP1 DUP2 MSTORE PUSH1 0x20 ADD PUSH0 KECCAK256 SLOAD SWAP2 POP POP SWAP3 SWAP2 POP POP JUMP JUMPDEST PUSH0 PUSH1 0x1 DUP3 DUP2 SLOAD DUP2 LT PUSH2 0xF27 JUMPI PUSH2 0xF26 PUSH2 0x5949 JUMP JUMPDEST JUMPDEST SWAP1 PUSH0 MSTORE PUSH1 0x20 PUSH0 KECCAK256 ADD SLOAD SWAP1 POP SWAP2 SWAP1 POP JUMP JUMPDEST PUSH2 0xF3F PUSH2 0x2B0F JUMP JUMPDEST PUSH20 0xFFFFFFFFFFFFFFFFFFFFFFFFFFFFFFFFFFFFFFFF AND DUP2 PUSH20 0xFFFFFFFFFFFFFFFFFFFFFFFFFFFFFFFFFFFFFFFF AND EQ PUSH2 0xFA3 JUMPI PUSH1 0x40 MLOAD PUSH32 0x6697B23200000000000000000000000000000000000000000000000000000000 DUP2 MSTORE PUSH1 0x4 ADD PUSH1 0x40 MLOAD DUP1 SWAP2 SUB SWAP1 REVERT JUMPDEST PUSH2 0xFAD DUP3 DUP3 PUSH2 0x2CD7 JUMP JUMPDEST POP POP POP JUMP JUMPDEST PUSH1 0x60 PUSH0 DUP1 SLOAD DUP1 PUSH1 0x20 MUL PUSH1 0x20 ADD PUSH1 0x40 MLOAD SWAP1 DUP2 ADD PUSH1 0x40 MSTORE DUP1 SWAP3 SWAP2 SWAP1 DUP2 DUP2 MSTORE PUSH1 0x20 ADD DUP3 DUP1 SLOAD DUP1 ISZERO PUSH2 0x1032 JUMPI PUSH1 0x20 MUL DUP3 ADD SWAP2 SWAP1 PUSH0 MSTORE PUSH1 0x20 PUSH0 KECCAK256 SWAP1 JUMPDEST DUP2 PUSH0 SWAP1 SLOAD SWAP1 PUSH2 0x100 EXP SWAP1 DIV PUSH20 0xFFFFFFFFFFFFFFFFFFFFFFFFFFFFFFFFFFFFFFFF AND PUSH20 0xFFFFFFFFFFFFFFFFFFFFFFFFFFFFFFFFFFFFFFFF AND DUP2 MSTORE PUSH1 0x20 ADD SWAP1 PUSH1 0x1 ADD SWAP1 DUP1 DUP4 GT PUSH2 0xFE9 JUMPI JUMPDEST POP POP POP POP POP SWAP1 POP SWAP1 JUMP JUMPDEST PUSH0 PUSH0 DUP4 SUB PUSH2 0x1076 JUMPI PUSH1 0x40 MLOAD PUSH32 0x63D664BC00000000000000000000000000000000000000000000000000000000 DUP2 MSTORE PUSH1 0x4 ADD PUSH1 0x40 MLOAD DUP1 SWAP2 SUB SWAP1 REVERT JUMPDEST PUSH32 0xE8482EC6CA8430924A4791FA337DE48DD53E9ACE1C963558F81DABB4227AFD51 DUP4 PUSH1 0x40 MLOAD PUSH2 0x10A5 SWAP2 SWAP1 PUSH2 0x4E4C JUMP JUMPDEST PUSH1 0x40 MLOAD DUP1 SWAP2 SUB SWAP1 LOG1 PUSH0 PUSH1 0x3 PUSH0 DUP5 DUP2 MSTORE PUSH1 0x20 ADD SWAP1 DUP2 MSTORE PUSH1 0x20 ADD PUSH0 KECCAK256 PUSH0 SWAP1 SLOAD SWAP1 PUSH2 0x100 EXP SWAP1 DIV PUSH1 0xFF AND PUSH2 0x10D7 JUMPI PUSH1 0x1 PUSH2 0x10EB JUMP JUMPDEST PUSH0 PUSH1 0x2 SLOAD GT PUSH2 0x10E6 JUMPI PUSH0 PUSH2 0x10EA JUMP JUMPDEST PUSH1 0x2 SLOAD JUMPDEST JUMPDEST SWAP1 POP PUSH32 0x529834A623CE4A9B55D2C70E5A6F1B4D8CA4246B203EC66473C0647923DFC021 PUSH1 0x3 PUSH0 DUP6 DUP2 MSTORE PUSH1 0x20 ADD SWAP1 DUP2 MSTORE PUSH1 0x20 ADD PUSH0 KECCAK256 PUSH0 SWAP1 SLOAD SWAP1 PUSH2 0x100 EXP SWAP1 DIV PUSH1 0xFF AND DUP3 PUSH1 0x40 MLOAD PUSH2 0x113B SWAP3 SWAP2 SWAP1 PUSH2 0x5976 JUMP JUMPDEST PUSH1 0x40 MLOAD DUP1 SWAP2 SUB SWAP1 LOG1 PUSH0 PUSH0 SWAP1 POP PUSH0 JUMPDEST PUSH0 DUP1 SLOAD SWAP1 POP DUP2 LT ISZERO PUSH2 0x138A JUMPI PUSH0 PUSH2 0x2710 DUP1 DUP6 PUSH1 0x1 DUP6 DUP2 SLOAD DUP2 LT PUSH2 0x116F JUMPI PUSH2 0x116E PUSH2 0x5949 JUMP JUMPDEST JUMPDEST SWAP1 PUSH0 MSTORE PUSH1 0x20 PUSH0 KECCAK256 ADD SLOAD MUL DUP2 PUSH2 0x1187 JUMPI PUSH2 0x1186 PUSH2 0x599D JUMP JUMPDEST JUMPDEST DIV DUP9 MUL DUP2 PUSH2 0x1198 JUMPI PUSH2 0x1197 PUSH2 0x599D JUMP JUMPDEST JUMPDEST DIV SWAP1 POP PUSH32 0xFFAD7D7508B680459D3AB590487D1647B0C5BB1FCCE7BAAEF005E26219199FD2 DUP3 PUSH1 0x1 DUP5 DUP2 SLOAD DUP2 LT PUSH2 0x11D1 JUMPI PUSH2 0x11D0 PUSH2 0x5949 JUMP JUMPDEST JUMPDEST SWAP1 PUSH0 MSTORE PUSH1 0x20 PUSH0 KECCAK256 ADD SLOAD DUP4 PUSH1 0x40 MLOAD PUSH2 0x11EA SWAP4 SWAP3 SWAP2 SWAP1 PUSH2 0x59CA JUMP JUMPDEST PUSH1 0x40 MLOAD DUP1 SWAP2 SUB SWAP1 LOG1 PUSH0 PUSH1 0x6 PUSH0 SWAP1 SLOAD SWAP1 PUSH2 0x100 EXP SWAP1 DIV PUSH20 0xFFFFFFFFFFFFFFFFFFFFFFFFFFFFFFFFFFFFFFFF AND PUSH20 0xFFFFFFFFFFFFFFFFFFFFFFFFFFFFFFFFFFFFFFFF AND PUSH4 0x23B872DD ADDRESS PUSH0 DUP7 DUP2 SLOAD DUP2 LT PUSH2 0x1244 JUMPI PUSH2 0x1243 PUSH2 0x5949 JUMP JUMPDEST JUMPDEST SWAP1 PUSH0 MSTORE PUSH1 0x20 PUSH0 KECCAK256 ADD PUSH0 SWAP1 SLOAD SWAP1 PUSH2 0x100 EXP SWAP1 DIV PUSH20 0xFFFFFFFFFFFFFFFFFFFFFFFFFFFFFFFFFFFFFFFF AND DUP6 PUSH1 0x40 MLOAD DUP5 PUSH4 0xFFFFFFFF AND PUSH1 0xE0 SHL DUP2 MSTORE PUSH1 0x4 ADD PUSH2 0x128B SWAP4 SWAP3 SWAP2 SWAP1 PUSH2 0x59FF JUMP JUMPDEST PUSH1 0x20 PUSH1 0x40 MLOAD DUP1 DUP4 SUB DUP2 PUSH0 DUP8 GAS CALL ISZERO DUP1 ISZERO PUSH2 0x12A7 JUMPI RETURNDATASIZE PUSH0 PUSH0 RETURNDATACOPY RETURNDATASIZE PUSH0 REVERT JUMPDEST POP POP POP POP PUSH1 0x40 MLOAD RETURNDATASIZE PUSH1 0x1F NOT PUSH1 0x1F DUP3 ADD AND DUP3 ADD DUP1 PUSH1 0x40 MSTORE POP DUP2 ADD SWAP1 PUSH2 0x12CB SWAP2 SWAP1 PUSH2 0x5A48 JUMP JUMPDEST SWAP1 POP DUP1 PUSH2 0x1304 JUMPI PUSH1 0x40 MLOAD PUSH32 0x90B8EC1800000000000000000000000000000000000000000000000000000000 DUP2 MSTORE PUSH1 0x4 ADD PUSH1 0x40 MLOAD DUP1 SWAP2 SUB SWAP1 REVERT JUMPDEST DUP2 DUP5 ADD SWAP4 POP DUP7 PUSH32 0xFF50AEAF5513A2BFCF5C38AF0D681D05E9A00CD91CC42AB2E143549595E5F172 PUSH0 DUP6 DUP2 SLOAD DUP2 LT PUSH2 0x133E JUMPI PUSH2 0x133D PUSH2 0x5949 JUMP JUMPDEST JUMPDEST SWAP1 PUSH0 MSTORE PUSH1 0x20 PUSH0 KECCAK256 ADD PUSH0 SWAP1 SLOAD SWAP1 PUSH2 0x100 EXP SWAP1 DIV PUSH20 0xFFFFFFFFFFFFFFFFFFFFFFFFFFFFFFFFFFFFFFFF AND DUP5 PUSH1 0x40 MLOAD PUSH2 0x1375 SWAP3 SWAP2 SWAP1 PUSH2 0x5922 JUMP JUMPDEST PUSH1 0x40 MLOAD DUP1 SWAP2 SUB SWAP1 LOG2 POP POP DUP1 PUSH1 0x1 ADD SWAP1 POP PUSH2 0x1149 JUMP JUMPDEST POP DUP1 SWAP3 POP POP POP SWAP3 SWAP2 POP POP JUMP JUMPDEST PUSH0 PUSH1 0x5 SLOAD GT DUP1 ISZERO PUSH2 0x13AB JUMPI POP PUSH1 0x5 SLOAD PUSH1 0x8 SLOAD LT ISZERO JUMPDEST ISZERO PUSH2 0x13E2 JUMPI PUSH1 0x40 MLOAD PUSH32 0x57ECDF3B00000000000000000000000000000000000000000000000000000000 DUP2 MSTORE PUSH1 0x4 ADD PUSH1 0x40 MLOAD DUP1 SWAP2 SUB SWAP1 REVERT JUMPDEST PUSH1 0x8 PUSH0 DUP2 SLOAD DUP1 SWAP3 SWAP2 SWAP1 PUSH2 0x13F4 SWAP1 PUSH2 0x5AA0 JUMP JUMPDEST SWAP2 SWAP1 POP SSTORE POP PUSH0 PUSH1 0x8 SLOAD SWAP1 POP PUSH2 0x1409 DUP6 DUP3 PUSH2 0x2DCF JUMP JUMPDEST DUP4 PUSH1 0x4 PUSH0 DUP4 DUP2 MSTORE PUSH1 0x20 ADD SWAP1 DUP2 MSTORE PUSH1 0x20 ADD PUSH0 KECCAK256 PUSH0 ADD SWAP1 DUP2 PUSH2 0x1429 SWAP2 SWAP1 PUSH2 0x5C87 JUMP JUMPDEST POP DUP3 PUSH1 0x4 PUSH0 DUP4 DUP2 MSTORE PUSH1 0x20 ADD SWAP1 DUP2 MSTORE PUSH1 0x20 ADD PUSH0 KECCAK256 PUSH1 0x2 ADD DUP2 SWAP1 SSTORE POP CALLER PUSH1 0x4 PUSH0 DUP4 DUP2 MSTORE PUSH1 0x20 ADD SWAP1 DUP2 MSTORE PUSH1 0x20 ADD PUSH0 KECCAK256 PUSH1 0x3 ADD PUSH0 PUSH2 0x100 EXP DUP2 SLOAD DUP2 PUSH20 0xFFFFFFFFFFFFFFFFFFFFFFFFFFFFFFFFFFFFFFFF MUL NOT AND SWAP1 DUP4 PUSH20 0xFFFFFFFFFFFFFFFFFFFFFFFFFFFFFFFFFFFFFFFF AND MUL OR SWAP1 SSTORE POP DUP2 PUSH1 0x4 PUSH0 DUP4 DUP2 MSTORE PUSH1 0x20 ADD SWAP1 DUP2 MSTORE PUSH1 0x20 ADD PUSH0 KECCAK256 PUSH1 0x1 ADD SWAP1 DUP1 MLOAD SWAP1 PUSH1 0x20 ADD SWAP1 PUSH2 0x14BD SWAP3 SWAP2 SWAP1 PUSH2 0x4ADE JUMP JUMPDEST POP PUSH2 0x14C8 DUP3 CALLER PUSH2 0x2EC2 JUMP JUMPDEST PUSH2 0x153F JUMPI PUSH1 0x4 PUSH0 DUP3 DUP2 MSTORE PUSH1 0x20 ADD SWAP1 DUP2 MSTORE PUSH1 0x20 ADD PUSH0 KECCAK256 PUSH1 0x1 ADD CALLER SWAP1 DUP1 PUSH1 0x1 DUP2 SLOAD ADD DUP1 DUP3 SSTORE DUP1 SWAP2 POP POP PUSH1 0x1 SWAP1 SUB SWAP1 PUSH0 MSTORE PUSH1 0x20 PUSH0 KECCAK256 ADD PUSH0 SWAP1 SWAP2 SWAP1 SWAP2 SWAP1 SWAP2 PUSH2 0x100 EXP DUP2 SLOAD DUP2 PUSH20 0xFFFFFFFFFFFFFFFFFFFFFFFFFFFFFFFFFFFFFFFF MUL NOT AND SWAP1 DUP4 PUSH20 0xFFFFFFFFFFFFFFFFFFFFFFFFFFFFFFFFFFFFFFFF AND MUL OR SWAP1 SSTORE POP JUMPDEST PUSH0 PUSH1 0x3 PUSH0 DUP4 DUP2 MSTORE PUSH1 0x20 ADD SWAP1 DUP2 MSTORE PUSH1 0x20 ADD PUSH0 KECCAK256 PUSH0 PUSH2 0x100 EXP DUP2 SLOAD DUP2 PUSH1 0xFF MUL NOT AND SWAP1 DUP4 ISZERO ISZERO MUL OR SWAP1 SSTORE POP DUP1 PUSH32 0x176B02BB2D12439FF7A20B59F402CCA16C76F50508B13EF3166A600EB719354A PUSH1 0x40 MLOAD PUSH1 0x40 MLOAD DUP1 SWAP2 SUB SWAP1 LOG2 POP POP POP POP POP JUMP JUMPDEST PUSH2 0x15B5 DUP4 DUP4 DUP4 PUSH1 0x40 MLOAD DUP1 PUSH1 0x20 ADD PUSH1 0x40 MSTORE DUP1 PUSH0 DUP2 MSTORE POP PUSH2 0x2452 JUMP JUMPDEST POP POP POP JUMP JUMPDEST PUSH2 0x15CC PUSH0 DUP3 PUSH2 0x15C7 PUSH2 0x2B0F JUMP JUMPDEST PUSH2 0x2B4F JUMP JUMPDEST POP POP JUMP JUMPDEST PUSH0 PUSH0 SHL PUSH2 0x15DC DUP2 PUSH2 0x2BCB JUMP JUMPDEST DUP2 PUSH1 0x5 DUP2 SWAP1 SSTORE POP POP POP JUMP JUMPDEST PUSH0 PUSH2 0x15F0 PUSH2 0x2F40 JUMP JUMPDEST SWAP1 POP PUSH0 DUP2 PUSH0 ADD PUSH1 0x8 SWAP1 SLOAD SWAP1 PUSH2 0x100 EXP SWAP1 DIV PUSH1 0xFF AND ISZERO SWAP1 POP PUSH0 DUP3 PUSH0 ADD PUSH0 SWAP1 SLOAD SWAP1 PUSH2 0x100 EXP SWAP1 DIV PUSH8 0xFFFFFFFFFFFFFFFF AND SWAP1 POP PUSH0 PUSH0 DUP3 PUSH8 0xFFFFFFFFFFFFFFFF AND EQ DUP1 ISZERO PUSH2 0x1638 JUMPI POP DUP3 JUMPDEST SWAP1 POP PUSH0 PUSH1 0x1 DUP4 PUSH8 0xFFFFFFFFFFFFFFFF AND EQ DUP1 ISZERO PUSH2 0x166B JUMPI POP PUSH0 ADDRESS PUSH20 0xFFFFFFFFFFFFFFFFFFFFFFFFFFFFFFFFFFFFFFFF AND EXTCODESIZE EQ JUMPDEST SWAP1 POP DUP2 ISZERO DUP1 ISZERO PUSH2 0x1679 JUMPI POP DUP1 ISZERO JUMPDEST ISZERO PUSH2 0x16B0 JUMPI PUSH1 0x40 MLOAD PUSH32 0xF92EE8A900000000000000000000000000000000000000000000000000000000 DUP2 MSTORE PUSH1 0x4 ADD PUSH1 0x40 MLOAD DUP1 SWAP2 SUB SWAP1 REVERT JUMPDEST PUSH1 0x1 DUP6 PUSH0 ADD PUSH0 PUSH2 0x100 EXP DUP2 SLOAD DUP2 PUSH8 0xFFFFFFFFFFFFFFFF MUL NOT AND SWAP1 DUP4 PUSH8 0xFFFFFFFFFFFFFFFF AND MUL OR SWAP1 SSTORE POP DUP4 ISZERO PUSH2 0x16FD JUMPI PUSH1 0x1 DUP6 PUSH0 ADD PUSH1 0x8 PUSH2 0x100 EXP DUP2 SLOAD DUP2 PUSH1 0xFF MUL NOT AND SWAP1 DUP4 ISZERO ISZERO MUL OR SWAP1 SSTORE POP JUMPDEST PUSH2 0x1707 DUP8 DUP8 PUSH2 0x2F67 JUMP JUMPDEST PUSH2 0x170F PUSH2 0x2F7D JUMP JUMPDEST PUSH2 0x1717 PUSH2 0x2F87 JUMP JUMPDEST PUSH2 0x171F PUSH2 0x2F91 JUMP JUMPDEST PUSH2 0x1727 PUSH2 0x2F9B JUMP JUMPDEST PUSH2 0x172F PUSH2 0x2FA5 JUMP JUMPDEST PUSH2 0x173B PUSH0 PUSH0 SHL CALLER PUSH2 0x2BDF JUMP JUMPDEST POP PUSH2 0x1766 PUSH32 0x9F2DF0FED2C77648DE5860A4CC508CD0818C85B8B8A1AB4CEEEF8D981C8956A6 CALLER PUSH2 0x2BDF JUMP JUMPDEST POP PUSH2 0x1791 PUSH32 0x189AB7A9244DF0848122154315AF71FE140F3DB0FE014031783B0946B8C9D2E3 CALLER PUSH2 0x2BDF JUMP JUMPDEST POP PUSH2 0x17BC PUSH32 0x4824FCB60E7CC526D70B264CAA65B62ED44D9C8E5D230E8FF6B0C7373843B8A CALLER PUSH2 0x2BDF JUMP JUMPDEST POP DUP4 ISZERO PUSH2 0x1817 JUMPI PUSH0 DUP6 PUSH0 ADD PUSH1 0x8 PUSH2 0x100 EXP DUP2 SLOAD DUP2 PUSH1 0xFF MUL NOT AND SWAP1 DUP4 ISZERO ISZERO MUL OR SWAP1 SSTORE POP PUSH32 0xC7F505B2F371AE2175EE4913F4499E1F2633A7B5936321EED1CDAEB6115181D2 PUSH1 0x1 PUSH1 0x40 MLOAD PUSH2 0x180E SWAP2 SWAP1 PUSH2 0x5DA2 JUMP JUMPDEST PUSH1 0x40 MLOAD DUP1 SWAP2 SUB SWAP1 LOG1 JUMPDEST POP POP POP POP POP POP POP JUMP JUMPDEST PUSH2 0x1828 PUSH2 0x2FAF JUMP JUMPDEST PUSH2 0x1831 DUP3 PUSH2 0x3095 JUMP JUMPDEST PUSH2 0x183B DUP3 DUP3 PUSH2 0x30C3 JUMP JUMPDEST POP POP JUMP JUMPDEST PUSH0 PUSH0 PUSH2 0x1849 PUSH2 0x2B28 JUMP JUMPDEST SWAP1 POP PUSH2 0x1853 PUSH2 0xCFC JUMP JUMPDEST DUP4 LT PUSH2 0x1898 JUMPI PUSH0 DUP4 PUSH1 0x40 MLOAD PUSH32 0xA57D13DC00000000000000000000000000000000000000000000000000000000 DUP2 MSTORE PUSH1 0x4 ADD PUSH2 0x188F SWAP3 SWAP2 SWAP1 PUSH2 0x5922 JUMP JUMPDEST PUSH1 0x40 MLOAD DUP1 SWAP2 SUB SWAP1 REVERT JUMPDEST DUP1 PUSH1 0x2 ADD DUP4 DUP2 SLOAD DUP2 LT PUSH2 0x18AE JUMPI PUSH2 0x18AD PUSH2 0x5949 JUMP JUMPDEST JUMPDEST SWAP1 PUSH0 MSTORE PUSH1 0x20 PUSH0 KECCAK256 ADD SLOAD SWAP2 POP POP SWAP2 SWAP1 POP JUMP JUMPDEST PUSH0 PUSH0 SHL PUSH2 0x18CB DUP2 PUSH2 0x2BCB JUMP JUMPDEST DUP3 PUSH0 SWAP1 DUP1 MLOAD SWAP1 PUSH1 0x20 ADD SWAP1 PUSH2 0x18E0 SWAP3 SWAP2 SWAP1 PUSH2 0x4ADE JUMP JUMPDEST POP DUP2 PUSH1 0x1 SWAP1 DUP1 MLOAD SWAP1 PUSH1 0x20 ADD SWAP1 PUSH2 0x18F7 SWAP3 SWAP2 SWAP1 PUSH2 0x4B65 JUMP JUMPDEST POP POP POP POP JUMP JUMPDEST PUSH0 PUSH2 0x1906 PUSH2 0x31E1 JUMP JUMPDEST PUSH32 0x360894A13BA1A3210667C828492DB98DCA3E2076CC3735A920A3CA505D382BBC PUSH0 SHL SWAP1 POP SWAP1 JUMP JUMPDEST PUSH0 PUSH1 0x8 SLOAD SWAP1 POP SWAP1 JUMP JUMPDEST PUSH32 0x9F2DF0FED2C77648DE5860A4CC508CD0818C85B8B8A1AB4CEEEF8D981C8956A6 PUSH2 0x1961 DUP2 PUSH2 0x2BCB JUMP JUMPDEST PUSH2 0x196B DUP4 DUP4 PUSH2 0x3268 JUMP JUMPDEST POP POP POP JUMP JUMPDEST PUSH0 PUSH2 0x197A DUP3 PUSH2 0x2A42 JUMP JUMPDEST SWAP1 POP SWAP2 SWAP1 POP JUMP JUMPDEST PUSH0 PUSH0 SHL PUSH2 0x198D DUP2 PUSH2 0x2BCB JUMP JUMPDEST DUP2 PUSH1 0x6 PUSH0 PUSH2 0x100 EXP DUP2 SLOAD DUP2 PUSH20 0xFFFFFFFFFFFFFFFFFFFFFFFFFFFFFFFFFFFFFFFF MUL NOT AND SWAP1 DUP4 PUSH20 0xFFFFFFFFFFFFFFFFFFFFFFFFFFFFFFFFFFFFFFFF AND MUL OR SWAP1 SSTORE POP POP POP JUMP JUMPDEST PUSH0 PUSH0 PUSH2 0x19DB PUSH2 0x2A1B JUMP JUMPDEST SWAP1 POP PUSH0 PUSH20 0xFFFFFFFFFFFFFFFFFFFFFFFFFFFFFFFFFFFFFFFF AND DUP4 PUSH20 0xFFFFFFFFFFFFFFFFFFFFFFFFFFFFFFFFFFFFFFFF AND SUB PUSH2 0x1A4D JUMPI PUSH0 PUSH1 0x40 MLOAD PUSH32 0x89C62B6400000000000000000000000000000000000000000000000000000000 DUP2 MSTORE PUSH1 0x4 ADD PUSH2 0x1A44 SWAP2 SWAP1 PUSH2 0x4DBC JUMP JUMPDEST PUSH1 0x40 MLOAD DUP1 SWAP2 SUB SWAP1 REVERT JUMPDEST DUP1 PUSH1 0x3 ADD PUSH0 DUP5 PUSH20 0xFFFFFFFFFFFFFFFFFFFFFFFFFFFFFFFFFFFFFFFF AND PUSH20 0xFFFFFFFFFFFFFFFFFFFFFFFFFFFFFFFFFFFFFFFF AND DUP2 MSTORE PUSH1 0x20 ADD SWAP1 DUP2 MSTORE PUSH1 0x20 ADD PUSH0 KECCAK256 SLOAD SWAP2 POP POP SWAP2 SWAP1 POP JUMP JUMPDEST PUSH32 0x9F2DF0FED2C77648DE5860A4CC508CD0818C85B8B8A1AB4CEEEF8D981C8956A6 PUSH2 0x1ABF DUP2 PUSH2 0x2BCB JUMP JUMPDEST CALLER PUSH20 0xFFFFFFFFFFFFFFFFFFFFFFFFFFFFFFFFFFFFFFFF AND PUSH2 0x1ADF DUP6 PUSH2 0x1970 JUMP JUMPDEST PUSH20 0xFFFFFFFFFFFFFFFFFFFFFFFFFFFFFFFFFFFFFFFF AND EQ PUSH2 0x1B35 JUMPI PUSH1 0x40 MLOAD PUSH32 0x8C379A000000000000000000000000000000000000000000000000000000000 DUP2 MSTORE PUSH1 0x4 ADD PUSH2 0x1B2C SWAP1 PUSH2 0x5E2B JUMP JUMPDEST PUSH1 0x40 MLOAD DUP1 SWAP2 SUB SWAP1 REVERT JUMPDEST PUSH0 PUSH20 0xFFFFFFFFFFFFFFFFFFFFFFFFFFFFFFFFFFFFFFFF AND PUSH1 0x7 PUSH0 DUP7 DUP2 MSTORE PUSH1 0x20 ADD SWAP1 DUP2 MSTORE PUSH1 0x20 ADD PUSH0 KECCAK256 PUSH0 ADD PUSH0 SWAP1 SLOAD SWAP1 PUSH2 0x100 EXP SWAP1 DIV PUSH20 0xFFFFFFFFFFFFFFFFFFFFFFFFFFFFFFFFFFFFFFFF AND PUSH20 0xFFFFFFFFFFFFFFFFFFFFFFFFFFFFFFFFFFFFFFFF AND EQ PUSH2 0x1BD5 JUMPI PUSH1 0x40 MLOAD PUSH32 0x8C379A000000000000000000000000000000000000000000000000000000000 DUP2 MSTORE PUSH1 0x4 ADD PUSH2 0x1BCC SWAP1 PUSH2 0x5E93 JUMP JUMPDEST PUSH1 0x40 MLOAD DUP1 SWAP2 SUB SWAP1 REVERT JUMPDEST PUSH0 DUP3 TIMESTAMP PUSH2 0x1BE2 SWAP2 SWAP1 PUSH2 0x5ECC JUMP JUMPDEST SWAP1 POP PUSH1 0x40 MLOAD DUP1 PUSH1 0x40 ADD PUSH1 0x40 MSTORE DUP1 DUP6 PUSH20 0xFFFFFFFFFFFFFFFFFFFFFFFFFFFFFFFFFFFFFFFF AND DUP2 MSTORE PUSH1 0x20 ADD DUP3 PUSH16 0xFFFFFFFFFFFFFFFFFFFFFFFFFFFFFFFF AND DUP2 MSTORE POP PUSH1 0x7 PUSH0 DUP8 DUP2 MSTORE PUSH1 0x20 ADD SWAP1 DUP2 MSTORE PUSH1 0x20 ADD PUSH0 KECCAK256 PUSH0 DUP3 ADD MLOAD DUP2 PUSH0 ADD PUSH0 PUSH2 0x100 EXP DUP2 SLOAD DUP2 PUSH20 0xFFFFFFFFFFFFFFFFFFFFFFFFFFFFFFFFFFFFFFFF MUL NOT AND SWAP1 DUP4 PUSH20 0xFFFFFFFFFFFFFFFFFFFFFFFFFFFFFFFFFFFFFFFF AND MUL OR SWAP1 SSTORE POP PUSH1 0x20 DUP3 ADD MLOAD DUP2 PUSH1 0x1 ADD PUSH0 PUSH2 0x100 EXP DUP2 SLOAD DUP2 PUSH16 0xFFFFFFFFFFFFFFFFFFFFFFFFFFFFFFFF MUL NOT AND SWAP1 DUP4 PUSH16 0xFFFFFFFFFFFFFFFFFFFFFFFFFFFFFFFF AND MUL OR SWAP1 SSTORE POP SWAP1 POP POP DUP4 PUSH20 0xFFFFFFFFFFFFFFFFFFFFFFFFFFFFFFFFFFFFFFFF AND DUP6 PUSH32 0xCD8520B03D334E6F2013C967DF2F3B747F950035978A9C6B756C0B6414886BBB DUP4 PUSH1 0x1 PUSH1 0x40 MLOAD PUSH2 0x1D01 SWAP3 SWAP2 SWAP1 PUSH2 0x5F1E JUMP JUMPDEST PUSH1 0x40 MLOAD DUP1 SWAP2 SUB SWAP1 LOG3 POP POP POP POP POP JUMP JUMPDEST PUSH32 0x9F2DF0FED2C77648DE5860A4CC508CD0818C85B8B8A1AB4CEEEF8D981C8956A6 PUSH2 0x1D3A DUP2 PUSH2 0x2BCB JUMP JUMPDEST PUSH2 0x3E8 DUP3 GT ISZERO PUSH2 0x1D7F JUMPI PUSH1 0x40 MLOAD PUSH32 0x8C379A000000000000000000000000000000000000000000000000000000000 DUP2 MSTORE PUSH1 0x4 ADD PUSH2 0x1D76 SWAP1 PUSH2 0x5FB5 JUMP JUMPDEST PUSH1 0x40 MLOAD DUP1 SWAP2 SUB SWAP1 REVERT JUMPDEST DUP2 PUSH1 0x2 DUP2 SWAP1 SSTORE POP POP POP JUMP JUMPDEST PUSH1 0x60 PUSH0 DUP4 SUB PUSH2 0x1DC5 JUMPI PUSH1 0x40 MLOAD PUSH32 0x63D664BC00000000000000000000000000000000000000000000000000000000 DUP2 MSTORE PUSH1 0x4 ADD PUSH1 0x40 MLOAD DUP1 SWAP2 SUB SWAP1 REVERT JUMPDEST PUSH0 PUSH1 0x2 PUSH0 DUP1 SLOAD SWAP1 POP PUSH2 0x1DD7 SWAP2 SWAP1 PUSH2 0x5FD3 JUMP JUMPDEST PUSH8 0xFFFFFFFFFFFFFFFF DUP2 GT ISZERO PUSH2 0x1DF0 JUMPI PUSH2 0x1DEF PUSH2 0x5096 JUMP JUMPDEST JUMPDEST PUSH1 0x40 MLOAD SWAP1 DUP1 DUP3 MSTORE DUP1 PUSH1 0x20 MUL PUSH1 0x20 ADD DUP3 ADD PUSH1 0x40 MSTORE DUP1 ISZERO PUSH2 0x1E1E JUMPI DUP2 PUSH1 0x20 ADD PUSH1 0x20 DUP3 MUL DUP1 CALLDATASIZE DUP4 CALLDATACOPY DUP1 DUP3 ADD SWAP2 POP POP SWAP1 POP JUMPDEST POP SWAP1 POP PUSH0 PUSH1 0x3 PUSH0 DUP6 DUP2 MSTORE PUSH1 0x20 ADD SWAP1 DUP2 MSTORE PUSH1 0x20 ADD PUSH0 KECCAK256 PUSH0 SWAP1 SLOAD SWAP1 PUSH2 0x100 EXP SWAP1 DIV PUSH1 0xFF AND PUSH2 0x1E4A JUMPI PUSH0 PUSH2 0x1E4E JUMP JUMPDEST PUSH1 0x2 SLOAD JUMPDEST SWAP1 POP PUSH0 PUSH0 SWAP1 POP PUSH0 JUMPDEST PUSH0 DUP1 SLOAD SWAP1 POP DUP2 LT ISZERO PUSH2 0x1F1A JUMPI PUSH0 PUSH0 DUP5 GT ISZERO PUSH2 0x1EB5 JUMPI PUSH2 0x2710 DUP1 DUP6 PUSH1 0x1 DUP6 DUP2 SLOAD DUP2 LT PUSH2 0x1E84 JUMPI PUSH2 0x1E83 PUSH2 0x5949 JUMP JUMPDEST JUMPDEST SWAP1 PUSH0 MSTORE PUSH1 0x20 PUSH0 KECCAK256 ADD SLOAD MUL DUP2 PUSH2 0x1E9C JUMPI PUSH2 0x1E9B PUSH2 0x599D JUMP JUMPDEST JUMPDEST DIV DUP10 MUL DUP2 PUSH2 0x1EAD JUMPI PUSH2 0x1EAC PUSH2 0x599D JUMP JUMPDEST JUMPDEST DIV SWAP1 POP PUSH2 0x1EE9 JUMP JUMPDEST PUSH2 0x2710 PUSH1 0x1 DUP4 DUP2 SLOAD DUP2 LT PUSH2 0x1ECC JUMPI PUSH2 0x1ECB PUSH2 0x5949 JUMP JUMPDEST JUMPDEST SWAP1 PUSH0 MSTORE PUSH1 0x20 PUSH0 KECCAK256 ADD SLOAD DUP10 MUL DUP2 PUSH2 0x1EE5 JUMPI PUSH2 0x1EE4 PUSH2 0x599D JUMP JUMPDEST JUMPDEST DIV SWAP1 POP JUMPDEST DUP1 DUP4 ADD SWAP3 POP DUP1 DUP6 DUP4 DUP2 MLOAD DUP2 LT PUSH2 0x1F02 JUMPI PUSH2 0x1F01 PUSH2 0x5949 JUMP JUMPDEST JUMPDEST PUSH1 0x20 MUL PUSH1 0x20 ADD ADD DUP2 DUP2 MSTORE POP POP POP DUP1 PUSH1 0x1 ADD SWAP1 POP PUSH2 0x1E56 JUMP JUMPDEST POP DUP1 DUP4 PUSH0 DUP1 SLOAD SWAP1 POP DUP2 MLOAD DUP2 LT PUSH2 0x1F33 JUMPI PUSH2 0x1F32 PUSH2 0x5949 JUMP JUMPDEST JUMPDEST PUSH1 0x20 MUL PUSH1 0x20 ADD ADD DUP2 DUP2 MSTORE POP POP DUP2 DUP4 PUSH1 0x1 PUSH0 DUP1 SLOAD SWAP1 POP PUSH2 0x1F52 SWAP2 SWAP1 PUSH2 0x5FD3 JUMP JUMPDEST DUP2 MLOAD DUP2 LT PUSH2 0x1F63 JUMPI PUSH2 0x1F62 PUSH2 0x5949 JUMP JUMPDEST JUMPDEST PUSH1 0x20 MUL PUSH1 0x20 ADD ADD DUP2 DUP2 MSTORE POP POP DUP3 SWAP4 POP POP POP POP SWAP3 SWAP2 POP POP JUMP JUMPDEST PUSH0 PUSH1 0x2 SLOAD SWAP1 POP SWAP1 JUMP JUMPDEST PUSH0 PUSH0 PUSH2 0x1F8E PUSH2 0x2BA4 JUMP JUMPDEST SWAP1 POP DUP1 PUSH0 ADD PUSH0 DUP6 DUP2 MSTORE PUSH1 0x20 ADD SWAP1 DUP2 MSTORE PUSH1 0x20 ADD PUSH0 KECCAK256 PUSH0 ADD PUSH0 DUP5 PUSH20 0xFFFFFFFFFFFFFFFFFFFFFFFFFFFFFFFFFFFFFFFF AND PUSH20 0xFFFFFFFFFFFFFFFFFFFFFFFFFFFFFFFFFFFFFFFF AND DUP2 MSTORE PUSH1 0x20 ADD SWAP1 DUP2 MSTORE PUSH1 0x20 ADD PUSH0 KECCAK256 PUSH0 SWAP1 SLOAD SWAP1 PUSH2 0x100 EXP SWAP1 DIV PUSH1 0xFF AND SWAP2 POP POP SWAP3 SWAP2 POP POP JUMP JUMPDEST PUSH1 0x60 PUSH0 PUSH2 0x2000 PUSH2 0x2A1B JUMP JUMPDEST SWAP1 POP DUP1 PUSH1 0x1 ADD DUP1 SLOAD PUSH2 0x2011 SWAP1 PUSH2 0x58BD JUMP JUMPDEST DUP1 PUSH1 0x1F ADD PUSH1 0x20 DUP1 SWAP2 DIV MUL PUSH1 0x20 ADD PUSH1 0x40 MLOAD SWAP1 DUP2 ADD PUSH1 0x40 MSTORE DUP1 SWAP3 SWAP2 SWAP1 DUP2 DUP2 MSTORE PUSH1 0x20 ADD DUP3 DUP1 SLOAD PUSH2 0x203D SWAP1 PUSH2 0x58BD JUMP JUMPDEST DUP1 ISZERO PUSH2 0x2088 JUMPI DUP1 PUSH1 0x1F LT PUSH2 0x205F JUMPI PUSH2 0x100 DUP1 DUP4 SLOAD DIV MUL DUP4 MSTORE SWAP2 PUSH1 0x20 ADD SWAP2 PUSH2 0x2088 JUMP JUMPDEST DUP3 ADD SWAP2 SWAP1 PUSH0 MSTORE PUSH1 0x20 PUSH0 KECCAK256 SWAP1 JUMPDEST DUP2 SLOAD DUP2 MSTORE SWAP1 PUSH1 0x1 ADD SWAP1 PUSH1 0x20 ADD DUP1 DUP4 GT PUSH2 0x206B JUMPI DUP3 SWAP1 SUB PUSH1 0x1F AND DUP3 ADD SWAP2 JUMPDEST POP POP POP POP POP SWAP2 POP POP SWAP1 JUMP JUMPDEST CALLER PUSH20 0xFFFFFFFFFFFFFFFFFFFFFFFFFFFFFFFFFFFFFFFF AND PUSH1 0x7 PUSH0 DUP4 DUP2 MSTORE PUSH1 0x20 ADD SWAP1 DUP2 MSTORE PUSH1 0x20 ADD PUSH0 KECCAK256 PUSH0 ADD PUSH0 SWAP1 SLOAD SWAP1 PUSH2 0x100 EXP SWAP1 DIV PUSH20 0xFFFFFFFFFFFFFFFFFFFFFFFFFFFFFFFFFFFFFFFF AND PUSH20 0xFFFFFFFFFFFFFFFFFFFFFFFFFFFFFFFFFFFFFFFF AND EQ DUP1 PUSH2 0x2132 JUMPI POP CALLER PUSH20 0xFFFFFFFFFFFFFFFFFFFFFFFFFFFFFFFFFFFFFFFF AND PUSH2 0x211A DUP3 PUSH2 0x1970 JUMP JUMPDEST PUSH20 0xFFFFFFFFFFFFFFFFFFFFFFFFFFFFFFFFFFFFFFFF AND EQ JUMPDEST PUSH2 0x2171 JUMPI PUSH1 0x40 MLOAD PUSH32 0x8C379A000000000000000000000000000000000000000000000000000000000 DUP2 MSTORE PUSH1 0x4 ADD PUSH2 0x2168 SWAP1 PUSH2 0x6076 JUMP JUMPDEST PUSH1 0x40 MLOAD DUP1 SWAP2 SUB SWAP1 REVERT JUMPDEST PUSH0 PUSH20 0xFFFFFFFFFFFFFFFFFFFFFFFFFFFFFFFFFFFFFFFF AND PUSH1 0x7 PUSH0 DUP4 DUP2 MSTORE PUSH1 0x20 ADD SWAP1 DUP2 MSTORE PUSH1 0x20 ADD PUSH0 KECCAK256 PUSH0 ADD PUSH0 SWAP1 SLOAD SWAP1 PUSH2 0x100 EXP SWAP1 DIV PUSH20 0xFFFFFFFFFFFFFFFFFFFFFFFFFFFFFFFFFFFFFFFF AND PUSH20 0xFFFFFFFFFFFFFFFFFFFFFFFFFFFFFFFFFFFFFFFF AND SUB PUSH2 0x2211 JUMPI PUSH1 0x40 MLOAD PUSH32 0x8C379A000000000000000000000000000000000000000000000000000000000 DUP2 MSTORE PUSH1 0x4 ADD PUSH2 0x2208 SWAP1 PUSH2 0x60DE JUMP JUMPDEST PUSH1 0x40 MLOAD DUP1 SWAP2 SUB SWAP1 REVERT JUMPDEST PUSH0 PUSH1 0x7 PUSH0 DUP4 DUP2 MSTORE PUSH1 0x20 ADD SWAP1 DUP2 MSTORE PUSH1 0x20 ADD PUSH0 KECCAK256 PUSH0 ADD PUSH0 SWAP1 SLOAD SWAP1 PUSH2 0x100 EXP SWAP1 DIV PUSH20 0xFFFFFFFFFFFFFFFFFFFFFFFFFFFFFFFFFFFFFFFF AND SWAP1 POP PUSH1 0x7 PUSH0 DUP4 DUP2 MSTORE PUSH1 0x20 ADD SWAP1 DUP2 MSTORE PUSH1 0x20 ADD PUSH0 KECCAK256 PUSH0 PUSH0 DUP3 ADD PUSH0 PUSH2 0x100 EXP DUP2 SLOAD SWAP1 PUSH20 0xFFFFFFFFFFFFFFFFFFFFFFFFFFFFFFFFFFFFFFFF MUL NOT AND SWAP1 SSTORE PUSH1 0x1 DUP3 ADD PUSH0 PUSH2 0x100 EXP DUP2 SLOAD SWAP1 PUSH16 0xFFFFFFFFFFFFFFFFFFFFFFFFFFFFFFFF MUL NOT AND SWAP1 SSTORE POP POP DUP1 PUSH20 0xFFFFFFFFFFFFFFFFFFFFFFFFFFFFFFFFFFFFFFFF AND DUP3 PUSH32 0xF9BBD47D9659083AA5B016FFD346ACA413549AACE523513F610200AEED1E1DD4 PUSH1 0x40 MLOAD PUSH1 0x40 MLOAD DUP1 SWAP2 SUB SWAP1 LOG3 POP POP JUMP JUMPDEST PUSH0 PUSH0 SHL DUP2 JUMP JUMPDEST PUSH2 0x2302 PUSH2 0x22FB PUSH2 0x2B0F JUMP JUMPDEST DUP4 DUP4 PUSH2 0x32CF JUMP JUMPDEST POP POP JUMP JUMPDEST PUSH1 0x60 PUSH1 0x1 DUP1 SLOAD DUP1 PUSH1 0x20 MUL PUSH1 0x20 ADD PUSH1 0x40 MLOAD SWAP1 DUP2 ADD PUSH1 0x40 MSTORE DUP1 SWAP3 SWAP2 SWAP1 DUP2 DUP2 MSTORE PUSH1 0x20 ADD DUP3 DUP1 SLOAD DUP1 ISZERO PUSH2 0x2352 JUMPI PUSH1 0x20 MUL DUP3 ADD SWAP2 SWAP1 PUSH0 MSTORE PUSH1 0x20 PUSH0 KECCAK256 SWAP1 JUMPDEST DUP2 SLOAD DUP2 MSTORE PUSH1 0x20 ADD SWAP1 PUSH1 0x1 ADD SWAP1 DUP1 DUP4 GT PUSH2 0x233E JUMPI JUMPDEST POP POP POP POP POP SWAP1 POP SWAP1 JUMP JUMPDEST PUSH0 PUSH0 PUSH1 0x7 PUSH0 DUP5 DUP2 MSTORE PUSH1 0x20 ADD SWAP1 DUP2 MSTORE PUSH1 0x20 ADD PUSH0 KECCAK256 SWAP1 POP PUSH0 PUSH20 0xFFFFFFFFFFFFFFFFFFFFFFFFFFFFFFFFFFFFFFFF AND DUP2 PUSH0 ADD PUSH0 SWAP1 SLOAD SWAP1 PUSH2 0x100 EXP SWAP1 DIV PUSH20 0xFFFFFFFFFFFFFFFFFFFFFFFFFFFFFFFFFFFFFFFF AND PUSH20 0xFFFFFFFFFFFFFFFFFFFFFFFFFFFFFFFFFFFFFFFF AND EQ ISZERO DUP1 ISZERO PUSH2 0x2411 JUMPI POP TIMESTAMP PUSH16 0xFFFFFFFFFFFFFFFFFFFFFFFFFFFFFFFF AND DUP2 PUSH1 0x1 ADD PUSH0 SWAP1 SLOAD SWAP1 PUSH2 0x100 EXP SWAP1 DIV PUSH16 0xFFFFFFFFFFFFFFFFFFFFFFFFFFFFFFFF AND PUSH16 0xFFFFFFFFFFFFFFFFFFFFFFFFFFFFFFFF AND GT JUMPDEST SWAP2 POP POP SWAP2 SWAP1 POP JUMP JUMPDEST PUSH1 0x40 MLOAD DUP1 PUSH1 0x40 ADD PUSH1 0x40 MSTORE DUP1 PUSH1 0x5 DUP2 MSTORE PUSH1 0x20 ADD PUSH32 0x352E302E30000000000000000000000000000000000000000000000000000000 DUP2 MSTORE POP DUP2 JUMP JUMPDEST PUSH2 0x245D DUP5 DUP5 DUP5 PUSH2 0xD16 JUMP JUMPDEST PUSH2 0x2471 PUSH2 0x2468 PUSH2 0x2B0F JUMP JUMPDEST DUP6 DUP6 DUP6 DUP6 PUSH2 0x3446 JUMP JUMPDEST POP POP POP POP JUMP JUMPDEST PUSH1 0x60 PUSH2 0x2482 DUP3 PUSH2 0x35F2 JUMP JUMPDEST SWAP1 POP SWAP2 SWAP1 POP JUMP JUMPDEST PUSH0 PUSH1 0x6 PUSH0 SWAP1 SLOAD SWAP1 PUSH2 0x100 EXP SWAP1 DIV PUSH20 0xFFFFFFFFFFFFFFFFFFFFFFFFFFFFFFFFFFFFFFFF AND SWAP1 POP SWAP1 JUMP JUMPDEST PUSH32 0x9F2DF0FED2C77648DE5860A4CC508CD0818C85B8B8A1AB4CEEEF8D981C8956A6 DUP2 JUMP JUMPDEST PUSH2 0x24DE DUP3 PUSH2 0xE15 JUMP JUMPDEST PUSH2 0x24E7 DUP2 PUSH2 0x2BCB JUMP JUMPDEST PUSH2 0x24F1 DUP4 DUP4 PUSH2 0x2CD7 JUMP JUMPDEST POP POP POP POP JUMP JUMPDEST PUSH0 PUSH1 0x4 PUSH0 DUP4 DUP2 MSTORE PUSH1 0x20 ADD SWAP1 DUP2 MSTORE PUSH1 0x20 ADD PUSH0 KECCAK256 SWAP1 POP PUSH0 DUP2 PUSH1 0x2 ADD SLOAD SUB PUSH2 0x2548 JUMPI PUSH1 0x40 MLOAD PUSH32 0xDFBFC4C00000000000000000000000000000000000000000000000000000000 DUP2 MSTORE PUSH1 0x4 ADD PUSH1 0x40 MLOAD DUP1 SWAP2 SUB SWAP1 REVERT JUMPDEST PUSH0 PUSH2 0x2552 DUP4 PUSH2 0x1970 JUMP JUMPDEST SWAP1 POP PUSH0 PUSH20 0xFFFFFFFFFFFFFFFFFFFFFFFFFFFFFFFFFFFFFFFF AND DUP2 PUSH20 0xFFFFFFFFFFFFFFFFFFFFFFFFFFFFFFFFFFFFFFFF AND SUB PUSH2 0x25B9 JUMPI PUSH1 0x40 MLOAD PUSH32 0xDFBFC4C00000000000000000000000000000000000000000000000000000000 DUP2 MSTORE PUSH1 0x4 ADD PUSH1 0x40 MLOAD DUP1 SWAP2 SUB SWAP1 REVERT JUMPDEST PUSH1 0x6 PUSH0 SWAP1 SLOAD SWAP1 PUSH2 0x100 EXP SWAP1 DIV PUSH20 0xFFFFFFFFFFFFFFFFFFFFFFFFFFFFFFFFFFFFFFFF AND PUSH20 0xFFFFFFFFFFFFFFFFFFFFFFFFFFFFFFFFFFFFFFFF AND PUSH4 0x23B872DD CALLER ADDRESS DUP6 PUSH1 0x2 ADD SLOAD PUSH1 0x40 MLOAD DUP5 PUSH4 0xFFFFFFFF AND PUSH1 0xE0 SHL DUP2 MSTORE PUSH1 0x4 ADD PUSH2 0x261B SWAP4 SWAP3 SWAP2 SWAP1 PUSH2 0x59FF JUMP JUMPDEST PUSH1 0x20 PUSH1 0x40 MLOAD DUP1 DUP4 SUB DUP2 PUSH0 DUP8 GAS CALL ISZERO DUP1 ISZERO PUSH2 0x2637 JUMPI RETURNDATASIZE PUSH0 PUSH0 RETURNDATACOPY RETURNDATASIZE PUSH0 REVERT JUMPDEST POP POP POP POP PUSH1 0x40 MLOAD RETURNDATASIZE PUSH1 0x1F NOT PUSH1 0x1F DUP3 ADD AND DUP3 ADD DUP1 PUSH1 0x40 MSTORE POP DUP2 ADD SWAP1 PUSH2 0x265B SWAP2 SWAP1 PUSH2 0x5A48 JUMP JUMPDEST PUSH2 0x2691 JUMPI PUSH1 0x40 MLOAD PUSH32 0x90B8EC1800000000000000000000000000000000000000000000000000000000 DUP2 MSTORE PUSH1 0x4 ADD PUSH1 0x40 MLOAD DUP1 SWAP2 SUB SWAP1 REVERT JUMPDEST PUSH0 PUSH2 0x26A0 DUP4 PUSH1 0x2 ADD SLOAD DUP6 PUSH2 0x103C JUMP JUMPDEST SWAP1 POP DUP1 DUP4 PUSH1 0x2 ADD SLOAD GT ISZERO PUSH2 0x2790 JUMPI PUSH1 0x6 PUSH0 SWAP1 SLOAD SWAP1 PUSH2 0x100 EXP SWAP1 DIV PUSH20 0xFFFFFFFFFFFFFFFFFFFFFFFFFFFFFFFFFFFFFFFF AND PUSH20 0xFFFFFFFFFFFFFFFFFFFFFFFFFFFFFFFFFFFFFFFF AND PUSH4 0xA9059CBB DUP4 DUP4 DUP7 PUSH1 0x2 ADD SLOAD PUSH2 0x26FC SWAP2 SWAP1 PUSH2 0x60FC JUMP JUMPDEST PUSH1 0x40 MLOAD DUP4 PUSH4 0xFFFFFFFF AND PUSH1 0xE0 SHL DUP2 MSTORE PUSH1 0x4 ADD PUSH2 0x2719 SWAP3 SWAP2 SWAP1 PUSH2 0x5922 JUMP JUMPDEST PUSH1 0x20 PUSH1 0x40 MLOAD DUP1 DUP4 SUB DUP2 PUSH0 DUP8 GAS CALL ISZERO DUP1 ISZERO PUSH2 0x2735 JUMPI RETURNDATASIZE PUSH0 PUSH0 RETURNDATACOPY RETURNDATASIZE PUSH0 REVERT JUMPDEST POP POP POP POP PUSH1 0x40 MLOAD RETURNDATASIZE PUSH1 0x1F NOT PUSH1 0x1F DUP3 ADD AND DUP3 ADD DUP1 PUSH1 0x40 MSTORE POP DUP2 ADD SWAP1 PUSH2 0x2759 SWAP2 SWAP1 PUSH2 0x5A48 JUMP JUMPDEST PUSH2 0x278F JUMPI PUSH1 0x40 MLOAD PUSH32 0x90B8EC1800000000000000000000000000000000000000000000000000000000 DUP2 MSTORE PUSH1 0x4 ADD PUSH1 0x40 MLOAD DUP1 SWAP2 SUB SWAP1 REVERT JUMPDEST JUMPDEST PUSH2 0x279B DUP3 CALLER DUP7 PUSH2 0x370C JUMP JUMPDEST CALLER DUP4 PUSH1 0x3 ADD PUSH0 PUSH2 0x100 EXP DUP2 SLOAD DUP2 PUSH20 0xFFFFFFFFFFFFFFFFFFFFFFFFFFFFFFFFFFFFFFFF MUL NOT AND SWAP1 DUP4 PUSH20 0xFFFFFFFFFFFFFFFFFFFFFFFFFFFFFFFFFFFFFFFF AND MUL OR SWAP1 SSTORE POP PUSH1 0x1 PUSH1 0x3 PUSH0 DUP7 DUP2 MSTORE PUSH1 0x20 ADD SWAP1 DUP2 MSTORE PUSH1 0x20 ADD PUSH0 KECCAK256 PUSH0 PUSH2 0x100 EXP DUP2 SLOAD DUP2 PUSH1 0xFF MUL NOT AND SWAP1 DUP4 ISZERO ISZERO MUL OR SWAP1 SSTORE POP CALLER PUSH20 0xFFFFFFFFFFFFFFFFFFFFFFFFFFFFFFFFFFFFFFFF AND DUP5 PUSH32 0xC54C8CC1C7525B424EC71B685C00D9355581A280488018C22005332CEB2FD406 PUSH1 0x40 MLOAD PUSH1 0x40 MLOAD DUP1 SWAP2 SUB SWAP1 LOG3 POP POP POP POP JUMP JUMPDEST PUSH0 PUSH1 0x5 SLOAD SWAP1 POP SWAP1 JUMP JUMPDEST PUSH0 PUSH1 0x4 PUSH0 DUP4 DUP2 MSTORE PUSH1 0x20 ADD SWAP1 DUP2 MSTORE PUSH1 0x20 ADD PUSH0 KECCAK256 PUSH1 0x2 ADD SLOAD SWAP1 POP SWAP2 SWAP1 POP JUMP JUMPDEST PUSH0 PUSH0 PUSH2 0x2880 PUSH2 0x2A1B JUMP JUMPDEST SWAP1 POP DUP1 PUSH1 0x5 ADD PUSH0 DUP6 PUSH20 0xFFFFFFFFFFFFFFFFFFFFFFFFFFFFFFFFFFFFFFFF AND PUSH20 0xFFFFFFFFFFFFFFFFFFFFFFFFFFFFFFFFFFFFFFFF AND DUP2 MSTORE PUSH1 0x20 ADD SWAP1 DUP2 MSTORE PUSH1 0x20 ADD PUSH0 KECCAK256 PUSH0 DUP5 PUSH20 0xFFFFFFFFFFFFFFFFFFFFFFFFFFFFFFFFFFFFFFFF AND PUSH20 0xFFFFFFFFFFFFFFFFFFFFFFFFFFFFFFFFFFFFFFFF AND DUP2 MSTORE PUSH1 0x20 ADD SWAP1 DUP2 MSTORE PUSH1 0x20 ADD PUSH0 KECCAK256 PUSH0 SWAP1 SLOAD SWAP1 PUSH2 0x100 EXP SWAP1 DIV PUSH1 0xFF AND SWAP2 POP POP SWAP3 SWAP2 POP POP JUMP JUMPDEST PUSH32 0x4824FCB60E7CC526D70B264CAA65B62ED44D9C8E5D230E8FF6B0C7373843B8A DUP2 JUMP JUMPDEST PUSH32 0x189AB7A9244DF0848122154315AF71FE140F3DB0FE014031783B0946B8C9D2E3 DUP2 JUMP JUMPDEST PUSH32 0x4824FCB60E7CC526D70B264CAA65B62ED44D9C8E5D230E8FF6B0C7373843B8A PUSH2 0x2984 DUP2 PUSH2 0x2BCB JUMP JUMPDEST DUP2 PUSH1 0x4 PUSH0 DUP6 DUP2 MSTORE PUSH1 0x20 ADD SWAP1 DUP2 MSTORE PUSH1 0x20 ADD PUSH0 KECCAK256 PUSH1 0x2 ADD DUP2 SWAP1 SSTORE POP POP POP POP JUMP JUMPDEST PUSH0 PUSH32 0x7965DB0B00000000000000000000000000000000000000000000000000000000 PUSH28 0xFFFFFFFFFFFFFFFFFFFFFFFFFFFFFFFFFFFFFFFFFFFFFFFFFFFFFFFF NOT AND DUP3 PUSH28 0xFFFFFFFFFFFFFFFFFFFFFFFFFFFFFFFFFFFFFFFFFFFFFFFFFFFFFFFF NOT AND EQ DUP1 PUSH2 0x2A14 JUMPI POP PUSH2 0x2A13 DUP3 PUSH2 0x3874 JUMP JUMPDEST JUMPDEST SWAP1 POP SWAP2 SWAP1 POP JUMP JUMPDEST PUSH0 PUSH32 0x80BB2B638CC20BC4D0A60D66940F3AB4A00C1D7B313497CA82FB0B4AB0079300 SWAP1 POP SWAP1 JUMP JUMPDEST PUSH0 PUSH0 PUSH2 0x2A4D DUP4 PUSH2 0x38ED JUMP JUMPDEST SWAP1 POP PUSH0 PUSH20 0xFFFFFFFFFFFFFFFFFFFFFFFFFFFFFFFFFFFFFFFF AND DUP2 PUSH20 0xFFFFFFFFFFFFFFFFFFFFFFFFFFFFFFFFFFFFFFFF AND SUB PUSH2 0x2ABF JUMPI DUP3 PUSH1 0x40 MLOAD PUSH32 0x7E27328900000000000000000000000000000000000000000000000000000000 DUP2 MSTORE PUSH1 0x4 ADD PUSH2 0x2AB6 SWAP2 SWAP1 PUSH2 0x4E4C JUMP JUMPDEST PUSH1 0x40 MLOAD DUP1 SWAP2 SUB SWAP1 REVERT JUMPDEST DUP1 SWAP2 POP POP SWAP2 SWAP1 POP JUMP JUMPDEST PUSH0 PUSH0 PUSH2 0x2AD2 PUSH2 0x2A1B JUMP JUMPDEST SWAP1 POP DUP1 PUSH1 0x4 ADD PUSH0 DUP5 DUP2 MSTORE PUSH1 0x20 ADD SWAP1 DUP2 MSTORE PUSH1 0x20 ADD PUSH0 KECCAK256 PUSH0 SWAP1 SLOAD SWAP1 PUSH2 0x100 EXP SWAP1 DIV PUSH20 0xFFFFFFFFFFFFFFFFFFFFFFFFFFFFFFFFFFFFFFFF AND SWAP2 POP POP SWAP2 SWAP1 POP JUMP JUMPDEST PUSH0 CALLER SWAP1 POP SWAP1 JUMP JUMPDEST PUSH2 0x2B23 DUP4 DUP4 DUP4 PUSH1 0x1 PUSH2 0x3934 JUMP JUMPDEST POP POP POP JUMP JUMPDEST PUSH0 PUSH32 0x645E039705490088DAAD89BAE25049A34F4A9072D398537B1AB2425F24CBED00 SWAP1 POP SWAP1 JUMP JUMPDEST PUSH0 PUSH2 0x2B59 DUP4 PUSH2 0x235C JUMP JUMPDEST ISZERO PUSH2 0x2B90 JUMPI PUSH1 0x40 MLOAD PUSH32 0x977590BD00000000000000000000000000000000000000000000000000000000 DUP2 MSTORE PUSH1 0x4 ADD PUSH1 0x40 MLOAD DUP1 SWAP2 SUB SWAP1 REVERT JUMPDEST PUSH2 0x2B9B DUP5 DUP5 DUP5 PUSH2 0x3B01 JUMP JUMPDEST SWAP1 POP SWAP4 SWAP3 POP POP POP JUMP JUMPDEST PUSH0 PUSH32 0x2DD7BC7DEC4DCEEDDA775E58DD541E08A116C6C53815C0BD028192F7B626800 SWAP1 POP SWAP1 JUMP JUMPDEST PUSH2 0x2BDC DUP2 PUSH2 0x2BD7 PUSH2 0x2B0F JUMP JUMPDEST PUSH2 0x3C1B JUMP JUMPDEST POP JUMP JUMPDEST PUSH0 PUSH0 PUSH2 0x2BE9 PUSH2 0x2BA4 JUMP JUMPDEST SWAP1 POP PUSH2 0x2BF5 DUP5 DUP5 PUSH2 0x1F84 JUMP JUMPDEST PUSH2 0x2CCC JUMPI PUSH1 0x1 DUP2 PUSH0 ADD PUSH0 DUP7 DUP2 MSTORE PUSH1 0x20 ADD SWAP1 DUP2 MSTORE PUSH1 0x20 ADD PUSH0 KECCAK256 PUSH0 ADD PUSH0 DUP6 PUSH20 0xFFFFFFFFFFFFFFFFFFFFFFFFFFFFFFFFFFFFFFFF AND PUSH20 0xFFFFFFFFFFFFFFFFFFFFFFFFFFFFFFFFFFFFFFFF AND DUP2 MSTORE PUSH1 0x20 ADD SWAP1 DUP2 MSTORE PUSH1 0x20 ADD PUSH0 KECCAK256 PUSH0 PUSH2 0x100 EXP DUP2 SLOAD DUP2 PUSH1 0xFF MUL NOT AND SWAP1 DUP4 ISZERO ISZERO MUL OR SWAP1 SSTORE POP PUSH2 0x2C68 PUSH2 0x2B0F JUMP JUMPDEST PUSH20 0xFFFFFFFFFFFFFFFFFFFFFFFFFFFFFFFFFFFFFFFF AND DUP4 PUSH20 0xFFFFFFFFFFFFFFFFFFFFFFFFFFFFFFFFFFFFFFFF AND DUP6 PUSH32 0x2F8788117E7EFF1D82E926EC794901D17C78024A50270940304540A733656F0D PUSH1 0x40 MLOAD PUSH1 0x40 MLOAD DUP1 SWAP2 SUB SWAP1 LOG4 PUSH1 0x1 SWAP2 POP POP PUSH2 0x2CD1 JUMP JUMPDEST PUSH0 SWAP2 POP POP JUMPDEST SWAP3 SWAP2 POP POP JUMP JUMPDEST PUSH0 PUSH0 PUSH2 0x2CE1 PUSH2 0x2BA4 JUMP JUMPDEST SWAP1 POP PUSH2 0x2CED DUP5 DUP5 PUSH2 0x1F84 JUMP JUMPDEST ISZERO PUSH2 0x2DC4 JUMPI PUSH0 DUP2 PUSH0 ADD PUSH0 DUP7 DUP2 MSTORE PUSH1 0x20 ADD SWAP1 DUP2 MSTORE PUSH1 0x20 ADD PUSH0 KECCAK256 PUSH0 ADD PUSH0 DUP6 PUSH20 0xFFFFFFFFFFFFFFFFFFFFFFFFFFFFFFFFFFFFFFFF AND PUSH20 0xFFFFFFFFFFFFFFFFFFFFFFFFFFFFFFFFFFFFFFFF AND DUP2 MSTORE PUSH1 0x20 ADD SWAP1 DUP2 MSTORE PUSH1 0x20 ADD PUSH0 KECCAK256 PUSH0 PUSH2 0x100 EXP DUP2 SLOAD DUP2 PUSH1 0xFF MUL NOT AND SWAP1 DUP4 ISZERO ISZERO MUL OR SWAP1 SSTORE POP PUSH2 0x2D60 PUSH2 0x2B0F JUMP JUMPDEST PUSH20 0xFFFFFFFFFFFFFFFFFFFFFFFFFFFFFFFFFFFFFFFF AND DUP4 PUSH20 0xFFFFFFFFFFFFFFFFFFFFFFFFFFFFFFFFFFFFFFFF AND DUP6 PUSH32 0xF6391F5C32D9C69D2A47EA670B442974B53935D1EDC7FD64EB21E047A839171B PUSH1 0x40 MLOAD PUSH1 0x40 MLOAD DUP1 SWAP2 SUB SWAP1 LOG4 PUSH1 0x1 SWAP2 POP POP PUSH2 0x2DC9 JUMP JUMPDEST PUSH0 SWAP2 POP POP JUMPDEST SWAP3 SWAP2 POP POP JUMP JUMPDEST PUSH0 PUSH20 0xFFFFFFFFFFFFFFFFFFFFFFFFFFFFFFFFFFFFFFFF AND DUP3 PUSH20 0xFFFFFFFFFFFFFFFFFFFFFFFFFFFFFFFFFFFFFFFF AND SUB PUSH2 0x2E3F JUMPI PUSH0 PUSH1 0x40 MLOAD PUSH32 0x64A0AE9200000000000000000000000000000000000000000000000000000000 DUP2 MSTORE PUSH1 0x4 ADD PUSH2 0x2E36 SWAP2 SWAP1 PUSH2 0x4DBC JUMP JUMPDEST PUSH1 0x40 MLOAD DUP1 SWAP2 SUB SWAP1 REVERT JUMPDEST PUSH0 PUSH2 0x2E4B DUP4 DUP4 PUSH0 PUSH2 0x2B4F JUMP JUMPDEST SWAP1 POP PUSH0 PUSH20 0xFFFFFFFFFFFFFFFFFFFFFFFFFFFFFFFFFFFFFFFF AND DUP2 PUSH20 0xFFFFFFFFFFFFFFFFFFFFFFFFFFFFFFFFFFFFFFFF AND EQ PUSH2 0x2EBD JUMPI PUSH0 PUSH1 0x40 MLOAD PUSH32 0x73C6AC6E00000000000000000000000000000000000000000000000000000000 DUP2 MSTORE PUSH1 0x4 ADD PUSH2 0x2EB4 SWAP2 SWAP1 PUSH2 0x4DBC JUMP JUMPDEST PUSH1 0x40 MLOAD DUP1 SWAP2 SUB SWAP1 REVERT JUMPDEST POP POP POP JUMP JUMPDEST PUSH0 PUSH0 PUSH0 SWAP1 POP JUMPDEST DUP4 MLOAD DUP2 LT ISZERO PUSH2 0x2F35 JUMPI DUP3 PUSH20 0xFFFFFFFFFFFFFFFFFFFFFFFFFFFFFFFFFFFFFFFF AND DUP5 DUP3 DUP2 MLOAD DUP2 LT PUSH2 0x2EFB JUMPI PUSH2 0x2EFA PUSH2 0x5949 JUMP JUMPDEST JUMPDEST PUSH1 0x20 MUL PUSH1 0x20 ADD ADD MLOAD PUSH20 0xFFFFFFFFFFFFFFFFFFFFFFFFFFFFFFFFFFFFFFFF AND SUB PUSH2 0x2F28 JUMPI PUSH1 0x1 SWAP2 POP POP PUSH2 0x2F3A JUMP JUMPDEST DUP1 DUP1 PUSH1 0x1 ADD SWAP2 POP POP PUSH2 0x2EC8 JUMP JUMPDEST POP PUSH0 SWAP1 POP JUMPDEST SWAP3 SWAP2 POP POP JUMP JUMPDEST PUSH0 PUSH32 0xF0C57E16840DF040F15088DC2F81FE391C3923BEC73E23A9662EFC9C229C6A00 SWAP1 POP SWAP1 JUMP JUMPDEST PUSH2 0x2F6F PUSH2 0x3C6C JUMP JUMPDEST PUSH2 0x2F79 DUP3 DUP3 PUSH2 0x3CAC JUMP JUMPDEST POP POP JUMP JUMPDEST PUSH2 0x2F85 PUSH2 0x3C6C JUMP JUMPDEST JUMP JUMPDEST PUSH2 0x2F8F PUSH2 0x3C6C JUMP JUMPDEST JUMP JUMPDEST PUSH2 0x2F99 PUSH2 0x3C6C JUMP JUMPDEST JUMP JUMPDEST PUSH2 0x2FA3 PUSH2 0x3C6C JUMP JUMPDEST JUMP JUMPDEST PUSH2 0x2FAD PUSH2 0x3C6C JUMP JUMPDEST JUMP JUMPDEST PUSH32 0x0 PUSH20 0xFFFFFFFFFFFFFFFFFFFFFFFFFFFFFFFFFFFFFFFF AND ADDRESS PUSH20 0xFFFFFFFFFFFFFFFFFFFFFFFFFFFFFFFFFFFFFFFF AND EQ DUP1 PUSH2 0x305C JUMPI POP PUSH32 0x0 PUSH20 0xFFFFFFFFFFFFFFFFFFFFFFFFFFFFFFFFFFFFFFFF AND PUSH2 0x3043 PUSH2 0x3CE7 JUMP JUMPDEST PUSH20 0xFFFFFFFFFFFFFFFFFFFFFFFFFFFFFFFFFFFFFFFF AND EQ ISZERO JUMPDEST ISZERO PUSH2 0x3093 JUMPI PUSH1 0x40 MLOAD PUSH32 0xE07C8DBA00000000000000000000000000000000000000000000000000000000 DUP2 MSTORE PUSH1 0x4 ADD PUSH1 0x40 MLOAD DUP1 SWAP2 SUB SWAP1 REVERT JUMPDEST JUMP JUMPDEST PUSH32 0x189AB7A9244DF0848122154315AF71FE140F3DB0FE014031783B0946B8C9D2E3 PUSH2 0x30BF DUP2 PUSH2 0x2BCB JUMP JUMPDEST POP POP JUMP JUMPDEST DUP2 PUSH20 0xFFFFFFFFFFFFFFFFFFFFFFFFFFFFFFFFFFFFFFFF AND PUSH4 0x52D1902D PUSH1 0x40 MLOAD DUP2 PUSH4 0xFFFFFFFF AND PUSH1 0xE0 SHL DUP2 MSTORE PUSH1 0x4 ADD PUSH1 0x20 PUSH1 0x40 MLOAD DUP1 DUP4 SUB DUP2 DUP7 GAS STATICCALL SWAP3 POP POP POP DUP1 ISZERO PUSH2 0x312B JUMPI POP PUSH1 0x40 MLOAD RETURNDATASIZE PUSH1 0x1F NOT PUSH1 0x1F DUP3 ADD AND DUP3 ADD DUP1 PUSH1 0x40 MSTORE POP DUP2 ADD SWAP1 PUSH2 0x3128 SWAP2 SWAP1 PUSH2 0x6143 JUMP JUMPDEST PUSH1 0x1 JUMPDEST PUSH2 0x316C JUMPI DUP2 PUSH1 0x40 MLOAD PUSH32 0x4C9C8CE300000000000000000000000000000000000000000000000000000000 DUP2 MSTORE PUSH1 0x4 ADD PUSH2 0x3163 SWAP2 SWAP1 PUSH2 0x4DBC JUMP JUMPDEST PUSH1 0x40 MLOAD DUP1 SWAP2 SUB SWAP1 REVERT JUMPDEST PUSH32 0x360894A13BA1A3210667C828492DB98DCA3E2076CC3735A920A3CA505D382BBC PUSH0 SHL DUP2 EQ PUSH2 0x31D2 JUMPI DUP1 PUSH1 0x40 MLOAD PUSH32 0xAA1D49A400000000000000000000000000000000000000000000000000000000 DUP2 MSTORE PUSH1 0x4 ADD PUSH2 0x31C9 SWAP2 SWAP1 PUSH2 0x4F22 JUMP JUMPDEST PUSH1 0x40 MLOAD DUP1 SWAP2 SUB SWAP1 REVERT JUMPDEST PUSH2 0x31DC DUP4 DUP4 PUSH2 0x3D3A JUMP JUMPDEST POP POP POP JUMP JUMPDEST PUSH32 0x0 PUSH20 0xFFFFFFFFFFFFFFFFFFFFFFFFFFFFFFFFFFFFFFFF AND ADDRESS PUSH20 0xFFFFFFFFFFFFFFFFFFFFFFFFFFFFFFFFFFFFFFFF AND EQ PUSH2 0x3266 JUMPI PUSH1 0x40 MLOAD PUSH32 0xE07C8DBA00000000000000000000000000000000000000000000000000000000 DUP2 MSTORE PUSH1 0x4 ADD PUSH1 0x40 MLOAD DUP1 SWAP2 SUB SWAP1 REVERT JUMPDEST JUMP JUMPDEST PUSH0 PUSH2 0x3271 PUSH2 0x3DAC JUMP JUMPDEST SWAP1 POP DUP2 DUP2 PUSH0 ADD PUSH0 DUP6 DUP2 MSTORE PUSH1 0x20 ADD SWAP1 DUP2 MSTORE PUSH1 0x20 ADD PUSH0 KECCAK256 SWAP1 DUP2 PUSH2 0x3292 SWAP2 SWAP1 PUSH2 0x5C87 JUMP JUMPDEST POP PUSH32 0xF8E1A15ABA9398E019F0B49DF1A4FDE98EE17AE345CB5F6B5E2C27F5033E8CE7 DUP4 PUSH1 0x40 MLOAD PUSH2 0x32C2 SWAP2 SWAP1 PUSH2 0x4E4C JUMP JUMPDEST PUSH1 0x40 MLOAD DUP1 SWAP2 SUB SWAP1 LOG1 POP POP POP JUMP JUMPDEST PUSH0 PUSH2 0x32D8 PUSH2 0x2A1B JUMP JUMPDEST SWAP1 POP PUSH0 PUSH20 0xFFFFFFFFFFFFFFFFFFFFFFFFFFFFFFFFFFFFFFFF AND DUP4 PUSH20 0xFFFFFFFFFFFFFFFFFFFFFFFFFFFFFFFFFFFFFFFF AND SUB PUSH2 0x334A JUMPI DUP3 PUSH1 0x40 MLOAD PUSH32 0x5B08BA1800000000000000000000000000000000000000000000000000000000 DUP2 MSTORE PUSH1 0x4 ADD PUSH2 0x3341 SWAP2 SWAP1 PUSH2 0x4DBC JUMP JUMPDEST PUSH1 0x40 MLOAD DUP1 SWAP2 SUB SWAP1 REVERT JUMPDEST DUP2 DUP2 PUSH1 0x5 ADD PUSH0 DUP7 PUSH20 0xFFFFFFFFFFFFFFFFFFFFFFFFFFFFFFFFFFFFFFFF AND PUSH20 0xFFFFFFFFFFFFFFFFFFFFFFFFFFFFFFFFFFFFFFFF AND DUP2 MSTORE PUSH1 0x20 ADD SWAP1 DUP2 MSTORE PUSH1 0x20 ADD PUSH0 KECCAK256 PUSH0 DUP6 PUSH20 0xFFFFFFFFFFFFFFFFFFFFFFFFFFFFFFFFFFFFFFFF AND PUSH20 0xFFFFFFFFFFFFFFFFFFFFFFFFFFFFFFFFFFFFFFFF AND DUP2 MSTORE PUSH1 0x20 ADD SWAP1 DUP2 MSTORE PUSH1 0x20 ADD PUSH0 KECCAK256 PUSH0 PUSH2 0x100 EXP DUP2 SLOAD DUP2 PUSH1 0xFF MUL NOT AND SWAP1 DUP4 ISZERO ISZERO MUL OR SWAP1 SSTORE POP DUP3 PUSH20 0xFFFFFFFFFFFFFFFFFFFFFFFFFFFFFFFFFFFFFFFF AND DUP5 PUSH20 0xFFFFFFFFFFFFFFFFFFFFFFFFFFFFFFFFFFFFFFFF AND PUSH32 0x17307EAB39AB6107E8899845AD3D59BD9653F200F220920489CA2B5937696C31 DUP5 PUSH1 0x40 MLOAD PUSH2 0x3438 SWAP2 SWAP1 PUSH2 0x4C76 JUMP JUMPDEST PUSH1 0x40 MLOAD DUP1 SWAP2 SUB SWAP1 LOG3 POP POP POP POP JUMP JUMPDEST PUSH0 DUP4 PUSH20 0xFFFFFFFFFFFFFFFFFFFFFFFFFFFFFFFFFFFFFFFF AND EXTCODESIZE GT ISZERO PUSH2 0x35EB JUMPI DUP3 PUSH20 0xFFFFFFFFFFFFFFFFFFFFFFFFFFFFFFFFFFFFFFFF AND PUSH4 0x150B7A02 DUP7 DUP7 DUP6 DUP6 PUSH1 0x40 MLOAD DUP6 PUSH4 0xFFFFFFFF AND PUSH1 0xE0 SHL DUP2 MSTORE PUSH1 0x4 ADD PUSH2 0x34A4 SWAP5 SWAP4 SWAP3 SWAP2 SWAP1 PUSH2 0x61C0 JUMP JUMPDEST PUSH1 0x20 PUSH1 0x40 MLOAD DUP1 DUP4 SUB DUP2 PUSH0 DUP8 GAS CALL SWAP3 POP POP POP DUP1 ISZERO PUSH2 0x34DF JUMPI POP PUSH1 0x40 MLOAD RETURNDATASIZE PUSH1 0x1F NOT PUSH1 0x1F DUP3 ADD AND DUP3 ADD DUP1 PUSH1 0x40 MSTORE POP DUP2 ADD SWAP1 PUSH2 0x34DC SWAP2 SWAP1 PUSH2 0x621E JUMP JUMPDEST PUSH1 0x1 JUMPDEST PUSH2 0x3560 JUMPI RETURNDATASIZE DUP1 PUSH0 DUP2 EQ PUSH2 0x350D JUMPI PUSH1 0x40 MLOAD SWAP2 POP PUSH1 0x1F NOT PUSH1 0x3F RETURNDATASIZE ADD AND DUP3 ADD PUSH1 0x40 MSTORE RETURNDATASIZE DUP3 MSTORE RETURNDATASIZE PUSH0 PUSH1 0x20 DUP5 ADD RETURNDATACOPY PUSH2 0x3512 JUMP JUMPDEST PUSH1 0x60 SWAP2 POP JUMPDEST POP PUSH0 DUP2 MLOAD SUB PUSH2 0x3558 JUMPI DUP4 PUSH1 0x40 MLOAD PUSH32 0x64A0AE9200000000000000000000000000000000000000000000000000000000 DUP2 MSTORE PUSH1 0x4 ADD PUSH2 0x354F SWAP2 SWAP1 PUSH2 0x4DBC JUMP JUMPDEST PUSH1 0x40 MLOAD DUP1 SWAP2 SUB SWAP1 REVERT JUMPDEST DUP1 MLOAD DUP2 PUSH1 0x20 ADD REVERT JUMPDEST PUSH4 0x150B7A02 PUSH1 0xE0 SHL PUSH28 0xFFFFFFFFFFFFFFFFFFFFFFFFFFFFFFFFFFFFFFFFFFFFFFFFFFFFFFFF NOT AND DUP2 PUSH28 0xFFFFFFFFFFFFFFFFFFFFFFFFFFFFFFFFFFFFFFFFFFFFFFFFFFFFFFFF NOT AND EQ PUSH2 0x35E9 JUMPI DUP4 PUSH1 0x40 MLOAD PUSH32 0x64A0AE9200000000000000000000000000000000000000000000000000000000 DUP2 MSTORE PUSH1 0x4 ADD PUSH2 0x35E0 SWAP2 SWAP1 PUSH2 0x4DBC JUMP JUMPDEST PUSH1 0x40 MLOAD DUP1 SWAP2 SUB SWAP1 REVERT JUMPDEST POP JUMPDEST POP POP POP POP POP JUMP JUMPDEST PUSH1 0x60 PUSH0 PUSH2 0x35FD PUSH2 0x3DAC JUMP JUMPDEST SWAP1 POP PUSH2 0x3608 DUP4 PUSH2 0x2A42 JUMP JUMPDEST POP PUSH0 DUP2 PUSH0 ADD PUSH0 DUP6 DUP2 MSTORE PUSH1 0x20 ADD SWAP1 DUP2 MSTORE PUSH1 0x20 ADD PUSH0 KECCAK256 DUP1 SLOAD PUSH2 0x3627 SWAP1 PUSH2 0x58BD JUMP JUMPDEST DUP1 PUSH1 0x1F ADD PUSH1 0x20 DUP1 SWAP2 DIV MUL PUSH1 0x20 ADD PUSH1 0x40 MLOAD SWAP1 DUP2 ADD PUSH1 0x40 MSTORE DUP1 SWAP3 SWAP2 SWAP1 DUP2 DUP2 MSTORE PUSH1 0x20 ADD DUP3 DUP1 SLOAD PUSH2 0x3653 SWAP1 PUSH2 0x58BD JUMP JUMPDEST DUP1 ISZERO PUSH2 0x369E JUMPI DUP1 PUSH1 0x1F LT PUSH2 0x3675 JUMPI PUSH2 0x100 DUP1 DUP4 SLOAD DIV MUL DUP4 MSTORE SWAP2 PUSH1 0x20 ADD SWAP2 PUSH2 0x369E JUMP JUMPDEST DUP3 ADD SWAP2 SWAP1 PUSH0 MSTORE PUSH1 0x20 PUSH0 KECCAK256 SWAP1 JUMPDEST DUP2 SLOAD DUP2 MSTORE SWAP1 PUSH1 0x1 ADD SWAP1 PUSH1 0x20 ADD DUP1 DUP4 GT PUSH2 0x3681 JUMPI DUP3 SWAP1 SUB PUSH1 0x1F AND DUP3 ADD SWAP2 JUMPDEST POP POP POP POP POP SWAP1 POP PUSH0 PUSH2 0x36AE PUSH2 0x3DD3 JUMP JUMPDEST SWAP1 POP PUSH0 DUP2 MLOAD SUB PUSH2 0x36C3 JUMPI DUP2 SWAP4 POP POP POP POP PUSH2 0x3707 JUMP JUMPDEST PUSH0 DUP3 MLOAD GT ISZERO PUSH2 0x36F8 JUMPI DUP1 DUP3 PUSH1 0x40 MLOAD PUSH1 0x20 ADD PUSH2 0x36DF SWAP3 SWAP2 SWAP1 PUSH2 0x6283 JUMP JUMPDEST PUSH1 0x40 MLOAD PUSH1 0x20 DUP2 DUP4 SUB SUB DUP2 MSTORE SWAP1 PUSH1 0x40 MSTORE SWAP4 POP POP POP POP PUSH2 0x3707 JUMP JUMPDEST PUSH2 0x3701 DUP6 PUSH2 0x3DE9 JUMP JUMPDEST SWAP4 POP POP POP POP JUMPDEST SWAP2 SWAP1 POP JUMP JUMPDEST PUSH0 PUSH20 0xFFFFFFFFFFFFFFFFFFFFFFFFFFFFFFFFFFFFFFFF AND DUP3 PUSH20 0xFFFFFFFFFFFFFFFFFFFFFFFFFFFFFFFFFFFFFFFF AND SUB PUSH2 0x377C JUMPI PUSH0 PUSH1 0x40 MLOAD PUSH32 0x64A0AE9200000000000000000000000000000000000000000000000000000000 DUP2 MSTORE PUSH1 0x4 ADD PUSH2 0x3773 SWAP2 SWAP1 PUSH2 0x4DBC JUMP JUMPDEST PUSH1 0x40 MLOAD DUP1 SWAP2 SUB SWAP1 REVERT JUMPDEST PUSH0 PUSH2 0x3788 DUP4 DUP4 PUSH0 PUSH2 0x2B4F JUMP JUMPDEST SWAP1 POP PUSH0 PUSH20 0xFFFFFFFFFFFFFFFFFFFFFFFFFFFFFFFFFFFFFFFF AND DUP2 PUSH20 0xFFFFFFFFFFFFFFFFFFFFFFFFFFFFFFFFFFFFFFFF AND SUB PUSH2 0x37FA JUMPI DUP2 PUSH1 0x40 MLOAD PUSH32 0x7E27328900000000000000000000000000000000000000000000000000000000 DUP2 MSTORE PUSH1 0x4 ADD PUSH2 0x37F1 SWAP2 SWAP1 PUSH2 0x4E4C JUMP JUMPDEST PUSH1 0x40 MLOAD DUP1 SWAP2 SUB SWAP1 REVERT JUMPDEST DUP4 PUSH20 0xFFFFFFFFFFFFFFFFFFFFFFFFFFFFFFFFFFFFFFFF AND DUP2 PUSH20 0xFFFFFFFFFFFFFFFFFFFFFFFFFFFFFFFFFFFFFFFF AND EQ PUSH2 0x386E JUMPI DUP4 DUP3 DUP3 PUSH1 0x40 MLOAD PUSH32 0x64283D7B00000000000000000000000000000000000000000000000000000000 DUP2 MSTORE PUSH1 0x4 ADD PUSH2 0x3865 SWAP4 SWAP3 SWAP2 SWAP1 PUSH2 0x58ED JUMP JUMPDEST PUSH1 0x40 MLOAD DUP1 SWAP2 SUB SWAP1 REVERT JUMPDEST POP POP POP POP JUMP JUMPDEST PUSH0 PUSH32 0x780E9D6300000000000000000000000000000000000000000000000000000000 PUSH28 0xFFFFFFFFFFFFFFFFFFFFFFFFFFFFFFFFFFFFFFFFFFFFFFFFFFFFFFFF NOT AND DUP3 PUSH28 0xFFFFFFFFFFFFFFFFFFFFFFFFFFFFFFFFFFFFFFFFFFFFFFFFFFFFFFFF NOT AND EQ DUP1 PUSH2 0x38E6 JUMPI POP PUSH2 0x38E5 DUP3 PUSH2 0x3E4F JUMP JUMPDEST JUMPDEST SWAP1 POP SWAP2 SWAP1 POP JUMP JUMPDEST PUSH0 PUSH0 PUSH2 0x38F7 PUSH2 0x2A1B JUMP JUMPDEST SWAP1 POP DUP1 PUSH1 0x2 ADD PUSH0 DUP5 DUP2 MSTORE PUSH1 0x20 ADD SWAP1 DUP2 MSTORE PUSH1 0x20 ADD PUSH0 KECCAK256 PUSH0 SWAP1 SLOAD SWAP1 PUSH2 0x100 EXP SWAP1 DIV PUSH20 0xFFFFFFFFFFFFFFFFFFFFFFFFFFFFFFFFFFFFFFFF AND SWAP2 POP POP SWAP2 SWAP1 POP JUMP JUMPDEST PUSH0 PUSH2 0x393D PUSH2 0x2A1B JUMP JUMPDEST SWAP1 POP DUP2 DUP1 PUSH2 0x3977 JUMPI POP PUSH0 PUSH20 0xFFFFFFFFFFFFFFFFFFFFFFFFFFFFFFFFFFFFFFFF AND DUP4 PUSH20 0xFFFFFFFFFFFFFFFFFFFFFFFFFFFFFFFFFFFFFFFF AND EQ ISZERO JUMPDEST ISZERO PUSH2 0x3AA9 JUMPI PUSH0 PUSH2 0x3986 DUP6 PUSH2 0x2A42 JUMP JUMPDEST SWAP1 POP PUSH0 PUSH20 0xFFFFFFFFFFFFFFFFFFFFFFFFFFFFFFFFFFFFFFFF AND DUP5 PUSH20 0xFFFFFFFFFFFFFFFFFFFFFFFFFFFFFFFFFFFFFFFF AND EQ ISZERO DUP1 ISZERO PUSH2 0x39F0 JUMPI POP DUP4 PUSH20 0xFFFFFFFFFFFFFFFFFFFFFFFFFFFFFFFFFFFFFFFF AND DUP2 PUSH20 0xFFFFFFFFFFFFFFFFFFFFFFFFFFFFFFFFFFFFFFFF AND EQ ISZERO JUMPDEST DUP1 ISZERO PUSH2 0x3A03 JUMPI POP PUSH2 0x3A01 DUP2 DUP6 PUSH2 0x2876 JUMP JUMPDEST ISZERO JUMPDEST ISZERO PUSH2 0x3A45 JUMPI DUP4 PUSH1 0x40 MLOAD PUSH32 0xA9FBF51F00000000000000000000000000000000000000000000000000000000 DUP2 MSTORE PUSH1 0x4 ADD PUSH2 0x3A3C SWAP2 SWAP1 PUSH2 0x4DBC JUMP JUMPDEST PUSH1 0x40 MLOAD DUP1 SWAP2 SUB SWAP1 REVERT JUMPDEST DUP3 ISZERO PUSH2 0x3AA7 JUMPI DUP5 DUP7 PUSH20 0xFFFFFFFFFFFFFFFFFFFFFFFFFFFFFFFFFFFFFFFF AND DUP3 PUSH20 0xFFFFFFFFFFFFFFFFFFFFFFFFFFFFFFFFFFFFFFFF AND PUSH32 0x8C5BE1E5EBEC7D5BD14F71427D1E84F3DD0314C0F7B2291E5B200AC8C7C3B925 PUSH1 0x40 MLOAD PUSH1 0x40 MLOAD DUP1 SWAP2 SUB SWAP1 LOG4 JUMPDEST POP JUMPDEST DUP5 DUP2 PUSH1 0x4 ADD PUSH0 DUP7 DUP2 MSTORE PUSH1 0x20 ADD SWAP1 DUP2 MSTORE PUSH1 0x20 ADD PUSH0 KECCAK256 PUSH0 PUSH2 0x100 EXP DUP2 SLOAD DUP2 PUSH20 0xFFFFFFFFFFFFFFFFFFFFFFFFFFFFFFFFFFFFFFFF MUL NOT AND SWAP1 DUP4 PUSH20 0xFFFFFFFFFFFFFFFFFFFFFFFFFFFFFFFFFFFFFFFF AND MUL OR SWAP1 SSTORE POP POP POP POP POP POP JUMP JUMPDEST PUSH0 PUSH0 PUSH2 0x3B0E DUP6 DUP6 DUP6 PUSH2 0x3EAF JUMP JUMPDEST SWAP1 POP PUSH0 PUSH20 0xFFFFFFFFFFFFFFFFFFFFFFFFFFFFFFFFFFFFFFFF AND DUP2 PUSH20 0xFFFFFFFFFFFFFFFFFFFFFFFFFFFFFFFFFFFFFFFF AND SUB PUSH2 0x3B51 JUMPI PUSH2 0x3B4C DUP5 PUSH2 0x40CC JUMP JUMPDEST PUSH2 0x3B90 JUMP JUMPDEST DUP5 PUSH20 0xFFFFFFFFFFFFFFFFFFFFFFFFFFFFFFFFFFFFFFFF AND DUP2 PUSH20 0xFFFFFFFFFFFFFFFFFFFFFFFFFFFFFFFFFFFFFFFF AND EQ PUSH2 0x3B8F JUMPI PUSH2 0x3B8E DUP2 DUP6 PUSH2 0x4122 JUMP JUMPDEST JUMPDEST JUMPDEST PUSH0 PUSH20 0xFFFFFFFFFFFFFFFFFFFFFFFFFFFFFFFFFFFFFFFF AND DUP6 PUSH20 0xFFFFFFFFFFFFFFFFFFFFFFFFFFFFFFFFFFFFFFFF AND SUB PUSH2 0x3BD1 JUMPI PUSH2 0x3BCC DUP5 PUSH2 0x420C JUMP JUMPDEST PUSH2 0x3C10 JUMP JUMPDEST DUP5 PUSH20 0xFFFFFFFFFFFFFFFFFFFFFFFFFFFFFFFFFFFFFFFF AND DUP2 PUSH20 0xFFFFFFFFFFFFFFFFFFFFFFFFFFFFFFFFFFFFFFFF AND EQ PUSH2 0x3C0F JUMPI PUSH2 0x3C0E DUP6 DUP6 PUSH2 0x42E6 JUMP JUMPDEST JUMPDEST JUMPDEST DUP1 SWAP2 POP POP SWAP4 SWAP3 POP POP POP JUMP JUMPDEST PUSH2 0x3C25 DUP3 DUP3 PUSH2 0x1F84 JUMP JUMPDEST PUSH2 0x3C68 JUMPI DUP1 DUP3 PUSH1 0x40 MLOAD PUSH32 0xE2517D3F00000000000000000000000000000000000000000000000000000000 DUP2 MSTORE PUSH1 0x4 ADD PUSH2 0x3C5F SWAP3 SWAP2 SWAP1 PUSH2 0x62A6 JUMP JUMPDEST PUSH1 0x40 MLOAD DUP1 SWAP2 SUB SWAP1 REVERT JUMPDEST POP POP JUMP JUMPDEST PUSH2 0x3C74 PUSH2 0x4379 JUMP JUMPDEST PUSH2 0x3CAA JUMPI PUSH1 0x40 MLOAD PUSH32 0xD7E6BCF800000000000000000000000000000000000000000000000000000000 DUP2 MSTORE PUSH1 0x4 ADD PUSH1 0x40 MLOAD DUP1 SWAP2 SUB SWAP1 REVERT JUMPDEST JUMP JUMPDEST PUSH2 0x3CB4 PUSH2 0x3C6C JUMP JUMPDEST PUSH0 PUSH2 0x3CBD PUSH2 0x2A1B JUMP JUMPDEST SWAP1 POP DUP3 DUP2 PUSH0 ADD SWAP1 DUP2 PUSH2 0x3CCF SWAP2 SWAP1 PUSH2 0x5C87 JUMP JUMPDEST POP DUP2 DUP2 PUSH1 0x1 ADD SWAP1 DUP2 PUSH2 0x3CE1 SWAP2 SWAP1 PUSH2 0x5C87 JUMP JUMPDEST POP POP POP POP JUMP JUMPDEST PUSH0 PUSH2 0x3D13 PUSH32 0x360894A13BA1A3210667C828492DB98DCA3E2076CC3735A920A3CA505D382BBC PUSH0 SHL PUSH2 0x4397 JUMP JUMPDEST PUSH0 ADD PUSH0 SWAP1 SLOAD SWAP1 PUSH2 0x100 EXP SWAP1 DIV PUSH20 0xFFFFFFFFFFFFFFFFFFFFFFFFFFFFFFFFFFFFFFFF AND SWAP1 POP SWAP1 JUMP JUMPDEST PUSH2 0x3D43 DUP3 PUSH2 0x43A0 JUMP JUMPDEST DUP2 PUSH20 0xFFFFFFFFFFFFFFFFFFFFFFFFFFFFFFFFFFFFFFFF AND PUSH32 0xBC7CD75A20EE27FD9ADEBAB32041F755214DBC6BFFA90CC0225B39DA2E5C2D3B PUSH1 0x40 MLOAD PUSH1 0x40 MLOAD DUP1 SWAP2 SUB SWAP1 LOG2 PUSH0 DUP2 MLOAD GT ISZERO PUSH2 0x3D9F JUMPI PUSH2 0x3D99 DUP3 DUP3 PUSH2 0x4469 JUMP JUMPDEST POP PUSH2 0x3DA8 JUMP JUMPDEST PUSH2 0x3DA7 PUSH2 0x44E9 JUMP JUMPDEST JUMPDEST POP POP JUMP JUMPDEST PUSH0 PUSH32 0x542A41881EE128A365A727B282C86FA859579490B9BB45AAB8503648C8E7900 SWAP1 POP SWAP1 JUMP JUMPDEST PUSH1 0x60 PUSH1 0x40 MLOAD DUP1 PUSH1 0x20 ADD PUSH1 0x40 MSTORE DUP1 PUSH0 DUP2 MSTORE POP SWAP1 POP SWAP1 JUMP JUMPDEST PUSH1 0x60 PUSH2 0x3DF4 DUP3 PUSH2 0x2A42 JUMP JUMPDEST POP PUSH0 PUSH2 0x3DFE PUSH2 0x3DD3 JUMP JUMPDEST SWAP1 POP PUSH0 DUP2 MLOAD GT PUSH2 0x3E1C JUMPI PUSH1 0x40 MLOAD DUP1 PUSH1 0x20 ADD PUSH1 0x40 MSTORE DUP1 PUSH0 DUP2 MSTORE POP PUSH2 0x3E47 JUMP JUMPDEST DUP1 PUSH2 0x3E26 DUP5 PUSH2 0x4525 JUMP JUMPDEST PUSH1 0x40 MLOAD PUSH1 0x20 ADD PUSH2 0x3E37 SWAP3 SWAP2 SWAP1 PUSH2 0x6283 JUMP JUMPDEST PUSH1 0x40 MLOAD PUSH1 0x20 DUP2 DUP4 SUB SUB DUP2 MSTORE SWAP1 PUSH1 0x40 MSTORE JUMPDEST SWAP2 POP POP SWAP2 SWAP1 POP JUMP JUMPDEST PUSH0 PUSH4 0x49064906 PUSH1 0xE0 SHL PUSH28 0xFFFFFFFFFFFFFFFFFFFFFFFFFFFFFFFFFFFFFFFFFFFFFFFFFFFFFFFF NOT AND DUP3 PUSH28 0xFFFFFFFFFFFFFFFFFFFFFFFFFFFFFFFFFFFFFFFFFFFFFFFFFFFFFFFF NOT AND EQ DUP1 PUSH2 0x3EA8 JUMPI POP PUSH2 0x3EA7 DUP3 PUSH2 0x45EF JUMP JUMPDEST JUMPDEST SWAP1 POP SWAP2 SWAP1 POP JUMP JUMPDEST PUSH0 PUSH0 PUSH2 0x3EB9 PUSH2 0x2A1B JUMP JUMPDEST SWAP1 POP PUSH0 PUSH2 0x3EC5 DUP6 PUSH2 0x38ED JUMP JUMPDEST SWAP1 POP PUSH0 PUSH20 0xFFFFFFFFFFFFFFFFFFFFFFFFFFFFFFFFFFFFFFFF AND DUP5 PUSH20 0xFFFFFFFFFFFFFFFFFFFFFFFFFFFFFFFFFFFFFFFF AND EQ PUSH2 0x3F06 JUMPI PUSH2 0x3F05 DUP2 DUP6 DUP8 PUSH2 0x46D0 JUMP JUMPDEST JUMPDEST PUSH0 PUSH20 0xFFFFFFFFFFFFFFFFFFFFFFFFFFFFFFFFFFFFFFFF AND DUP2 PUSH20 0xFFFFFFFFFFFFFFFFFFFFFFFFFFFFFFFFFFFFFFFF AND EQ PUSH2 0x3F93 JUMPI PUSH2 0x3F45 PUSH0 DUP7 PUSH0 PUSH0 PUSH2 0x3934 JUMP JUMPDEST PUSH1 0x1 DUP3 PUSH1 0x3 ADD PUSH0 DUP4 PUSH20 0xFFFFFFFFFFFFFFFFFFFFFFFFFFFFFFFFFFFFFFFF AND PUSH20 0xFFFFFFFFFFFFFFFFFFFFFFFFFFFFFFFFFFFFFFFF AND DUP2 MSTORE PUSH1 0x20 ADD SWAP1 DUP2 MSTORE PUSH1 0x20 ADD PUSH0 KECCAK256 PUSH0 DUP3 DUP3 SLOAD SUB SWAP3 POP POP DUP2 SWAP1 SSTORE POP JUMPDEST PUSH0 PUSH20 0xFFFFFFFFFFFFFFFFFFFFFFFFFFFFFFFFFFFFFFFF AND DUP7 PUSH20 0xFFFFFFFFFFFFFFFFFFFFFFFFFFFFFFFFFFFFFFFF AND EQ PUSH2 0x4014 JUMPI PUSH1 0x1 DUP3 PUSH1 0x3 ADD PUSH0 DUP9 PUSH20 0xFFFFFFFFFFFFFFFFFFFFFFFFFFFFFFFFFFFFFFFF AND PUSH20 0xFFFFFFFFFFFFFFFFFFFFFFFFFFFFFFFFFFFFFFFF AND DUP2 MSTORE PUSH1 0x20 ADD SWAP1 DUP2 MSTORE PUSH1 0x20 ADD PUSH0 KECCAK256 PUSH0 DUP3 DUP3 SLOAD ADD SWAP3 POP POP DUP2 SWAP1 SSTORE POP JUMPDEST DUP6 DUP3 PUSH1 0x2 ADD PUSH0 DUP8 DUP2 MSTORE PUSH1 0x20 ADD SWAP1 DUP2 MSTORE PUSH1 0x20 ADD PUSH0 KECCAK256 PUSH0 PUSH2 0x100 EXP DUP2 SLOAD DUP2 PUSH20 0xFFFFFFFFFFFFFFFFFFFFFFFFFFFFFFFFFFFFFFFF MUL NOT AND SWAP1 DUP4 PUSH20 0xFFFFFFFFFFFFFFFFFFFFFFFFFFFFFFFFFFFFFFFF AND MUL OR SWAP1 SSTORE POP DUP5 DUP7 PUSH20 0xFFFFFFFFFFFFFFFFFFFFFFFFFFFFFFFFFFFFFFFF AND DUP3 PUSH20 0xFFFFFFFFFFFFFFFFFFFFFFFFFFFFFFFFFFFFFFFF AND PUSH32 0xDDF252AD1BE2C89B69C2B068FC378DAA952BA7F163C4A11628F55A4DF523B3EF PUSH1 0x40 MLOAD PUSH1 0x40 MLOAD DUP1 SWAP2 SUB SWAP1 LOG4 DUP1 SWAP3 POP POP POP SWAP4 SWAP3 POP POP POP JUMP JUMPDEST PUSH0 PUSH2 0x40D5 PUSH2 0x2B28 JUMP JUMPDEST SWAP1 POP DUP1 PUSH1 0x2 ADD DUP1 SLOAD SWAP1 POP DUP2 PUSH1 0x3 ADD PUSH0 DUP5 DUP2 MSTORE PUSH1 0x20 ADD SWAP1 DUP2 MSTORE PUSH1 0x20 ADD PUSH0 KECCAK256 DUP2 SWAP1 SSTORE POP DUP1 PUSH1 0x2 ADD DUP3 SWAP1 DUP1 PUSH1 0x1 DUP2 SLOAD ADD DUP1 DUP3 SSTORE DUP1 SWAP2 POP POP PUSH1 0x1 SWAP1 SUB SWAP1 PUSH0 MSTORE PUSH1 0x20 PUSH0 KECCAK256 ADD PUSH0 SWAP1 SWAP2 SWAP1 SWAP2 SWAP1 SWAP2 POP SSTORE POP POP JUMP JUMPDEST PUSH0 PUSH2 0x412B PUSH2 0x2B28 JUMP JUMPDEST SWAP1 POP PUSH0 PUSH2 0x4137 DUP5 PUSH2 0x19D1 JUMP JUMPDEST SWAP1 POP PUSH0 DUP3 PUSH1 0x1 ADD PUSH0 DUP6 DUP2 MSTORE PUSH1 0x20 ADD SWAP1 DUP2 MSTORE PUSH1 0x20 ADD PUSH0 KECCAK256 SLOAD SWAP1 POP PUSH0 DUP4 PUSH0 ADD PUSH0 DUP8 PUSH20 0xFFFFFFFFFFFFFFFFFFFFFFFFFFFFFFFFFFFFFFFF AND PUSH20 0xFFFFFFFFFFFFFFFFFFFFFFFFFFFFFFFFFFFFFFFF AND DUP2 MSTORE PUSH1 0x20 ADD SWAP1 DUP2 MSTORE PUSH1 0x20 ADD PUSH0 KECCAK256 SWAP1 POP DUP3 DUP3 EQ PUSH2 0x41DB JUMPI PUSH0 DUP2 PUSH0 DUP6 DUP2 MSTORE PUSH1 0x20 ADD SWAP1 DUP2 MSTORE PUSH1 0x20 ADD PUSH0 KECCAK256 SLOAD SWAP1 POP DUP1 DUP3 PUSH0 DUP6 DUP2 MSTORE PUSH1 0x20 ADD SWAP1 DUP2 MSTORE PUSH1 0x20 ADD PUSH0 KECCAK256 DUP2 SWAP1 SSTORE POP DUP3 DUP6 PUSH1 0x1 ADD PUSH0 DUP4 DUP2 MSTORE PUSH1 0x20 ADD SWAP1 DUP2 MSTORE PUSH1 0x20 ADD PUSH0 KECCAK256 DUP2 SWAP1 SSTORE POP POP JUMPDEST DUP4 PUSH1 0x1 ADD PUSH0 DUP7 DUP2 MSTORE PUSH1 0x20 ADD SWAP1 DUP2 MSTORE PUSH1 0x20 ADD PUSH0 KECCAK256 PUSH0 SWAP1 SSTORE DUP1 PUSH0 DUP5 DUP2 MSTORE PUSH1 0x20 ADD SWAP1 DUP2 MSTORE PUSH1 0x20 ADD PUSH0 KECCAK256 PUSH0 SWAP1 SSTORE POP POP POP POP POP POP JUMP JUMPDEST PUSH0 PUSH2 0x4215 PUSH2 0x2B28 JUMP JUMPDEST SWAP1 POP PUSH0 PUSH1 0x1 DUP3 PUSH1 0x2 ADD DUP1 SLOAD SWAP1 POP PUSH2 0x422C SWAP2 SWAP1 PUSH2 0x60FC JUMP JUMPDEST SWAP1 POP PUSH0 DUP3 PUSH1 0x3 ADD PUSH0 DUP6 DUP2 MSTORE PUSH1 0x20 ADD SWAP1 DUP2 MSTORE PUSH1 0x20 ADD PUSH0 KECCAK256 SLOAD SWAP1 POP PUSH0 DUP4 PUSH1 0x2 ADD DUP4 DUP2 SLOAD DUP2 LT PUSH2 0x425C JUMPI PUSH2 0x425B PUSH2 0x5949 JUMP JUMPDEST JUMPDEST SWAP1 PUSH0 MSTORE PUSH1 0x20 PUSH0 KECCAK256 ADD SLOAD SWAP1 POP DUP1 DUP5 PUSH1 0x2 ADD DUP4 DUP2 SLOAD DUP2 LT PUSH2 0x427E JUMPI PUSH2 0x427D PUSH2 0x5949 JUMP JUMPDEST JUMPDEST SWAP1 PUSH0 MSTORE PUSH1 0x20 PUSH0 KECCAK256 ADD DUP2 SWAP1 SSTORE POP DUP2 DUP5 PUSH1 0x3 ADD PUSH0 DUP4 DUP2 MSTORE PUSH1 0x20 ADD SWAP1 DUP2 MSTORE PUSH1 0x20 ADD PUSH0 KECCAK256 DUP2 SWAP1 SSTORE POP DUP4 PUSH1 0x3 ADD PUSH0 DUP7 DUP2 MSTORE PUSH1 0x20 ADD SWAP1 DUP2 MSTORE PUSH1 0x20 ADD PUSH0 KECCAK256 PUSH0 SWAP1 SSTORE DUP4 PUSH1 0x2 ADD DUP1 SLOAD DUP1 PUSH2 0x42CC JUMPI PUSH2 0x42CB PUSH2 0x62CD JUMP JUMPDEST JUMPDEST PUSH1 0x1 SWAP1 SUB DUP2 DUP2 SWAP1 PUSH0 MSTORE PUSH1 0x20 PUSH0 KECCAK256 ADD PUSH0 SWAP1 SSTORE SWAP1 SSTORE POP POP POP POP POP JUMP JUMPDEST PUSH0 PUSH2 0x42EF PUSH2 0x2B28 JUMP JUMPDEST SWAP1 POP PUSH0 PUSH1 0x1 PUSH2 0x42FD DUP6 PUSH2 0x19D1 JUMP JUMPDEST PUSH2 0x4307 SWAP2 SWAP1 PUSH2 0x60FC JUMP JUMPDEST SWAP1 POP DUP3 DUP3 PUSH0 ADD PUSH0 DUP7 PUSH20 0xFFFFFFFFFFFFFFFFFFFFFFFFFFFFFFFFFFFFFFFF AND PUSH20 0xFFFFFFFFFFFFFFFFFFFFFFFFFFFFFFFFFFFFFFFF AND DUP2 MSTORE PUSH1 0x20 ADD SWAP1 DUP2 MSTORE PUSH1 0x20 ADD PUSH0 KECCAK256 PUSH0 DUP4 DUP2 MSTORE PUSH1 0x20 ADD SWAP1 DUP2 MSTORE PUSH1 0x20 ADD PUSH0 KECCAK256 DUP2 SWAP1 SSTORE POP DUP1 DUP3 PUSH1 0x1 ADD PUSH0 DUP6 DUP2 MSTORE PUSH1 0x20 ADD SWAP1 DUP2 MSTORE PUSH1 0x20 ADD PUSH0 KECCAK256 DUP2 SWAP1 SSTORE POP POP POP POP POP JUMP JUMPDEST PUSH0 PUSH2 0x4382 PUSH2 0x2F40 JUMP JUMPDEST PUSH0 ADD PUSH1 0x8 SWAP1 SLOAD SWAP1 PUSH2 0x100 EXP SWAP1 DIV PUSH1 0xFF AND SWAP1 POP SWAP1 JUMP JUMPDEST PUSH0 DUP2 SWAP1 POP SWAP2 SWAP1 POP JUMP JUMPDEST PUSH0 DUP2 PUSH20 0xFFFFFFFFFFFFFFFFFFFFFFFFFFFFFFFFFFFFFFFF AND EXTCODESIZE SUB PUSH2 0x43FB JUMPI DUP1 PUSH1 0x40 MLOAD PUSH32 0x4C9C8CE300000000000000000000000000000000000000000000000000000000 DUP2 MSTORE PUSH1 0x4 ADD PUSH2 0x43F2 SWAP2 SWAP1 PUSH2 0x4DBC JUMP JUMPDEST PUSH1 0x40 MLOAD DUP1 SWAP2 SUB SWAP1 REVERT JUMPDEST DUP1 PUSH2 0x4427 PUSH32 0x360894A13BA1A3210667C828492DB98DCA3E2076CC3735A920A3CA505D382BBC PUSH0 SHL PUSH2 0x4397 JUMP JUMPDEST PUSH0 ADD PUSH0 PUSH2 0x100 EXP DUP2 SLOAD DUP2 PUSH20 0xFFFFFFFFFFFFFFFFFFFFFFFFFFFFFFFFFFFFFFFF MUL NOT AND SWAP1 DUP4 PUSH20 0xFFFFFFFFFFFFFFFFFFFFFFFFFFFFFFFFFFFFFFFF AND MUL OR SWAP1 SSTORE POP POP JUMP JUMPDEST PUSH1 0x60 PUSH0 PUSH0 DUP5 PUSH20 0xFFFFFFFFFFFFFFFFFFFFFFFFFFFFFFFFFFFFFFFF AND DUP5 PUSH1 0x40 MLOAD PUSH2 0x4492 SWAP2 SWAP1 PUSH2 0x6334 JUMP JUMPDEST PUSH0 PUSH1 0x40 MLOAD DUP1 DUP4 SUB DUP2 DUP6 GAS DELEGATECALL SWAP2 POP POP RETURNDATASIZE DUP1 PUSH0 DUP2 EQ PUSH2 0x44CA JUMPI PUSH1 0x40 MLOAD SWAP2 POP PUSH1 0x1F NOT PUSH1 0x3F RETURNDATASIZE ADD AND DUP3 ADD PUSH1 0x40 MSTORE RETURNDATASIZE DUP3 MSTORE RETURNDATASIZE PUSH0 PUSH1 0x20 DUP5 ADD RETURNDATACOPY PUSH2 0x44CF JUMP JUMPDEST PUSH1 0x60 SWAP2 POP JUMPDEST POP SWAP2 POP SWAP2 POP PUSH2 0x44DF DUP6 DUP4 DUP4 PUSH2 0x4793 JUMP JUMPDEST SWAP3 POP POP POP SWAP3 SWAP2 POP POP JUMP JUMPDEST PUSH0 CALLVALUE GT ISZERO PUSH2 0x4523 JUMPI PUSH1 0x40 MLOAD PUSH32 0xB398979F00000000000000000000000000000000000000000000000000000000 DUP2 MSTORE PUSH1 0x4 ADD PUSH1 0x40 MLOAD DUP1 SWAP2 SUB SWAP1 REVERT JUMPDEST JUMP JUMPDEST PUSH1 0x60 PUSH0 PUSH1 0x1 PUSH2 0x4533 DUP5 PUSH2 0x4820 JUMP JUMPDEST ADD SWAP1 POP PUSH0 DUP2 PUSH8 0xFFFFFFFFFFFFFFFF DUP2 GT ISZERO PUSH2 0x4551 JUMPI PUSH2 0x4550 PUSH2 0x5096 JUMP JUMPDEST JUMPDEST PUSH1 0x40 MLOAD SWAP1 DUP1 DUP3 MSTORE DUP1 PUSH1 0x1F ADD PUSH1 0x1F NOT AND PUSH1 0x20 ADD DUP3 ADD PUSH1 0x40 MSTORE DUP1 ISZERO PUSH2 0x4583 JUMPI DUP2 PUSH1 0x20 ADD PUSH1 0x1 DUP3 MUL DUP1 CALLDATASIZE DUP4 CALLDATACOPY DUP1 DUP3 ADD SWAP2 POP POP SWAP1 POP JUMPDEST POP SWAP1 POP PUSH0 DUP3 PUSH1 0x20 ADD DUP3 ADD SWAP1 POP JUMPDEST PUSH1 0x1 ISZERO PUSH2 0x45E4 JUMPI DUP1 DUP1 PUSH1 0x1 SWAP1 SUB SWAP2 POP POP PUSH32 0x3031323334353637383961626364656600000000000000000000000000000000 PUSH1 0xA DUP7 MOD BYTE DUP2 MSTORE8 PUSH1 0xA DUP6 DUP2 PUSH2 0x45D9 JUMPI PUSH2 0x45D8 PUSH2 0x599D JUMP JUMPDEST JUMPDEST DIV SWAP5 POP PUSH0 DUP6 SUB PUSH2 0x4590 JUMPI JUMPDEST DUP2 SWAP4 POP POP POP POP SWAP2 SWAP1 POP JUMP JUMPDEST PUSH0 PUSH32 0x80AC58CD00000000000000000000000000000000000000000000000000000000 PUSH28 0xFFFFFFFFFFFFFFFFFFFFFFFFFFFFFFFFFFFFFFFFFFFFFFFFFFFFFFFF NOT AND DUP3 PUSH28 0xFFFFFFFFFFFFFFFFFFFFFFFFFFFFFFFFFFFFFFFFFFFFFFFFFFFFFFFF NOT AND EQ DUP1 PUSH2 0x46B9 JUMPI POP PUSH32 0x5B5E139F00000000000000000000000000000000000000000000000000000000 PUSH28 0xFFFFFFFFFFFFFFFFFFFFFFFFFFFFFFFFFFFFFFFFFFFFFFFFFFFFFFFF NOT AND DUP3 PUSH28 0xFFFFFFFFFFFFFFFFFFFFFFFFFFFFFFFFFFFFFFFFFFFFFFFFFFFFFFFF NOT AND EQ JUMPDEST DUP1 PUSH2 0x46C9 JUMPI POP PUSH2 0x46C8 DUP3 PUSH2 0x4971 JUMP JUMPDEST JUMPDEST SWAP1 POP SWAP2 SWAP1 POP JUMP JUMPDEST PUSH2 0x46DB DUP4 DUP4 DUP4 PUSH2 0x49DA JUMP JUMPDEST PUSH2 0x478E JUMPI PUSH0 PUSH20 0xFFFFFFFFFFFFFFFFFFFFFFFFFFFFFFFFFFFFFFFF AND DUP4 PUSH20 0xFFFFFFFFFFFFFFFFFFFFFFFFFFFFFFFFFFFFFFFF AND SUB PUSH2 0x474F JUMPI DUP1 PUSH1 0x40 MLOAD PUSH32 0x7E27328900000000000000000000000000000000000000000000000000000000 DUP2 MSTORE PUSH1 0x4 ADD PUSH2 0x4746 SWAP2 SWAP1 PUSH2 0x4E4C JUMP JUMPDEST PUSH1 0x40 MLOAD DUP1 SWAP2 SUB SWAP1 REVERT JUMPDEST DUP2 DUP2 PUSH1 0x40 MLOAD PUSH32 0x177E802F00000000000000000000000000000000000000000000000000000000 DUP2 MSTORE PUSH1 0x4 ADD PUSH2 0x4785 SWAP3 SWAP2 SWAP1 PUSH2 0x5922 JUMP JUMPDEST PUSH1 0x40 MLOAD DUP1 SWAP2 SUB SWAP1 REVERT JUMPDEST POP POP POP JUMP JUMPDEST PUSH1 0x60 DUP3 PUSH2 0x47A8 JUMPI PUSH2 0x47A3 DUP3 PUSH2 0x4A9A JUMP JUMPDEST PUSH2 0x4818 JUMP JUMPDEST PUSH0 DUP3 MLOAD EQ DUP1 ISZERO PUSH2 0x47CE JUMPI POP PUSH0 DUP5 PUSH20 0xFFFFFFFFFFFFFFFFFFFFFFFFFFFFFFFFFFFFFFFF AND EXTCODESIZE EQ JUMPDEST ISZERO PUSH2 0x4810 JUMPI DUP4 PUSH1 0x40 MLOAD PUSH32 0x9996B31500000000000000000000000000000000000000000000000000000000 DUP2 MSTORE PUSH1 0x4 ADD PUSH2 0x4807 SWAP2 SWAP1 PUSH2 0x4DBC JUMP JUMPDEST PUSH1 0x40 MLOAD DUP1 SWAP2 SUB SWAP1 REVERT JUMPDEST DUP2 SWAP1 POP PUSH2 0x4819 JUMP JUMPDEST JUMPDEST SWAP4 SWAP3 POP POP POP JUMP JUMPDEST PUSH0 PUSH0 PUSH0 SWAP1 POP PUSH27 0x184F03E93FF9F4DAA797ED6E38ED64BF6A1F010000000000000000 DUP4 LT PUSH2 0x487C JUMPI PUSH27 0x184F03E93FF9F4DAA797ED6E38ED64BF6A1F010000000000000000 DUP4 DUP2 PUSH2 0x4872 JUMPI PUSH2 0x4871 PUSH2 0x599D JUMP JUMPDEST JUMPDEST DIV SWAP3 POP PUSH1 0x40 DUP2 ADD SWAP1 POP JUMPDEST PUSH14 0x4EE2D6D415B85ACEF8100000000 DUP4 LT PUSH2 0x48B9 JUMPI PUSH14 0x4EE2D6D415B85ACEF8100000000 DUP4 DUP2 PUSH2 0x48AF JUMPI PUSH2 0x48AE PUSH2 0x599D JUMP JUMPDEST JUMPDEST DIV SWAP3 POP PUSH1 0x20 DUP2 ADD SWAP1 POP JUMPDEST PUSH7 0x2386F26FC10000 DUP4 LT PUSH2 0x48E8 JUMPI PUSH7 0x2386F26FC10000 DUP4 DUP2 PUSH2 0x48DE JUMPI PUSH2 0x48DD PUSH2 0x599D JUMP JUMPDEST JUMPDEST DIV SWAP3 POP PUSH1 0x10 DUP2 ADD SWAP1 POP JUMPDEST PUSH4 0x5F5E100 DUP4 LT PUSH2 0x4911 JUMPI PUSH4 0x5F5E100 DUP4 DUP2 PUSH2 0x4907 JUMPI PUSH2 0x4906 PUSH2 0x599D JUMP JUMPDEST JUMPDEST DIV SWAP3 POP PUSH1 0x8 DUP2 ADD SWAP1 POP JUMPDEST PUSH2 0x2710 DUP4 LT PUSH2 0x4936 JUMPI PUSH2 0x2710 DUP4 DUP2 PUSH2 0x492C JUMPI PUSH2 0x492B PUSH2 0x599D JUMP JUMPDEST JUMPDEST DIV SWAP3 POP PUSH1 0x4 DUP2 ADD SWAP1 POP JUMPDEST PUSH1 0x64 DUP4 LT PUSH2 0x4959 JUMPI PUSH1 0x64 DUP4 DUP2 PUSH2 0x494F JUMPI PUSH2 0x494E PUSH2 0x599D JUMP JUMPDEST JUMPDEST DIV SWAP3 POP PUSH1 0x2 DUP2 ADD SWAP1 POP JUMPDEST PUSH1 0xA DUP4 LT PUSH2 0x4968 JUMPI PUSH1 0x1 DUP2 ADD SWAP1 POP JUMPDEST DUP1 SWAP2 POP POP SWAP2 SWAP1 POP JUMP JUMPDEST PUSH0 PUSH32 0x1FFC9A700000000000000000000000000000000000000000000000000000000 PUSH28 0xFFFFFFFFFFFFFFFFFFFFFFFFFFFFFFFFFFFFFFFFFFFFFFFFFFFFFFFF NOT AND DUP3 PUSH28 0xFFFFFFFFFFFFFFFFFFFFFFFFFFFFFFFFFFFFFFFFFFFFFFFFFFFFFFFF NOT AND EQ SWAP1 POP SWAP2 SWAP1 POP JUMP JUMPDEST PUSH0 PUSH0 PUSH20 0xFFFFFFFFFFFFFFFFFFFFFFFFFFFFFFFFFFFFFFFF AND DUP4 PUSH20 0xFFFFFFFFFFFFFFFFFFFFFFFFFFFFFFFFFFFFFFFF AND EQ ISZERO DUP1 ISZERO PUSH2 0x4A91 JUMPI POP DUP3 PUSH20 0xFFFFFFFFFFFFFFFFFFFFFFFFFFFFFFFFFFFFFFFF AND DUP5 PUSH20 0xFFFFFFFFFFFFFFFFFFFFFFFFFFFFFFFFFFFFFFFF AND EQ DUP1 PUSH2 0x4A52 JUMPI POP PUSH2 0x4A51 DUP5 DUP5 PUSH2 0x2876 JUMP JUMPDEST JUMPDEST DUP1 PUSH2 0x4A90 JUMPI POP DUP3 PUSH20 0xFFFFFFFFFFFFFFFFFFFFFFFFFFFFFFFFFFFFFFFF AND PUSH2 0x4A78 DUP4 PUSH2 0x2AC8 JUMP JUMPDEST PUSH20 0xFFFFFFFFFFFFFFFFFFFFFFFFFFFFFFFFFFFFFFFF AND EQ JUMPDEST JUMPDEST SWAP1 POP SWAP4 SWAP3 POP POP POP JUMP JUMPDEST PUSH0 DUP2 MLOAD GT ISZERO PUSH2 0x4AAC JUMPI DUP1 MLOAD DUP1 DUP3 PUSH1 0x20 ADD REVERT JUMPDEST PUSH1 0x40 MLOAD PUSH32 0xD6BDA27500000000000000000000000000000000000000000000000000000000 DUP2 MSTORE PUSH1 0x4 ADD PUSH1 0x40 MLOAD DUP1 SWAP2 SUB SWAP1 REVERT JUMPDEST DUP3 DUP1 SLOAD DUP3 DUP3 SSTORE SWAP1 PUSH0 MSTORE PUSH1 0x20 PUSH0 KECCAK256 SWAP1 DUP2 ADD SWAP3 DUP3 ISZERO PUSH2 0x4B54 JUMPI SWAP2 PUSH1 0x20 MUL DUP3 ADD JUMPDEST DUP3 DUP2 GT ISZERO PUSH2 0x4B53 JUMPI DUP3 MLOAD DUP3 PUSH0 PUSH2 0x100 EXP DUP2 SLOAD DUP2 PUSH20 0xFFFFFFFFFFFFFFFFFFFFFFFFFFFFFFFFFFFFFFFF MUL NOT AND SWAP1 DUP4 PUSH20 0xFFFFFFFFFFFFFFFFFFFFFFFFFFFFFFFFFFFFFFFF AND MUL OR SWAP1 SSTORE POP SWAP2 PUSH1 0x20 ADD SWAP2 SWAP1 PUSH1 0x1 ADD SWAP1 PUSH2 0x4AFC JUMP JUMPDEST JUMPDEST POP SWAP1 POP PUSH2 0x4B61 SWAP2 SWAP1 PUSH2 0x4BB0 JUMP JUMPDEST POP SWAP1 JUMP JUMPDEST DUP3 DUP1 SLOAD DUP3 DUP3 SSTORE SWAP1 PUSH0 MSTORE PUSH1 0x20 PUSH0 KECCAK256 SWAP1 DUP2 ADD SWAP3 DUP3 ISZERO PUSH2 0x4B9F JUMPI SWAP2 PUSH1 0x20 MUL DUP3 ADD JUMPDEST DUP3 DUP2 GT ISZERO PUSH2 0x4B9E JUMPI DUP3 MLOAD DUP3 SSTORE SWAP2 PUSH1 0x20 ADD SWAP2 SWAP1 PUSH1 0x1 ADD SWAP1 PUSH2 0x4B83 JUMP JUMPDEST JUMPDEST POP SWAP1 POP PUSH2 0x4BAC SWAP2 SWAP1 PUSH2 0x4BB0 JUMP JUMPDEST POP SWAP1 JUMP JUMPDEST JUMPDEST DUP1 DUP3 GT ISZERO PUSH2 0x4BC7 JUMPI PUSH0 DUP2 PUSH0 SWAP1 SSTORE POP PUSH1 0x1 ADD PUSH2 0x4BB1 JUMP JUMPDEST POP SWAP1 JUMP JUMPDEST PUSH0 PUSH1 0x40 MLOAD SWAP1 POP SWAP1 JUMP JUMPDEST PUSH0 PUSH0 REVERT JUMPDEST PUSH0 PUSH0 REVERT JUMPDEST PUSH0 PUSH32 0xFFFFFFFF00000000000000000000000000000000000000000000000000000000 DUP3 AND SWAP1 POP SWAP2 SWAP1 POP JUMP JUMPDEST PUSH2 0x4C10 DUP2 PUSH2 0x4BDC JUMP JUMPDEST DUP2 EQ PUSH2 0x4C1A JUMPI PUSH0 PUSH0 REVERT JUMPDEST POP JUMP JUMPDEST PUSH0 DUP2 CALLDATALOAD SWAP1 POP PUSH2 0x4C2B DUP2 PUSH2 0x4C07 JUMP JUMPDEST SWAP3 SWAP2 POP POP JUMP JUMPDEST PUSH0 PUSH1 0x20 DUP3 DUP5 SUB SLT ISZERO PUSH2 0x4C46 JUMPI PUSH2 0x4C45 PUSH2 0x4BD4 JUMP JUMPDEST JUMPDEST PUSH0 PUSH2 0x4C53 DUP5 DUP3 DUP6 ADD PUSH2 0x4C1D JUMP JUMPDEST SWAP2 POP POP SWAP3 SWAP2 POP POP JUMP JUMPDEST PUSH0 DUP2 ISZERO ISZERO SWAP1 POP SWAP2 SWAP1 POP JUMP JUMPDEST PUSH2 0x4C70 DUP2 PUSH2 0x4C5C JUMP JUMPDEST DUP3 MSTORE POP POP JUMP JUMPDEST PUSH0 PUSH1 0x20 DUP3 ADD SWAP1 POP PUSH2 0x4C89 PUSH0 DUP4 ADD DUP5 PUSH2 0x4C67 JUMP JUMPDEST SWAP3 SWAP2 POP POP JUMP JUMPDEST PUSH0 DUP2 MLOAD SWAP1 POP SWAP2 SWAP1 POP JUMP JUMPDEST PUSH0 DUP3 DUP3 MSTORE PUSH1 0x20 DUP3 ADD SWAP1 POP SWAP3 SWAP2 POP POP JUMP JUMPDEST DUP3 DUP2 DUP4 MCOPY PUSH0 DUP4 DUP4 ADD MSTORE POP POP POP JUMP JUMPDEST PUSH0 PUSH1 0x1F NOT PUSH1 0x1F DUP4 ADD AND SWAP1 POP SWAP2 SWAP1 POP JUMP JUMPDEST PUSH0 PUSH2 0x4CD1 DUP3 PUSH2 0x4C8F JUMP JUMPDEST PUSH2 0x4CDB DUP2 DUP6 PUSH2 0x4C99 JUMP JUMPDEST SWAP4 POP PUSH2 0x4CEB DUP2 DUP6 PUSH1 0x20 DUP7 ADD PUSH2 0x4CA9 JUMP JUMPDEST PUSH2 0x4CF4 DUP2 PUSH2 0x4CB7 JUMP JUMPDEST DUP5 ADD SWAP2 POP POP SWAP3 SWAP2 POP POP JUMP JUMPDEST PUSH0 PUSH1 0x20 DUP3 ADD SWAP1 POP DUP2 DUP2 SUB PUSH0 DUP4 ADD MSTORE PUSH2 0x4D17 DUP2 DUP5 PUSH2 0x4CC7 JUMP JUMPDEST SWAP1 POP SWAP3 SWAP2 POP POP JUMP JUMPDEST PUSH0 DUP2 SWAP1 POP SWAP2 SWAP1 POP JUMP JUMPDEST PUSH2 0x4D31 DUP2 PUSH2 0x4D1F JUMP JUMPDEST DUP2 EQ PUSH2 0x4D3B JUMPI PUSH0 PUSH0 REVERT JUMPDEST POP JUMP JUMPDEST PUSH0 DUP2 CALLDATALOAD SWAP1 POP PUSH2 0x4D4C DUP2 PUSH2 0x4D28 JUMP JUMPDEST SWAP3 SWAP2 POP POP JUMP JUMPDEST PUSH0 PUSH1 0x20 DUP3 DUP5 SUB SLT ISZERO PUSH2 0x4D67 JUMPI PUSH2 0x4D66 PUSH2 0x4BD4 JUMP JUMPDEST JUMPDEST PUSH0 PUSH2 0x4D74 DUP5 DUP3 DUP6 ADD PUSH2 0x4D3E JUMP JUMPDEST SWAP2 POP POP SWAP3 SWAP2 POP POP JUMP JUMPDEST PUSH0 PUSH20 0xFFFFFFFFFFFFFFFFFFFFFFFFFFFFFFFFFFFFFFFF DUP3 AND SWAP1 POP SWAP2 SWAP1 POP JUMP JUMPDEST PUSH0 PUSH2 0x4DA6 DUP3 PUSH2 0x4D7D JUMP JUMPDEST SWAP1 POP SWAP2 SWAP1 POP JUMP JUMPDEST PUSH2 0x4DB6 DUP2 PUSH2 0x4D9C JUMP JUMPDEST DUP3 MSTORE POP POP JUMP JUMPDEST PUSH0 PUSH1 0x20 DUP3 ADD SWAP1 POP PUSH2 0x4DCF PUSH0 DUP4 ADD DUP5 PUSH2 0x4DAD JUMP JUMPDEST SWAP3 SWAP2 POP POP JUMP JUMPDEST PUSH2 0x4DDE DUP2 PUSH2 0x4D9C JUMP JUMPDEST DUP2 EQ PUSH2 0x4DE8 JUMPI PUSH0 PUSH0 REVERT JUMPDEST POP JUMP JUMPDEST PUSH0 DUP2 CALLDATALOAD SWAP1 POP PUSH2 0x4DF9 DUP2 PUSH2 0x4DD5 JUMP JUMPDEST SWAP3 SWAP2 POP POP JUMP JUMPDEST PUSH0 PUSH0 PUSH1 0x40 DUP4 DUP6 SUB SLT ISZERO PUSH2 0x4E15 JUMPI PUSH2 0x4E14 PUSH2 0x4BD4 JUMP JUMPDEST JUMPDEST PUSH0 PUSH2 0x4E22 DUP6 DUP3 DUP7 ADD PUSH2 0x4DEB JUMP JUMPDEST SWAP3 POP POP PUSH1 0x20 PUSH2 0x4E33 DUP6 DUP3 DUP7 ADD PUSH2 0x4D3E JUMP JUMPDEST SWAP2 POP POP SWAP3 POP SWAP3 SWAP1 POP JUMP JUMPDEST PUSH2 0x4E46 DUP2 PUSH2 0x4D1F JUMP JUMPDEST DUP3 MSTORE POP POP JUMP JUMPDEST PUSH0 PUSH1 0x20 DUP3 ADD SWAP1 POP PUSH2 0x4E5F PUSH0 DUP4 ADD DUP5 PUSH2 0x4E3D JUMP JUMPDEST SWAP3 SWAP2 POP POP JUMP JUMPDEST PUSH0 PUSH0 PUSH0 PUSH1 0x60 DUP5 DUP7 SUB SLT ISZERO PUSH2 0x4E7C JUMPI PUSH2 0x4E7B PUSH2 0x4BD4 JUMP JUMPDEST JUMPDEST PUSH0 PUSH2 0x4E89 DUP7 DUP3 DUP8 ADD PUSH2 0x4DEB JUMP JUMPDEST SWAP4 POP POP PUSH1 0x20 PUSH2 0x4E9A DUP7 DUP3 DUP8 ADD PUSH2 0x4DEB JUMP JUMPDEST SWAP3 POP POP PUSH1 0x40 PUSH2 0x4EAB DUP7 DUP3 DUP8 ADD PUSH2 0x4D3E JUMP JUMPDEST SWAP2 POP POP SWAP3 POP SWAP3 POP SWAP3 JUMP JUMPDEST PUSH0 DUP2 SWAP1 POP SWAP2 SWAP1 POP JUMP JUMPDEST PUSH2 0x4EC7 DUP2 PUSH2 0x4EB5 JUMP JUMPDEST DUP2 EQ PUSH2 0x4ED1 JUMPI PUSH0 PUSH0 REVERT JUMPDEST POP JUMP JUMPDEST PUSH0 DUP2 CALLDATALOAD SWAP1 POP PUSH2 0x4EE2 DUP2 PUSH2 0x4EBE JUMP JUMPDEST SWAP3 SWAP2 POP POP JUMP JUMPDEST PUSH0 PUSH1 0x20 DUP3 DUP5 SUB SLT ISZERO PUSH2 0x4EFD JUMPI PUSH2 0x4EFC PUSH2 0x4BD4 JUMP JUMPDEST JUMPDEST PUSH0 PUSH2 0x4F0A DUP5 DUP3 DUP6 ADD PUSH2 0x4ED4 JUMP JUMPDEST SWAP2 POP POP SWAP3 SWAP2 POP POP JUMP JUMPDEST PUSH2 0x4F1C DUP2 PUSH2 0x4EB5 JUMP JUMPDEST DUP3 MSTORE POP POP JUMP JUMPDEST PUSH0 PUSH1 0x20 DUP3 ADD SWAP1 POP PUSH2 0x4F35 PUSH0 DUP4 ADD DUP5 PUSH2 0x4F13 JUMP JUMPDEST SWAP3 SWAP2 POP POP JUMP JUMPDEST PUSH0 PUSH0 PUSH1 0x40 DUP4 DUP6 SUB SLT ISZERO PUSH2 0x4F51 JUMPI PUSH2 0x4F50 PUSH2 0x4BD4 JUMP JUMPDEST JUMPDEST PUSH0 PUSH2 0x4F5E DUP6 DUP3 DUP7 ADD PUSH2 0x4ED4 JUMP JUMPDEST SWAP3 POP POP PUSH1 0x20 PUSH2 0x4F6F DUP6 DUP3 DUP7 ADD PUSH2 0x4DEB JUMP JUMPDEST SWAP2 POP POP SWAP3 POP SWAP3 SWAP1 POP JUMP JUMPDEST PUSH0 DUP2 MLOAD SWAP1 POP SWAP2 SWAP1 POP JUMP JUMPDEST PUSH0 DUP3 DUP3 MSTORE PUSH1 0x20 DUP3 ADD SWAP1 POP SWAP3 SWAP2 POP POP JUMP JUMPDEST PUSH0 DUP2 SWAP1 POP PUSH1 0x20 DUP3 ADD SWAP1 POP SWAP2 SWAP1 POP JUMP JUMPDEST PUSH2 0x4FAB DUP2 PUSH2 0x4D9C JUMP JUMPDEST DUP3 MSTORE POP POP JUMP JUMPDEST PUSH0 PUSH2 0x4FBC DUP4 DUP4 PUSH2 0x4FA2 JUMP JUMPDEST PUSH1 0x20 DUP4 ADD SWAP1 POP SWAP3 SWAP2 POP POP JUMP JUMPDEST PUSH0 PUSH1 0x20 DUP3 ADD SWAP1 POP SWAP2 SWAP1 POP JUMP JUMPDEST PUSH0 PUSH2 0x4FDE DUP3 PUSH2 0x4F79 JUMP JUMPDEST PUSH2 0x4FE8 DUP2 DUP6 PUSH2 0x4F83 JUMP JUMPDEST SWAP4 POP PUSH2 0x4FF3 DUP4 PUSH2 0x4F93 JUMP JUMPDEST DUP1 PUSH0 JUMPDEST DUP4 DUP2 LT ISZERO PUSH2 0x5023 JUMPI DUP2 MLOAD PUSH2 0x500A DUP9 DUP3 PUSH2 0x4FB1 JUMP JUMPDEST SWAP8 POP PUSH2 0x5015 DUP4 PUSH2 0x4FC8 JUMP JUMPDEST SWAP3 POP POP PUSH1 0x1 DUP2 ADD SWAP1 POP PUSH2 0x4FF6 JUMP JUMPDEST POP DUP6 SWAP4 POP POP POP POP SWAP3 SWAP2 POP POP JUMP JUMPDEST PUSH0 PUSH1 0x20 DUP3 ADD SWAP1 POP DUP2 DUP2 SUB PUSH0 DUP4 ADD MSTORE PUSH2 0x5048 DUP2 DUP5 PUSH2 0x4FD4 JUMP JUMPDEST SWAP1 POP SWAP3 SWAP2 POP POP JUMP JUMPDEST PUSH0 PUSH0 PUSH1 0x40 DUP4 DUP6 SUB SLT ISZERO PUSH2 0x5066 JUMPI PUSH2 0x5065 PUSH2 0x4BD4 JUMP JUMPDEST JUMPDEST PUSH0 PUSH2 0x5073 DUP6 DUP3 DUP7 ADD PUSH2 0x4D3E JUMP JUMPDEST SWAP3 POP POP PUSH1 0x20 PUSH2 0x5084 DUP6 DUP3 DUP7 ADD PUSH2 0x4D3E JUMP JUMPDEST SWAP2 POP POP SWAP3 POP SWAP3 SWAP1 POP JUMP JUMPDEST PUSH0 PUSH0 REVERT JUMPDEST PUSH0 PUSH0 REVERT JUMPDEST PUSH32 0x4E487B7100000000000000000000000000000000000000000000000000000000 PUSH0 MSTORE PUSH1 0x41 PUSH1 0x4 MSTORE PUSH1 0x24 PUSH0 REVERT JUMPDEST PUSH2 0x50CC DUP3 PUSH2 0x4CB7 JUMP JUMPDEST DUP2 ADD DUP2 DUP2 LT PUSH8 0xFFFFFFFFFFFFFFFF DUP3 GT OR ISZERO PUSH2 0x50EB JUMPI PUSH2 0x50EA PUSH2 0x5096 JUMP JUMPDEST JUMPDEST DUP1 PUSH1 0x40 MSTORE POP POP POP JUMP JUMPDEST PUSH0 PUSH2 0x50FD PUSH2 0x4BCB JUMP JUMPDEST SWAP1 POP PUSH2 0x5109 DUP3 DUP3 PUSH2 0x50C3 JUMP JUMPDEST SWAP2 SWAP1 POP JUMP JUMPDEST PUSH0 PUSH8 0xFFFFFFFFFFFFFFFF DUP3 GT ISZERO PUSH2 0x5128 JUMPI PUSH2 0x5127 PUSH2 0x5096 JUMP JUMPDEST JUMPDEST PUSH2 0x5131 DUP3 PUSH2 0x4CB7 JUMP JUMPDEST SWAP1 POP PUSH1 0x20 DUP2 ADD SWAP1 POP SWAP2 SWAP1 POP JUMP JUMPDEST DUP3 DUP2 DUP4 CALLDATACOPY PUSH0 DUP4 DUP4 ADD MSTORE POP POP POP JUMP JUMPDEST PUSH0 PUSH2 0x515E PUSH2 0x5159 DUP5 PUSH2 0x510E JUMP JUMPDEST PUSH2 0x50F4 JUMP JUMPDEST SWAP1 POP DUP3 DUP2 MSTORE PUSH1 0x20 DUP2 ADD DUP5 DUP5 DUP5 ADD GT ISZERO PUSH2 0x517A JUMPI PUSH2 0x5179 PUSH2 0x5092 JUMP JUMPDEST JUMPDEST PUSH2 0x5185 DUP5 DUP3 DUP6 PUSH2 0x513E JUMP JUMPDEST POP SWAP4 SWAP3 POP POP POP JUMP JUMPDEST PUSH0 DUP3 PUSH1 0x1F DUP4 ADD SLT PUSH2 0x51A1 JUMPI PUSH2 0x51A0 PUSH2 0x508E JUMP JUMPDEST JUMPDEST DUP2 CALLDATALOAD PUSH2 0x51B1 DUP5 DUP3 PUSH1 0x20 DUP7 ADD PUSH2 0x514C JUMP JUMPDEST SWAP2 POP POP SWAP3 SWAP2 POP POP JUMP JUMPDEST PUSH0 PUSH8 0xFFFFFFFFFFFFFFFF DUP3 GT ISZERO PUSH2 0x51D4 JUMPI PUSH2 0x51D3 PUSH2 0x5096 JUMP JUMPDEST JUMPDEST PUSH1 0x20 DUP3 MUL SWAP1 POP PUSH1 0x20 DUP2 ADD SWAP1 POP SWAP2 SWAP1 POP JUMP JUMPDEST PUSH0 PUSH0 REVERT JUMPDEST PUSH0 PUSH2 0x51FB PUSH2 0x51F6 DUP5 PUSH2 0x51BA JUMP JUMPDEST PUSH2 0x50F4 JUMP JUMPDEST SWAP1 POP DUP1 DUP4 DUP3 MSTORE PUSH1 0x20 DUP3 ADD SWAP1 POP PUSH1 0x20 DUP5 MUL DUP4 ADD DUP6 DUP2 GT ISZERO PUSH2 0x521E JUMPI PUSH2 0x521D PUSH2 0x51E5 JUMP JUMPDEST JUMPDEST DUP4 JUMPDEST DUP2 DUP2 LT ISZERO PUSH2 0x5247 JUMPI DUP1 PUSH2 0x5233 DUP9 DUP3 PUSH2 0x4DEB JUMP JUMPDEST DUP5 MSTORE PUSH1 0x20 DUP5 ADD SWAP4 POP POP PUSH1 0x20 DUP2 ADD SWAP1 POP PUSH2 0x5220 JUMP JUMPDEST POP POP POP SWAP4 SWAP3 POP POP POP JUMP JUMPDEST PUSH0 DUP3 PUSH1 0x1F DUP4 ADD SLT PUSH2 0x5265 JUMPI PUSH2 0x5264 PUSH2 0x508E JUMP JUMPDEST JUMPDEST DUP2 CALLDATALOAD PUSH2 0x5275 DUP5 DUP3 PUSH1 0x20 DUP7 ADD PUSH2 0x51E9 JUMP JUMPDEST SWAP2 POP POP SWAP3 SWAP2 POP POP JUMP JUMPDEST PUSH0 PUSH0 PUSH0 PUSH0 PUSH1 0x80 DUP6 DUP8 SUB SLT ISZERO PUSH2 0x5296 JUMPI PUSH2 0x5295 PUSH2 0x4BD4 JUMP JUMPDEST JUMPDEST PUSH0 PUSH2 0x52A3 DUP8 DUP3 DUP9 ADD PUSH2 0x4DEB JUMP JUMPDEST SWAP5 POP POP PUSH1 0x20 DUP6 ADD CALLDATALOAD PUSH8 0xFFFFFFFFFFFFFFFF DUP2 GT ISZERO PUSH2 0x52C4 JUMPI PUSH2 0x52C3 PUSH2 0x4BD8 JUMP JUMPDEST JUMPDEST PUSH2 0x52D0 DUP8 DUP3 DUP9 ADD PUSH2 0x518D JUMP JUMPDEST SWAP4 POP POP PUSH1 0x40 PUSH2 0x52E1 DUP8 DUP3 DUP9 ADD PUSH2 0x4D3E JUMP JUMPDEST SWAP3 POP POP PUSH1 0x60 DUP6 ADD CALLDATALOAD PUSH8 0xFFFFFFFFFFFFFFFF DUP2 GT ISZERO PUSH2 0x5302 JUMPI PUSH2 0x5301 PUSH2 0x4BD8 JUMP JUMPDEST JUMPDEST PUSH2 0x530E DUP8 DUP3 DUP9 ADD PUSH2 0x5251 JUMP JUMPDEST SWAP2 POP POP SWAP3 SWAP6 SWAP2 SWAP5 POP SWAP3 POP JUMP JUMPDEST PUSH0 PUSH0 PUSH1 0x40 DUP4 DUP6 SUB SLT ISZERO PUSH2 0x5330 JUMPI PUSH2 0x532F PUSH2 0x4BD4 JUMP JUMPDEST JUMPDEST PUSH0 DUP4 ADD CALLDATALOAD PUSH8 0xFFFFFFFFFFFFFFFF DUP2 GT ISZERO PUSH2 0x534D JUMPI PUSH2 0x534C PUSH2 0x4BD8 JUMP JUMPDEST JUMPDEST PUSH2 0x5359 DUP6 DUP3 DUP7 ADD PUSH2 0x518D JUMP JUMPDEST SWAP3 POP POP PUSH1 0x20 DUP4 ADD CALLDATALOAD PUSH8 0xFFFFFFFFFFFFFFFF DUP2 GT ISZERO PUSH2 0x537A JUMPI PUSH2 0x5379 PUSH2 0x4BD8 JUMP JUMPDEST JUMPDEST PUSH2 0x5386 DUP6 DUP3 DUP7 ADD PUSH2 0x518D JUMP JUMPDEST SWAP2 POP POP SWAP3 POP SWAP3 SWAP1 POP JUMP JUMPDEST PUSH0 PUSH8 0xFFFFFFFFFFFFFFFF DUP3 GT ISZERO PUSH2 0x53AA JUMPI PUSH2 0x53A9 PUSH2 0x5096 JUMP JUMPDEST JUMPDEST PUSH2 0x53B3 DUP3 PUSH2 0x4CB7 JUMP JUMPDEST SWAP1 POP PUSH1 0x20 DUP2 ADD SWAP1 POP SWAP2 SWAP1 POP JUMP JUMPDEST PUSH0 PUSH2 0x53D2 PUSH2 0x53CD DUP5 PUSH2 0x5390 JUMP JUMPDEST PUSH2 0x50F4 JUMP JUMPDEST SWAP1 POP DUP3 DUP2 MSTORE PUSH1 0x20 DUP2 ADD DUP5 DUP5 DUP5 ADD GT ISZERO PUSH2 0x53EE JUMPI PUSH2 0x53ED PUSH2 0x5092 JUMP JUMPDEST JUMPDEST PUSH2 0x53F9 DUP5 DUP3 DUP6 PUSH2 0x513E JUMP JUMPDEST POP SWAP4 SWAP3 POP POP POP JUMP JUMPDEST PUSH0 DUP3 PUSH1 0x1F DUP4 ADD SLT PUSH2 0x5415 JUMPI PUSH2 0x5414 PUSH2 0x508E JUMP JUMPDEST JUMPDEST DUP2 CALLDATALOAD PUSH2 0x5425 DUP5 DUP3 PUSH1 0x20 DUP7 ADD PUSH2 0x53C0 JUMP JUMPDEST SWAP2 POP POP SWAP3 SWAP2 POP POP JUMP JUMPDEST PUSH0 PUSH0 PUSH1 0x40 DUP4 DUP6 SUB SLT ISZERO PUSH2 0x5444 JUMPI PUSH2 0x5443 PUSH2 0x4BD4 JUMP JUMPDEST JUMPDEST PUSH0 PUSH2 0x5451 DUP6 DUP3 DUP7 ADD PUSH2 0x4DEB JUMP JUMPDEST SWAP3 POP POP PUSH1 0x20 DUP4 ADD CALLDATALOAD PUSH8 0xFFFFFFFFFFFFFFFF DUP2 GT ISZERO PUSH2 0x5472 JUMPI PUSH2 0x5471 PUSH2 0x4BD8 JUMP JUMPDEST JUMPDEST PUSH2 0x547E DUP6 DUP3 DUP7 ADD PUSH2 0x5401 JUMP JUMPDEST SWAP2 POP POP SWAP3 POP SWAP3 SWAP1 POP JUMP JUMPDEST PUSH0 PUSH8 0xFFFFFFFFFFFFFFFF DUP3 GT ISZERO PUSH2 0x54A2 JUMPI PUSH2 0x54A1 PUSH2 0x5096 JUMP JUMPDEST JUMPDEST PUSH1 0x20 DUP3 MUL SWAP1 POP PUSH1 0x20 DUP2 ADD SWAP1 POP SWAP2 SWAP1 POP JUMP JUMPDEST PUSH0 PUSH2 0x54C5 PUSH2 0x54C0 DUP5 PUSH2 0x5488 JUMP JUMPDEST PUSH2 0x50F4 JUMP JUMPDEST SWAP1 POP DUP1 DUP4 DUP3 MSTORE PUSH1 0x20 DUP3 ADD SWAP1 POP PUSH1 0x20 DUP5 MUL DUP4 ADD DUP6 DUP2 GT ISZERO PUSH2 0x54E8 JUMPI PUSH2 0x54E7 PUSH2 0x51E5 JUMP JUMPDEST JUMPDEST DUP4 JUMPDEST DUP2 DUP2 LT ISZERO PUSH2 0x5511 JUMPI DUP1 PUSH2 0x54FD DUP9 DUP3 PUSH2 0x4D3E JUMP JUMPDEST DUP5 MSTORE PUSH1 0x20 DUP5 ADD SWAP4 POP POP PUSH1 0x20 DUP2 ADD SWAP1 POP PUSH2 0x54EA JUMP JUMPDEST POP POP POP SWAP4 SWAP3 POP POP POP JUMP JUMPDEST PUSH0 DUP3 PUSH1 0x1F DUP4 ADD SLT PUSH2 0x552F JUMPI PUSH2 0x552E PUSH2 0x508E JUMP JUMPDEST JUMPDEST DUP2 CALLDATALOAD PUSH2 0x553F DUP5 DUP3 PUSH1 0x20 DUP7 ADD PUSH2 0x54B3 JUMP JUMPDEST SWAP2 POP POP SWAP3 SWAP2 POP POP JUMP JUMPDEST PUSH0 PUSH0 PUSH1 0x40 DUP4 DUP6 SUB SLT ISZERO PUSH2 0x555E JUMPI PUSH2 0x555D PUSH2 0x4BD4 JUMP JUMPDEST JUMPDEST PUSH0 DUP4 ADD CALLDATALOAD PUSH8 0xFFFFFFFFFFFFFFFF DUP2 GT ISZERO PUSH2 0x557B JUMPI PUSH2 0x557A PUSH2 0x4BD8 JUMP JUMPDEST JUMPDEST PUSH2 0x5587 DUP6 DUP3 DUP7 ADD PUSH2 0x5251 JUMP JUMPDEST SWAP3 POP POP PUSH1 0x20 DUP4 ADD CALLDATALOAD PUSH8 0xFFFFFFFFFFFFFFFF DUP2 GT ISZERO PUSH2 0x55A8 JUMPI PUSH2 0x55A7 PUSH2 0x4BD8 JUMP JUMPDEST JUMPDEST PUSH2 0x55B4 DUP6 DUP3 DUP7 ADD PUSH2 0x551B JUMP JUMPDEST SWAP2 POP POP SWAP3 POP SWAP3 SWAP1 POP JUMP JUMPDEST PUSH0 PUSH0 PUSH1 0x40 DUP4 DUP6 SUB SLT ISZERO PUSH2 0x55D4 JUMPI PUSH2 0x55D3 PUSH2 0x4BD4 JUMP JUMPDEST JUMPDEST PUSH0 PUSH2 0x55E1 DUP6 DUP3 DUP7 ADD PUSH2 0x4D3E JUMP JUMPDEST SWAP3 POP POP PUSH1 0x20 DUP4 ADD CALLDATALOAD PUSH8 0xFFFFFFFFFFFFFFFF DUP2 GT ISZERO PUSH2 0x5602 JUMPI PUSH2 0x5601 PUSH2 0x4BD8 JUMP JUMPDEST JUMPDEST PUSH2 0x560E DUP6 DUP3 DUP7 ADD PUSH2 0x518D JUMP JUMPDEST SWAP2 POP POP SWAP3 POP SWAP3 SWAP1 POP JUMP JUMPDEST PUSH0 PUSH1 0x20 DUP3 DUP5 SUB SLT ISZERO PUSH2 0x562D JUMPI PUSH2 0x562C PUSH2 0x4BD4 JUMP JUMPDEST JUMPDEST PUSH0 PUSH2 0x563A DUP5 DUP3 DUP6 ADD PUSH2 0x4DEB JUMP JUMPDEST SWAP2 POP POP SWAP3 SWAP2 POP POP JUMP JUMPDEST PUSH0 PUSH0 PUSH0 PUSH1 0x60 DUP5 DUP7 SUB SLT ISZERO PUSH2 0x565A JUMPI PUSH2 0x5659 PUSH2 0x4BD4 JUMP JUMPDEST JUMPDEST PUSH0 PUSH2 0x5667 DUP7 DUP3 DUP8 ADD PUSH2 0x4D3E JUMP JUMPDEST SWAP4 POP POP PUSH1 0x20 PUSH2 0x5678 DUP7 DUP3 DUP8 ADD PUSH2 0x4DEB JUMP JUMPDEST SWAP3 POP POP PUSH1 0x40 PUSH2 0x5689 DUP7 DUP3 DUP8 ADD PUSH2 0x4D3E JUMP JUMPDEST SWAP2 POP POP SWAP3 POP SWAP3 POP SWAP3 JUMP JUMPDEST PUSH0 DUP2 MLOAD SWAP1 POP SWAP2 SWAP1 POP JUMP JUMPDEST PUSH0 DUP3 DUP3 MSTORE PUSH1 0x20 DUP3 ADD SWAP1 POP SWAP3 SWAP2 POP POP JUMP JUMPDEST PUSH0 DUP2 SWAP1 POP PUSH1 0x20 DUP3 ADD SWAP1 POP SWAP2 SWAP1 POP JUMP JUMPDEST PUSH2 0x56C5 DUP2 PUSH2 0x4D1F JUMP JUMPDEST DUP3 MSTORE POP POP JUMP JUMPDEST PUSH0 PUSH2 0x56D6 DUP4 DUP4 PUSH2 0x56BC JUMP JUMPDEST PUSH1 0x20 DUP4 ADD SWAP1 POP SWAP3 SWAP2 POP POP JUMP JUMPDEST PUSH0 PUSH1 0x20 DUP3 ADD SWAP1 POP SWAP2 SWAP1 POP JUMP JUMPDEST PUSH0 PUSH2 0x56F8 DUP3 PUSH2 0x5693 JUMP JUMPDEST PUSH2 0x5702 DUP2 DUP6 PUSH2 0x569D JUMP JUMPDEST SWAP4 POP PUSH2 0x570D DUP4 PUSH2 0x56AD JUMP JUMPDEST DUP1 PUSH0 JUMPDEST DUP4 DUP2 LT ISZERO PUSH2 0x573D JUMPI DUP2 MLOAD PUSH2 0x5724 DUP9 DUP3 PUSH2 0x56CB JUMP JUMPDEST SWAP8 POP PUSH2 0x572F DUP4 PUSH2 0x56E2 JUMP JUMPDEST SWAP3 POP POP PUSH1 0x1 DUP2 ADD SWAP1 POP PUSH2 0x5710 JUMP JUMPDEST POP DUP6 SWAP4 POP POP POP POP SWAP3 SWAP2 POP POP JUMP JUMPDEST PUSH0 PUSH1 0x20 DUP3 ADD SWAP1 POP DUP2 DUP2 SUB PUSH0 DUP4 ADD MSTORE PUSH2 0x5762 DUP2 DUP5 PUSH2 0x56EE JUMP JUMPDEST SWAP1 POP SWAP3 SWAP2 POP POP JUMP JUMPDEST PUSH2 0x5773 DUP2 PUSH2 0x4C5C JUMP JUMPDEST DUP2 EQ PUSH2 0x577D JUMPI PUSH0 PUSH0 REVERT JUMPDEST POP JUMP JUMPDEST PUSH0 DUP2 CALLDATALOAD SWAP1 POP PUSH2 0x578E DUP2 PUSH2 0x576A JUMP JUMPDEST SWAP3 SWAP2 POP POP JUMP JUMPDEST PUSH0 PUSH0 PUSH1 0x40 DUP4 DUP6 SUB SLT ISZERO PUSH2 0x57AA JUMPI PUSH2 0x57A9 PUSH2 0x4BD4 JUMP JUMPDEST JUMPDEST PUSH0 PUSH2 0x57B7 DUP6 DUP3 DUP7 ADD PUSH2 0x4DEB JUMP JUMPDEST SWAP3 POP POP PUSH1 0x20 PUSH2 0x57C8 DUP6 DUP3 DUP7 ADD PUSH2 0x5780 JUMP JUMPDEST SWAP2 POP POP SWAP3 POP SWAP3 SWAP1 POP JUMP JUMPDEST PUSH0 PUSH0 PUSH0 PUSH0 PUSH1 0x80 DUP6 DUP8 SUB SLT ISZERO PUSH2 0x57EA JUMPI PUSH2 0x57E9 PUSH2 0x4BD4 JUMP JUMPDEST JUMPDEST PUSH0 PUSH2 0x57F7 DUP8 DUP3 DUP9 ADD PUSH2 0x4DEB JUMP JUMPDEST SWAP5 POP POP PUSH1 0x20 PUSH2 0x5808 DUP8 DUP3 DUP9 ADD PUSH2 0x4DEB JUMP JUMPDEST SWAP4 POP POP PUSH1 0x40 PUSH2 0x5819 DUP8 DUP3 DUP9 ADD PUSH2 0x4D3E JUMP JUMPDEST SWAP3 POP POP PUSH1 0x60 DUP6 ADD CALLDATALOAD PUSH8 0xFFFFFFFFFFFFFFFF DUP2 GT ISZERO PUSH2 0x583A JUMPI PUSH2 0x5839 PUSH2 0x4BD8 JUMP JUMPDEST JUMPDEST PUSH2 0x5846 DUP8 DUP3 DUP9 ADD PUSH2 0x5401 JUMP JUMPDEST SWAP2 POP POP SWAP3 SWAP6 SWAP2 SWAP5 POP SWAP3 POP JUMP JUMPDEST PUSH0 PUSH0 PUSH1 0x40 DUP4 DUP6 SUB SLT ISZERO PUSH2 0x5868 JUMPI PUSH2 0x5867 PUSH2 0x4BD4 JUMP JUMPDEST JUMPDEST PUSH0 PUSH2 0x5875 DUP6 DUP3 DUP7 ADD PUSH2 0x4DEB JUMP JUMPDEST SWAP3 POP POP PUSH1 0x20 PUSH2 0x5886 DUP6 DUP3 DUP7 ADD PUSH2 0x4DEB JUMP JUMPDEST SWAP2 POP POP SWAP3 POP SWAP3 SWAP1 POP JUMP JUMPDEST PUSH32 0x4E487B7100000000000000000000000000000000000000000000000000000000 PUSH0 MSTORE PUSH1 0x22 PUSH1 0x4 MSTORE PUSH1 0x24 PUSH0 REVERT JUMPDEST PUSH0 PUSH1 0x2 DUP3 DIV SWAP1 POP PUSH1 0x1 DUP3 AND DUP1 PUSH2 0x58D4 JUMPI PUSH1 0x7F DUP3 AND SWAP2 POP JUMPDEST PUSH1 0x20 DUP3 LT DUP2 SUB PUSH2 0x58E7 JUMPI PUSH2 0x58E6 PUSH2 0x5890 JUMP JUMPDEST JUMPDEST POP SWAP2 SWAP1 POP JUMP JUMPDEST PUSH0 PUSH1 0x60 DUP3 ADD SWAP1 POP PUSH2 0x5900 PUSH0 DUP4 ADD DUP7 PUSH2 0x4DAD JUMP JUMPDEST PUSH2 0x590D PUSH1 0x20 DUP4 ADD DUP6 PUSH2 0x4E3D JUMP JUMPDEST PUSH2 0x591A PUSH1 0x40 DUP4 ADD DUP5 PUSH2 0x4DAD JUMP JUMPDEST SWAP5 SWAP4 POP POP POP POP JUMP JUMPDEST PUSH0 PUSH1 0x40 DUP3 ADD SWAP1 POP PUSH2 0x5935 PUSH0 DUP4 ADD DUP6 PUSH2 0x4DAD JUMP JUMPDEST PUSH2 0x5942 PUSH1 0x20 DUP4 ADD DUP5 PUSH2 0x4E3D JUMP JUMPDEST SWAP4 SWAP3 POP POP POP JUMP JUMPDEST PUSH32 0x4E487B7100000000000000000000000000000000000000000000000000000000 PUSH0 MSTORE PUSH1 0x32 PUSH1 0x4 MSTORE PUSH1 0x24 PUSH0 REVERT JUMPDEST PUSH0 PUSH1 0x40 DUP3 ADD SWAP1 POP PUSH2 0x5989 PUSH0 DUP4 ADD DUP6 PUSH2 0x4C67 JUMP JUMPDEST PUSH2 0x5996 PUSH1 0x20 DUP4 ADD DUP5 PUSH2 0x4E3D JUMP JUMPDEST SWAP4 SWAP3 POP POP POP JUMP JUMPDEST PUSH32 0x4E487B7100000000000000000000000000000000000000000000000000000000 PUSH0 MSTORE PUSH1 0x12 PUSH1 0x4 MSTORE PUSH1 0x24 PUSH0 REVERT JUMPDEST PUSH0 PUSH1 0x60 DUP3 ADD SWAP1 POP PUSH2 0x59DD PUSH0 DUP4 ADD DUP7 PUSH2 0x4E3D JUMP JUMPDEST PUSH2 0x59EA PUSH1 0x20 DUP4 ADD DUP6 PUSH2 0x4E3D JUMP JUMPDEST PUSH2 0x59F7 PUSH1 0x40 DUP4 ADD DUP5 PUSH2 0x4E3D JUMP JUMPDEST SWAP5 SWAP4 POP POP POP POP JUMP JUMPDEST PUSH0 PUSH1 0x60 DUP3 ADD SWAP1 POP PUSH2 0x5A12 PUSH0 DUP4 ADD DUP7 PUSH2 0x4DAD JUMP JUMPDEST PUSH2 0x5A1F PUSH1 0x20 DUP4 ADD DUP6 PUSH2 0x4DAD JUMP JUMPDEST PUSH2 0x5A2C PUSH1 0x40 DUP4 ADD DUP5 PUSH2 0x4E3D JUMP JUMPDEST SWAP5 SWAP4 POP POP POP POP JUMP JUMPDEST PUSH0 DUP2 MLOAD SWAP1 POP PUSH2 0x5A42 DUP2 PUSH2 0x576A JUMP JUMPDEST SWAP3 SWAP2 POP POP JUMP JUMPDEST PUSH0 PUSH1 0x20 DUP3 DUP5 SUB SLT ISZERO PUSH2 0x5A5D JUMPI PUSH2 0x5A5C PUSH2 0x4BD4 JUMP JUMPDEST JUMPDEST PUSH0 PUSH2 0x5A6A DUP5 DUP3 DUP6 ADD PUSH2 0x5A34 JUMP JUMPDEST SWAP2 POP POP SWAP3 SWAP2 POP POP JUMP JUMPDEST PUSH32 0x4E487B7100000000000000000000000000000000000000000000000000000000 PUSH0 MSTORE PUSH1 0x11 PUSH1 0x4 MSTORE PUSH1 0x24 PUSH0 REVERT JUMPDEST PUSH0 PUSH2 0x5AAA DUP3 PUSH2 0x4D1F JUMP JUMPDEST SWAP2 POP PUSH32 0xFFFFFFFFFFFFFFFFFFFFFFFFFFFFFFFFFFFFFFFFFFFFFFFFFFFFFFFFFFFFFFFF DUP3 SUB PUSH2 0x5ADC JUMPI PUSH2 0x5ADB PUSH2 0x5A73 JUMP JUMPDEST JUMPDEST PUSH1 0x1 DUP3 ADD SWAP1 POP SWAP2 SWAP1 POP JUMP JUMPDEST PUSH0 DUP2 SWAP1 POP DUP2 PUSH0 MSTORE PUSH1 0x20 PUSH0 KECCAK256 SWAP1 POP SWAP2 SWAP1 POP JUMP JUMPDEST PUSH0 PUSH1 0x20 PUSH1 0x1F DUP4 ADD DIV SWAP1 POP SWAP2 SWAP1 POP JUMP JUMPDEST PUSH0 DUP3 DUP3 SHL SWAP1 POP SWAP3 SWAP2 POP POP JUMP JUMPDEST PUSH0 PUSH1 0x8 DUP4 MUL PUSH2 0x5B43 PUSH32 0xFFFFFFFFFFFFFFFFFFFFFFFFFFFFFFFFFFFFFFFFFFFFFFFFFFFFFFFFFFFFFFFF DUP3 PUSH2 0x5B08 JUMP JUMPDEST PUSH2 0x5B4D DUP7 DUP4 PUSH2 0x5B08 JUMP JUMPDEST SWAP6 POP DUP1 NOT DUP5 AND SWAP4 POP DUP1 DUP7 AND DUP5 OR SWAP3 POP POP POP SWAP4 SWAP3 POP POP POP JUMP JUMPDEST PUSH0 DUP2 SWAP1 POP SWAP2 SWAP1 POP JUMP JUMPDEST PUSH0 PUSH2 0x5B88 PUSH2 0x5B83 PUSH2 0x5B7E DUP5 PUSH2 0x4D1F JUMP JUMPDEST PUSH2 0x5B65 JUMP JUMPDEST PUSH2 0x4D1F JUMP JUMPDEST SWAP1 POP SWAP2 SWAP1 POP JUMP JUMPDEST PUSH0 DUP2 SWAP1 POP SWAP2 SWAP1 POP JUMP JUMPDEST PUSH2 0x5BA1 DUP4 PUSH2 0x5B6E JUMP JUMPDEST PUSH2 0x5BB5 PUSH2 0x5BAD DUP3 PUSH2 0x5B8F JUMP JUMPDEST DUP5 DUP5 SLOAD PUSH2 0x5B14 JUMP JUMPDEST DUP3 SSTORE POP POP POP POP JUMP JUMPDEST PUSH0 PUSH0 SWAP1 POP SWAP1 JUMP JUMPDEST PUSH2 0x5BCC PUSH2 0x5BBD JUMP JUMPDEST PUSH2 0x5BD7 DUP2 DUP5 DUP5 PUSH2 0x5B98 JUMP JUMPDEST POP POP POP JUMP JUMPDEST JUMPDEST DUP2 DUP2 LT ISZERO PUSH2 0x5BFA JUMPI PUSH2 0x5BEF PUSH0 DUP3 PUSH2 0x5BC4 JUMP JUMPDEST PUSH1 0x1 DUP2 ADD SWAP1 POP PUSH2 0x5BDD JUMP JUMPDEST POP POP JUMP JUMPDEST PUSH1 0x1F DUP3 GT ISZERO PUSH2 0x5C3F JUMPI PUSH2 0x5C10 DUP2 PUSH2 0x5AE7 JUMP JUMPDEST PUSH2 0x5C19 DUP5 PUSH2 0x5AF9 JUMP JUMPDEST DUP2 ADD PUSH1 0x20 DUP6 LT ISZERO PUSH2 0x5C28 JUMPI DUP2 SWAP1 POP JUMPDEST PUSH2 0x5C3C PUSH2 0x5C34 DUP6 PUSH2 0x5AF9 JUMP JUMPDEST DUP4 ADD DUP3 PUSH2 0x5BDC JUMP JUMPDEST POP POP JUMPDEST POP POP POP JUMP JUMPDEST PUSH0 DUP3 DUP3 SHR SWAP1 POP SWAP3 SWAP2 POP POP JUMP JUMPDEST PUSH0 PUSH2 0x5C5F PUSH0 NOT DUP5 PUSH1 0x8 MUL PUSH2 0x5C44 JUMP JUMPDEST NOT DUP1 DUP4 AND SWAP2 POP POP SWAP3 SWAP2 POP POP JUMP JUMPDEST PUSH0 PUSH2 0x5C77 DUP4 DUP4 PUSH2 0x5C50 JUMP JUMPDEST SWAP2 POP DUP3 PUSH1 0x2 MUL DUP3 OR SWAP1 POP SWAP3 SWAP2 POP POP JUMP JUMPDEST PUSH2 0x5C90 DUP3 PUSH2 0x4C8F JUMP JUMPDEST PUSH8 0xFFFFFFFFFFFFFFFF DUP2 GT ISZERO PUSH2 0x5CA9 JUMPI PUSH2 0x5CA8 PUSH2 0x5096 JUMP JUMPDEST JUMPDEST PUSH2 0x5CB3 DUP3 SLOAD PUSH2 0x58BD JUMP JUMPDEST PUSH2 0x5CBE DUP3 DUP3 DUP6 PUSH2 0x5BFE JUMP JUMPDEST PUSH0 PUSH1 0x20 SWAP1 POP PUSH1 0x1F DUP4 GT PUSH1 0x1 DUP2 EQ PUSH2 0x5CEF JUMPI PUSH0 DUP5 ISZERO PUSH2 0x5CDD JUMPI DUP3 DUP8 ADD MLOAD SWAP1 POP JUMPDEST PUSH2 0x5CE7 DUP6 DUP3 PUSH2 0x5C6C JUMP JUMPDEST DUP7 SSTORE POP PUSH2 0x5D4E JUMP JUMPDEST PUSH1 0x1F NOT DUP5 AND PUSH2 0x5CFD DUP7 PUSH2 0x5AE7 JUMP JUMPDEST PUSH0 JUMPDEST DUP3 DUP2 LT ISZERO PUSH2 0x5D24 JUMPI DUP5 DUP10 ADD MLOAD DUP3 SSTORE PUSH1 0x1 DUP3 ADD SWAP2 POP PUSH1 0x20 DUP6 ADD SWAP5 POP PUSH1 0x20 DUP2 ADD SWAP1 POP PUSH2 0x5CFF JUMP JUMPDEST DUP7 DUP4 LT ISZERO PUSH2 0x5D41 JUMPI DUP5 DUP10 ADD MLOAD PUSH2 0x5D3D PUSH1 0x1F DUP10 AND DUP3 PUSH2 0x5C50 JUMP JUMPDEST DUP4 SSTORE POP JUMPDEST PUSH1 0x1 PUSH1 0x2 DUP9 MUL ADD DUP9 SSTORE POP POP POP JUMPDEST POP POP POP POP POP POP JUMP JUMPDEST PUSH0 DUP2 SWAP1 POP SWAP2 SWAP1 POP JUMP JUMPDEST PUSH0 PUSH8 0xFFFFFFFFFFFFFFFF DUP3 AND SWAP1 POP SWAP2 SWAP1 POP JUMP JUMPDEST PUSH0 PUSH2 0x5D8C PUSH2 0x5D87 PUSH2 0x5D82 DUP5 PUSH2 0x5D56 JUMP JUMPDEST PUSH2 0x5B65 JUMP JUMPDEST PUSH2 0x5D5F JUMP JUMPDEST SWAP1 POP SWAP2 SWAP1 POP JUMP JUMPDEST PUSH2 0x5D9C DUP2 PUSH2 0x5D72 JUMP JUMPDEST DUP3 MSTORE POP POP JUMP JUMPDEST PUSH0 PUSH1 0x20 DUP3 ADD SWAP1 POP PUSH2 0x5DB5 PUSH0 DUP4 ADD DUP5 PUSH2 0x5D93 JUMP JUMPDEST SWAP3 SWAP2 POP POP JUMP JUMPDEST PUSH32 0x4F6E6C7920746865206F776E65722063616E2072656E74206F75742074686520 PUSH0 DUP3 ADD MSTORE PUSH32 0x746F6B656E000000000000000000000000000000000000000000000000000000 PUSH1 0x20 DUP3 ADD MSTORE POP JUMP JUMPDEST PUSH0 PUSH2 0x5E15 PUSH1 0x25 DUP4 PUSH2 0x4C99 JUMP JUMPDEST SWAP2 POP PUSH2 0x5E20 DUP3 PUSH2 0x5DBB JUMP JUMPDEST PUSH1 0x40 DUP3 ADD SWAP1 POP SWAP2 SWAP1 POP JUMP JUMPDEST PUSH0 PUSH1 0x20 DUP3 ADD SWAP1 POP DUP2 DUP2 SUB PUSH0 DUP4 ADD MSTORE PUSH2 0x5E42 DUP2 PUSH2 0x5E09 JUMP JUMPDEST SWAP1 POP SWAP2 SWAP1 POP JUMP JUMPDEST PUSH32 0x546F6B656E20697320616C72656164792072656E746564000000000000000000 PUSH0 DUP3 ADD MSTORE POP JUMP JUMPDEST PUSH0 PUSH2 0x5E7D PUSH1 0x17 DUP4 PUSH2 0x4C99 JUMP JUMPDEST SWAP2 POP PUSH2 0x5E88 DUP3 PUSH2 0x5E49 JUMP JUMPDEST PUSH1 0x20 DUP3 ADD SWAP1 POP SWAP2 SWAP1 POP JUMP JUMPDEST PUSH0 PUSH1 0x20 DUP3 ADD SWAP1 POP DUP2 DUP2 SUB PUSH0 DUP4 ADD MSTORE PUSH2 0x5EAA DUP2 PUSH2 0x5E71 JUMP JUMPDEST SWAP1 POP SWAP2 SWAP1 POP JUMP JUMPDEST PUSH0 PUSH16 0xFFFFFFFFFFFFFFFFFFFFFFFFFFFFFFFF DUP3 AND SWAP1 POP SWAP2 SWAP1 POP JUMP JUMPDEST PUSH0 PUSH2 0x5ED6 DUP3 PUSH2 0x5EB1 JUMP JUMPDEST SWAP2 POP PUSH2 0x5EE1 DUP4 PUSH2 0x5EB1 JUMP JUMPDEST SWAP3 POP DUP3 DUP3 ADD SWAP1 POP PUSH16 0xFFFFFFFFFFFFFFFFFFFFFFFFFFFFFFFF DUP2 GT ISZERO PUSH2 0x5F09 JUMPI PUSH2 0x5F08 PUSH2 0x5A73 JUMP JUMPDEST JUMPDEST SWAP3 SWAP2 POP POP JUMP JUMPDEST PUSH2 0x5F18 DUP2 PUSH2 0x5EB1 JUMP JUMPDEST DUP3 MSTORE POP POP JUMP JUMPDEST PUSH0 PUSH1 0x40 DUP3 ADD SWAP1 POP PUSH2 0x5F31 PUSH0 DUP4 ADD DUP6 PUSH2 0x5F0F JUMP JUMPDEST PUSH2 0x5F3E PUSH1 0x20 DUP4 ADD DUP5 PUSH2 0x4C67 JUMP JUMPDEST SWAP4 SWAP3 POP POP POP JUMP JUMPDEST PUSH32 0x50657263656E74616765206D757374206265206C657373207468616E20313030 PUSH0 DUP3 ADD MSTORE PUSH32 0x3000000000000000000000000000000000000000000000000000000000000000 PUSH1 0x20 DUP3 ADD MSTORE POP JUMP JUMPDEST PUSH0 PUSH2 0x5F9F PUSH1 0x21 DUP4 PUSH2 0x4C99 JUMP JUMPDEST SWAP2 POP PUSH2 0x5FAA DUP3 PUSH2 0x5F45 JUMP JUMPDEST PUSH1 0x40 DUP3 ADD SWAP1 POP SWAP2 SWAP1 POP JUMP JUMPDEST PUSH0 PUSH1 0x20 DUP3 ADD SWAP1 POP DUP2 DUP2 SUB PUSH0 DUP4 ADD MSTORE PUSH2 0x5FCC DUP2 PUSH2 0x5F93 JUMP JUMPDEST SWAP1 POP SWAP2 SWAP1 POP JUMP JUMPDEST PUSH0 PUSH2 0x5FDD DUP3 PUSH2 0x4D1F JUMP JUMPDEST SWAP2 POP PUSH2 0x5FE8 DUP4 PUSH2 0x4D1F JUMP JUMPDEST SWAP3 POP DUP3 DUP3 ADD SWAP1 POP DUP1 DUP3 GT ISZERO PUSH2 0x6000 JUMPI PUSH2 0x5FFF PUSH2 0x5A73 JUMP JUMPDEST JUMPDEST SWAP3 SWAP2 POP POP JUMP JUMPDEST PUSH32 0x4F6E6C79207468652072656E746572206F72206F776E65722063616E20656E64 PUSH0 DUP3 ADD MSTORE PUSH32 0x207468652072656E74616C000000000000000000000000000000000000000000 PUSH1 0x20 DUP3 ADD MSTORE POP JUMP JUMPDEST PUSH0 PUSH2 0x6060 PUSH1 0x2B DUP4 PUSH2 0x4C99 JUMP JUMPDEST SWAP2 POP PUSH2 0x606B DUP3 PUSH2 0x6006 JUMP JUMPDEST PUSH1 0x40 DUP3 ADD SWAP1 POP SWAP2 SWAP1 POP JUMP JUMPDEST PUSH0 PUSH1 0x20 DUP3 ADD SWAP1 POP DUP2 DUP2 SUB PUSH0 DUP4 ADD MSTORE PUSH2 0x608D DUP2 PUSH2 0x6054 JUMP JUMPDEST SWAP1 POP SWAP2 SWAP1 POP JUMP JUMPDEST PUSH32 0x546F6B656E206973206E6F742072656E74656400000000000000000000000000 PUSH0 DUP3 ADD MSTORE POP JUMP JUMPDEST PUSH0 PUSH2 0x60C8 PUSH1 0x13 DUP4 PUSH2 0x4C99 JUMP JUMPDEST SWAP2 POP PUSH2 0x60D3 DUP3 PUSH2 0x6094 JUMP JUMPDEST PUSH1 0x20 DUP3 ADD SWAP1 POP SWAP2 SWAP1 POP JUMP JUMPDEST PUSH0 PUSH1 0x20 DUP3 ADD SWAP1 POP DUP2 DUP2 SUB PUSH0 DUP4 ADD MSTORE PUSH2 0x60F5 DUP2 PUSH2 0x60BC JUMP JUMPDEST SWAP1 POP SWAP2 SWAP1 POP JUMP JUMPDEST PUSH0 PUSH2 0x6106 DUP3 PUSH2 0x4D1F JUMP JUMPDEST SWAP2 POP PUSH2 0x6111 DUP4 PUSH2 0x4D1F JUMP JUMPDEST SWAP3 POP DUP3 DUP3 SUB SWAP1 POP DUP2 DUP2 GT ISZERO PUSH2 0x6129 JUMPI PUSH2 0x6128 PUSH2 0x5A73 JUMP JUMPDEST JUMPDEST SWAP3 SWAP2 POP POP JUMP JUMPDEST PUSH0 DUP2 MLOAD SWAP1 POP PUSH2 0x613D DUP2 PUSH2 0x4EBE JUMP JUMPDEST SWAP3 SWAP2 POP POP JUMP JUMPDEST PUSH0 PUSH1 0x20 DUP3 DUP5 SUB SLT ISZERO PUSH2 0x6158 JUMPI PUSH2 0x6157 PUSH2 0x4BD4 JUMP JUMPDEST JUMPDEST PUSH0 PUSH2 0x6165 DUP5 DUP3 DUP6 ADD PUSH2 0x612F JUMP JUMPDEST SWAP2 POP POP SWAP3 SWAP2 POP POP JUMP JUMPDEST PUSH0 DUP2 MLOAD SWAP1 POP SWAP2 SWAP1 POP JUMP JUMPDEST PUSH0 DUP3 DUP3 MSTORE PUSH1 0x20 DUP3 ADD SWAP1 POP SWAP3 SWAP2 POP POP JUMP JUMPDEST PUSH0 PUSH2 0x6192 DUP3 PUSH2 0x616E JUMP JUMPDEST PUSH2 0x619C DUP2 DUP6 PUSH2 0x6178 JUMP JUMPDEST SWAP4 POP PUSH2 0x61AC DUP2 DUP6 PUSH1 0x20 DUP7 ADD PUSH2 0x4CA9 JUMP JUMPDEST PUSH2 0x61B5 DUP2 PUSH2 0x4CB7 JUMP JUMPDEST DUP5 ADD SWAP2 POP POP SWAP3 SWAP2 POP POP JUMP JUMPDEST PUSH0 PUSH1 0x80 DUP3 ADD SWAP1 POP PUSH2 0x61D3 PUSH0 DUP4 ADD DUP8 PUSH2 0x4DAD JUMP JUMPDEST PUSH2 0x61E0 PUSH1 0x20 DUP4 ADD DUP7 PUSH2 0x4DAD JUMP JUMPDEST PUSH2 0x61ED PUSH1 0x40 DUP4 ADD DUP6 PUSH2 0x4E3D JUMP JUMPDEST DUP2 DUP2 SUB PUSH1 0x60 DUP4 ADD MSTORE PUSH2 0x61FF DUP2 DUP5 PUSH2 0x6188 JUMP JUMPDEST SWAP1 POP SWAP6 SWAP5 POP POP POP POP POP JUMP JUMPDEST PUSH0 DUP2 MLOAD SWAP1 POP PUSH2 0x6218 DUP2 PUSH2 0x4C07 JUMP JUMPDEST SWAP3 SWAP2 POP POP JUMP JUMPDEST PUSH0 PUSH1 0x20 DUP3 DUP5 SUB SLT ISZERO PUSH2 0x6233 JUMPI PUSH2 0x6232 PUSH2 0x4BD4 JUMP JUMPDEST JUMPDEST PUSH0 PUSH2 0x6240 DUP5 DUP3 DUP6 ADD PUSH2 0x620A JUMP JUMPDEST SWAP2 POP POP SWAP3 SWAP2 POP POP JUMP JUMPDEST PUSH0 DUP2 SWAP1 POP SWAP3 SWAP2 POP POP JUMP JUMPDEST PUSH0 PUSH2 0x625D DUP3 PUSH2 0x4C8F JUMP JUMPDEST PUSH2 0x6267 DUP2 DUP6 PUSH2 0x6249 JUMP JUMPDEST SWAP4 POP PUSH2 0x6277 DUP2 DUP6 PUSH1 0x20 DUP7 ADD PUSH2 0x4CA9 JUMP JUMPDEST DUP1 DUP5 ADD SWAP2 POP POP SWAP3 SWAP2 POP POP JUMP JUMPDEST PUSH0 PUSH2 0x628E DUP3 DUP6 PUSH2 0x6253 JUMP JUMPDEST SWAP2 POP PUSH2 0x629A DUP3 DUP5 PUSH2 0x6253 JUMP JUMPDEST SWAP2 POP DUP2 SWAP1 POP SWAP4 SWAP3 POP POP POP JUMP JUMPDEST PUSH0 PUSH1 0x40 DUP3 ADD SWAP1 POP PUSH2 0x62B9 PUSH0 DUP4 ADD DUP6 PUSH2 0x4DAD JUMP JUMPDEST PUSH2 0x62C6 PUSH1 0x20 DUP4 ADD DUP5 PUSH2 0x4F13 JUMP JUMPDEST SWAP4 SWAP3 POP POP POP JUMP JUMPDEST PUSH32 0x4E487B7100000000000000000000000000000000000000000000000000000000 PUSH0 MSTORE PUSH1 0x31 PUSH1 0x4 MSTORE PUSH1 0x24 PUSH0 REVERT JUMPDEST PUSH0 DUP2 SWAP1 POP SWAP3 SWAP2 POP POP JUMP JUMPDEST PUSH0 PUSH2 0x630E DUP3 PUSH2 0x616E JUMP JUMPDEST PUSH2 0x6318 DUP2 DUP6 PUSH2 0x62FA JUMP JUMPDEST SWAP4 POP PUSH2 0x6328 DUP2 DUP6 PUSH1 0x20 DUP7 ADD PUSH2 0x4CA9 JUMP JUMPDEST DUP1 DUP5 ADD SWAP2 POP POP SWAP3 SWAP2 POP POP JUMP JUMPDEST PUSH0 PUSH2 0x633F DUP3 DUP5 PUSH2 0x6304 JUMP JUMPDEST SWAP2 POP DUP2 SWAP1 POP SWAP3 SWAP2 POP POP JUMP INVALID LOG2 PUSH5 0x6970667358 0x22 SLT KECCAK256 0xEA PUSH0 0xA8 SSTORE DUP7 CALLVALUE PUSH32 0x3950216EFC7965EF1ACEEB14AE8B6EEBA4F2FA104DDC3E3FA664736F6C634300 ADDMOD SHR STOP CALLER "
		},
		"gasEstimates": {
			"creation": {
				"codeDepositCost": "5094400",
				"executionCost": "infinite",
				"totalCost": "infinite"
			},
			"external": {
				"DEFAULT_ADMIN_ROLE()": "396",
				"MINTER_ROLE()": "458",
				"PRICE_SETTER_ROLE()": "413",
				"UPGRADER_ROLE()": "435",
				"UPGRADE_INTERFACE_VERSION()": "infinite",
				"approve(address,uint256)": "infinite",
				"balanceOf(address)": "infinite",
				"burn(uint256)": "infinite",
				"buy(uint256)": "infinite",
				"distributeRoyalties(uint256,uint256)": "infinite",
				"distributeRoyaltiesTest(uint256,uint256)": "infinite",
				"endRental(uint256)": "infinite",
				"getApproved(uint256)": "infinite",
				"getCurrentTokenId()": "2521",
				"getMaxQuantity()": "2521",
				"getPaymentToken()": "2626",
				"getPrice(uint256)": "infinite",
				"getRoaltyShareForReceiver(uint256)": "infinite",
				"getRoleAdmin(bytes32)": "infinite",
				"getRoyaltyReceivers()": "infinite",
				"getRoyaltyShares()": "infinite",
				"getSecondaryRoyaltyPercentage()": "2588",
				"grantRole(bytes32,address)": "infinite",
				"hasRole(bytes32,address)": "3240",
				"initialize(string,string)": "infinite",
				"isApprovedForAll(address,address)": "infinite",
				"isRented(uint256)": "5163",
				"mint(address,string,uint256,address[])": "infinite",
				"name()": "infinite",
				"ownerOf(uint256)": "infinite",
				"proxiableUUID()": "infinite",
				"renounceRole(bytes32,address)": "infinite",
				"revokeRole(bytes32,address)": "infinite",
				"safeTransferFrom(address,address,uint256)": "infinite",
				"safeTransferFrom(address,address,uint256,bytes)": "infinite",
				"setApprovalForAll(address,bool)": "infinite",
				"setMaxQuantity(uint256)": "25173",
				"setPaymentToken(address)": "infinite",
				"setPrice(uint256,uint256)": "infinite",
				"setRoyaltyReceivers(address[],uint256[])": "infinite",
				"setSecondaryRoyaltyPercentage(uint256)": "25173",
				"setTokenUri(uint256,string)": "infinite",
				"startRental(uint256,address,uint256)": "infinite",
				"supportsInterface(bytes4)": "1122",
				"symbol()": "infinite",
				"tokenByIndex(uint256)": "infinite",
				"tokenOfOwnerByIndex(address,uint256)": "infinite",
				"tokenURI(uint256)": "infinite",
				"totalSupply()": "2627",
				"transferFrom(address,address,uint256)": "infinite",
				"upgradeToAndCall(address,bytes)": "infinite"
			},
			"internal": {
				"_authorizeUpgrade(address)": "infinite",
				"_increaseBalance(address,uint128)": "infinite",
				"_isAddressInArray(address[] memory,address)": "infinite",
				"_update(address,uint256,address)": "infinite"
			}
		},
		"methodIdentifiers": {
			"DEFAULT_ADMIN_ROLE()": "a217fddf",
			"MINTER_ROLE()": "d5391393",
			"PRICE_SETTER_ROLE()": "f00acbaa",
			"UPGRADER_ROLE()": "f72c0d8b",
			"UPGRADE_INTERFACE_VERSION()": "ad3cb1cc",
			"approve(address,uint256)": "095ea7b3",
			"balanceOf(address)": "70a08231",
			"burn(uint256)": "42966c68",
			"buy(uint256)": "d96a094a",
			"distributeRoyalties(uint256,uint256)": "3d4a855c",
			"distributeRoyaltiesTest(uint256,uint256)": "8c0a7974",
			"endRental(uint256)": "97491d6f",
			"getApproved(uint256)": "081812fc",
			"getCurrentTokenId()": "56189236",
			"getMaxQuantity()": "e3fa569f",
			"getPaymentToken()": "d41c3a65",
			"getPrice(uint256)": "e7572230",
			"getRoaltyShareForReceiver(uint256)": "326fd3d4",
			"getRoleAdmin(bytes32)": "248a9ca3",
			"getRoyaltyReceivers()": "3a6bf9ba",
			"getRoyaltyShares()": "a596dae3",
			"getSecondaryRoyaltyPercentage()": "91af33ed",
			"grantRole(bytes32,address)": "2f2ff15d",
			"hasRole(bytes32,address)": "91d14854",
			"initialize(string,string)": "4cd88b76",
			"isApprovedForAll(address,address)": "e985e9c5",
			"isRented(uint256)": "aa15d40f",
			"mint(address,string,uint256,address[])": "3e8af41f",
			"name()": "06fdde03",
			"ownerOf(uint256)": "6352211e",
			"proxiableUUID()": "52d1902d",
			"renounceRole(bytes32,address)": "36568abe",
			"revokeRole(bytes32,address)": "d547741f",
			"safeTransferFrom(address,address,uint256)": "42842e0e",
			"safeTransferFrom(address,address,uint256,bytes)": "b88d4fde",
			"setApprovalForAll(address,bool)": "a22cb465",
			"setMaxQuantity(uint256)": "4a65a575",
			"setPaymentToken(address)": "6a326ab1",
			"setPrice(uint256,uint256)": "f7d97577",
			"setRoyaltyReceivers(address[],uint256[])": "52bd50ab",
			"setSecondaryRoyaltyPercentage(uint256)": "89db904e",
			"setTokenUri(uint256,string)": "57f7789e",
			"startRental(uint256,address,uint256)": "771e2b06",
			"supportsInterface(bytes4)": "01ffc9a7",
			"symbol()": "95d89b41",
			"tokenByIndex(uint256)": "4f6ccce7",
			"tokenOfOwnerByIndex(address,uint256)": "2f745c59",
			"tokenURI(uint256)": "c87b56dd",
			"totalSupply()": "18160ddd",
			"transferFrom(address,address,uint256)": "23b872dd",
			"upgradeToAndCall(address,bytes)": "4f1ef286"
		}
	},
	"abi": [
		{
			"inputs": [],
			"name": "AccessControlBadConfirmation",
			"type": "error"
		},
		{
			"inputs": [
				{
					"internalType": "address",
					"name": "account",
					"type": "address"
				},
				{
					"internalType": "bytes32",
					"name": "neededRole",
					"type": "bytes32"
				}
			],
			"name": "AccessControlUnauthorizedAccount",
			"type": "error"
		},
		{
			"inputs": [
				{
					"internalType": "address",
					"name": "target",
					"type": "address"
				}
			],
			"name": "AddressEmptyCode",
			"type": "error"
		},
		{
			"inputs": [
				{
					"internalType": "address",
					"name": "implementation",
					"type": "address"
				}
			],
			"name": "ERC1967InvalidImplementation",
			"type": "error"
		},
		{
			"inputs": [],
			"name": "ERC1967NonPayable",
			"type": "error"
		},
		{
			"inputs": [],
			"name": "ERC721EnumerableForbiddenBatchMint",
			"type": "error"
		},
		{
			"inputs": [
				{
					"internalType": "address",
					"name": "sender",
					"type": "address"
				},
				{
					"internalType": "uint256",
					"name": "tokenId",
					"type": "uint256"
				},
				{
					"internalType": "address",
					"name": "owner",
					"type": "address"
				}
			],
			"name": "ERC721IncorrectOwner",
			"type": "error"
		},
		{
			"inputs": [
				{
					"internalType": "address",
					"name": "operator",
					"type": "address"
				},
				{
					"internalType": "uint256",
					"name": "tokenId",
					"type": "uint256"
				}
			],
			"name": "ERC721InsufficientApproval",
			"type": "error"
		},
		{
			"inputs": [
				{
					"internalType": "address",
					"name": "approver",
					"type": "address"
				}
			],
			"name": "ERC721InvalidApprover",
			"type": "error"
		},
		{
			"inputs": [
				{
					"internalType": "address",
					"name": "operator",
					"type": "address"
				}
			],
			"name": "ERC721InvalidOperator",
			"type": "error"
		},
		{
			"inputs": [
				{
					"internalType": "address",
					"name": "owner",
					"type": "address"
				}
			],
			"name": "ERC721InvalidOwner",
			"type": "error"
		},
		{
			"inputs": [
				{
					"internalType": "address",
					"name": "receiver",
					"type": "address"
				}
			],
			"name": "ERC721InvalidReceiver",
			"type": "error"
		},
		{
			"inputs": [
				{
					"internalType": "address",
					"name": "sender",
					"type": "address"
				}
			],
			"name": "ERC721InvalidSender",
			"type": "error"
		},
		{
			"inputs": [
				{
					"internalType": "uint256",
					"name": "tokenId",
					"type": "uint256"
				}
			],
			"name": "ERC721NonexistentToken",
			"type": "error"
		},
		{
			"inputs": [
				{
					"internalType": "address",
					"name": "owner",
					"type": "address"
				},
				{
					"internalType": "uint256",
					"name": "index",
					"type": "uint256"
				}
			],
			"name": "ERC721OutOfBoundsIndex",
			"type": "error"
		},
		{
			"inputs": [],
			"name": "FailedCall",
			"type": "error"
		},
		{
			"inputs": [],
			"name": "InvalidInitialization",
			"type": "error"
		},
		{
			"inputs": [],
			"name": "InvalidPrice",
			"type": "error"
		},
		{
			"inputs": [],
			"name": "InvalidRoyalties",
			"type": "error"
		},
		{
			"inputs": [],
			"name": "InvalidTotalShares",
			"type": "error"
		},
		{
			"inputs": [],
			"name": "MaxQuantityReached",
			"type": "error"
		},
		{
			"inputs": [],
			"name": "NoFundsToDistribute",
			"type": "error"
		},
		{
			"inputs": [],
			"name": "NotAuthorized",
			"type": "error"
		},
		{
			"inputs": [],
			"name": "NotInitializing",
			"type": "error"
		},
		{
			"inputs": [],
			"name": "SharesLengthMismatch",
			"type": "error"
		},
		{
			"inputs": [],
			"name": "TokenNotForSale",
			"type": "error"
		},
		{
			"inputs": [],
			"name": "TokenRented",
			"type": "error"
		},
		{
			"inputs": [],
			"name": "TransferFailed",
			"type": "error"
		},
		{
			"inputs": [],
			"name": "UUPSUnauthorizedCallContext",
			"type": "error"
		},
		{
			"inputs": [
				{
					"internalType": "bytes32",
					"name": "slot",
					"type": "bytes32"
				}
			],
			"name": "UUPSUnsupportedProxiableUUID",
			"type": "error"
		},
		{
			"anonymous": false,
			"inputs": [
				{
					"indexed": true,
					"internalType": "address",
					"name": "owner",
					"type": "address"
				},
				{
					"indexed": true,
					"internalType": "address",
					"name": "approved",
					"type": "address"
				},
				{
					"indexed": true,
					"internalType": "uint256",
					"name": "tokenId",
					"type": "uint256"
				}
			],
			"name": "Approval",
			"type": "event"
		},
		{
			"anonymous": false,
			"inputs": [
				{
					"indexed": true,
					"internalType": "address",
					"name": "owner",
					"type": "address"
				},
				{
					"indexed": true,
					"internalType": "address",
					"name": "operator",
					"type": "address"
				},
				{
					"indexed": false,
					"internalType": "bool",
					"name": "approved",
					"type": "bool"
				}
			],
			"name": "ApprovalForAll",
			"type": "event"
		},
		{
			"anonymous": false,
			"inputs": [
				{
					"indexed": false,
					"internalType": "uint256",
					"name": "_fromTokenId",
					"type": "uint256"
				},
				{
					"indexed": false,
					"internalType": "uint256",
					"name": "_toTokenId",
					"type": "uint256"
				}
			],
			"name": "BatchMetadataUpdate",
			"type": "event"
		},
		{
			"anonymous": false,
			"inputs": [
				{
					"indexed": true,
					"internalType": "uint256",
					"name": "tokenId",
					"type": "uint256"
				},
				{
					"indexed": true,
					"internalType": "address",
					"name": "buyer",
					"type": "address"
				}
			],
			"name": "Bought",
			"type": "event"
		},
		{
			"anonymous": false,
			"inputs": [
				{
					"indexed": false,
					"internalType": "uint256",
					"name": "index",
					"type": "uint256"
				},
				{
					"indexed": false,
					"internalType": "uint256",
					"name": "share",
					"type": "uint256"
				},
				{
					"indexed": false,
					"internalType": "uint256",
					"name": "payment",
					"type": "uint256"
				}
			],
			"name": "DebugRoyaltyShare",
			"type": "event"
		},
		{
			"anonymous": false,
			"inputs": [
				{
					"indexed": false,
					"internalType": "bool",
					"name": "isSecondary",
					"type": "bool"
				},
				{
					"indexed": false,
					"internalType": "uint256",
					"name": "sp",
					"type": "uint256"
				}
			],
			"name": "DebugSecondaryPurchase",
			"type": "event"
		},
		{
			"anonymous": false,
			"inputs": [
				{
					"indexed": false,
					"internalType": "uint256",
					"name": "totalReceived",
					"type": "uint256"
				}
			],
			"name": "DebugTotalReceived",
			"type": "event"
		},
		{
			"anonymous": false,
			"inputs": [
				{
					"indexed": false,
					"internalType": "uint64",
					"name": "version",
					"type": "uint64"
				}
			],
			"name": "Initialized",
			"type": "event"
		},
		{
			"anonymous": false,
			"inputs": [
				{
					"indexed": false,
					"internalType": "uint256",
					"name": "_tokenId",
					"type": "uint256"
				}
			],
			"name": "MetadataUpdate",
			"type": "event"
		},
		{
			"anonymous": false,
			"inputs": [
				{
					"indexed": true,
					"internalType": "uint256",
					"name": "tokenId",
					"type": "uint256"
				}
			],
			"name": "Minted",
			"type": "event"
		},
		{
			"anonymous": false,
			"inputs": [
				{
					"indexed": true,
					"internalType": "uint256",
					"name": "tokenId",
					"type": "uint256"
				},
				{
					"indexed": true,
					"internalType": "address",
					"name": "renter",
					"type": "address"
				}
			],
			"name": "RentalEnded",
			"type": "event"
		},
		{
			"anonymous": false,
			"inputs": [
				{
					"indexed": true,
					"internalType": "uint256",
					"name": "tokenId",
					"type": "uint256"
				},
				{
					"indexed": true,
					"internalType": "address",
					"name": "renter",
					"type": "address"
				},
				{
					"indexed": false,
					"internalType": "uint128",
					"name": "rentalEndTime",
					"type": "uint128"
				},
				{
					"indexed": false,
					"internalType": "bool",
					"name": "isStart",
					"type": "bool"
				}
			],
			"name": "RentalUpdate",
			"type": "event"
		},
		{
			"anonymous": false,
			"inputs": [
				{
					"indexed": true,
					"internalType": "bytes32",
					"name": "role",
					"type": "bytes32"
				},
				{
					"indexed": true,
					"internalType": "bytes32",
					"name": "previousAdminRole",
					"type": "bytes32"
				},
				{
					"indexed": true,
					"internalType": "bytes32",
					"name": "newAdminRole",
					"type": "bytes32"
				}
			],
			"name": "RoleAdminChanged",
			"type": "event"
		},
		{
			"anonymous": false,
			"inputs": [
				{
					"indexed": true,
					"internalType": "bytes32",
					"name": "role",
					"type": "bytes32"
				},
				{
					"indexed": true,
					"internalType": "address",
					"name": "account",
					"type": "address"
				},
				{
					"indexed": true,
					"internalType": "address",
					"name": "sender",
					"type": "address"
				}
			],
			"name": "RoleGranted",
			"type": "event"
		},
		{
			"anonymous": false,
			"inputs": [
				{
					"indexed": true,
					"internalType": "bytes32",
					"name": "role",
					"type": "bytes32"
				},
				{
					"indexed": true,
					"internalType": "address",
					"name": "account",
					"type": "address"
				},
				{
					"indexed": true,
					"internalType": "address",
					"name": "sender",
					"type": "address"
				}
			],
			"name": "RoleRevoked",
			"type": "event"
		},
		{
			"anonymous": false,
			"inputs": [
				{
					"indexed": true,
					"internalType": "uint256",
					"name": "tokenId",
					"type": "uint256"
				},
				{
					"indexed": false,
					"internalType": "address",
					"name": "receiver",
					"type": "address"
				},
				{
					"indexed": false,
					"internalType": "uint256",
					"name": "amount",
					"type": "uint256"
				}
			],
			"name": "RoyaltyDistributed",
			"type": "event"
		},
		{
			"anonymous": false,
			"inputs": [
				{
					"indexed": true,
					"internalType": "address",
					"name": "from",
					"type": "address"
				},
				{
					"indexed": true,
					"internalType": "address",
					"name": "to",
					"type": "address"
				},
				{
					"indexed": true,
					"internalType": "uint256",
					"name": "tokenId",
					"type": "uint256"
				}
			],
			"name": "Transfer",
			"type": "event"
		},
		{
			"anonymous": false,
			"inputs": [
				{
					"indexed": true,
					"internalType": "address",
					"name": "implementation",
					"type": "address"
				}
			],
			"name": "Upgraded",
			"type": "event"
		},
		{
			"inputs": [],
			"name": "DEFAULT_ADMIN_ROLE",
			"outputs": [
				{
					"internalType": "bytes32",
					"name": "",
					"type": "bytes32"
				}
			],
			"stateMutability": "view",
			"type": "function"
		},
		{
			"inputs": [],
			"name": "MINTER_ROLE",
			"outputs": [
				{
					"internalType": "bytes32",
					"name": "",
					"type": "bytes32"
				}
			],
			"stateMutability": "view",
			"type": "function"
		},
		{
			"inputs": [],
			"name": "PRICE_SETTER_ROLE",
			"outputs": [
				{
					"internalType": "bytes32",
					"name": "",
					"type": "bytes32"
				}
			],
			"stateMutability": "view",
			"type": "function"
		},
		{
			"inputs": [],
			"name": "UPGRADER_ROLE",
			"outputs": [
				{
					"internalType": "bytes32",
					"name": "",
					"type": "bytes32"
				}
			],
			"stateMutability": "view",
			"type": "function"
		},
		{
			"inputs": [],
			"name": "UPGRADE_INTERFACE_VERSION",
			"outputs": [
				{
					"internalType": "string",
					"name": "",
					"type": "string"
				}
			],
			"stateMutability": "view",
			"type": "function"
		},
		{
			"inputs": [
				{
					"internalType": "address",
					"name": "to",
					"type": "address"
				},
				{
					"internalType": "uint256",
					"name": "tokenId",
					"type": "uint256"
				}
			],
			"name": "approve",
			"outputs": [],
			"stateMutability": "nonpayable",
			"type": "function"
		},
		{
			"inputs": [
				{
					"internalType": "address",
					"name": "owner",
					"type": "address"
				}
			],
			"name": "balanceOf",
			"outputs": [
				{
					"internalType": "uint256",
					"name": "",
					"type": "uint256"
				}
			],
			"stateMutability": "view",
			"type": "function"
		},
		{
			"inputs": [
				{
					"internalType": "uint256",
					"name": "tokenId",
					"type": "uint256"
				}
			],
			"name": "burn",
			"outputs": [],
			"stateMutability": "nonpayable",
			"type": "function"
		},
		{
			"inputs": [
				{
					"internalType": "uint256",
					"name": "tokenId",
					"type": "uint256"
				}
			],
			"name": "buy",
			"outputs": [],
			"stateMutability": "nonpayable",
			"type": "function"
		},
		{
			"inputs": [
				{
					"internalType": "uint256",
					"name": "totalReceived",
					"type": "uint256"
				},
				{
					"internalType": "uint256",
					"name": "tokenId",
					"type": "uint256"
				}
			],
			"name": "distributeRoyalties",
			"outputs": [
				{
					"internalType": "uint256",
					"name": "",
					"type": "uint256"
				}
			],
			"stateMutability": "nonpayable",
			"type": "function"
		},
		{
			"inputs": [
				{
					"internalType": "uint256",
					"name": "totalReceived",
					"type": "uint256"
				},
				{
					"internalType": "uint256",
					"name": "tokenId",
					"type": "uint256"
				}
			],
			"name": "distributeRoyaltiesTest",
			"outputs": [
				{
					"internalType": "uint256[]",
					"name": "",
					"type": "uint256[]"
				}
			],
			"stateMutability": "view",
			"type": "function"
		},
		{
			"inputs": [
				{
					"internalType": "uint256",
					"name": "tokenId",
					"type": "uint256"
				}
			],
			"name": "endRental",
			"outputs": [],
			"stateMutability": "nonpayable",
			"type": "function"
		},
		{
			"inputs": [
				{
					"internalType": "uint256",
					"name": "tokenId",
					"type": "uint256"
				}
			],
			"name": "getApproved",
			"outputs": [
				{
					"internalType": "address",
					"name": "",
					"type": "address"
				}
			],
			"stateMutability": "view",
			"type": "function"
		},
		{
			"inputs": [],
			"name": "getCurrentTokenId",
			"outputs": [
				{
					"internalType": "uint256",
					"name": "",
					"type": "uint256"
				}
			],
			"stateMutability": "view",
			"type": "function"
		},
		{
			"inputs": [],
			"name": "getMaxQuantity",
			"outputs": [
				{
					"internalType": "uint256",
					"name": "",
					"type": "uint256"
				}
			],
			"stateMutability": "view",
			"type": "function"
		},
		{
			"inputs": [],
			"name": "getPaymentToken",
			"outputs": [
				{
					"internalType": "address",
					"name": "",
					"type": "address"
				}
			],
			"stateMutability": "view",
			"type": "function"
		},
		{
			"inputs": [
				{
					"internalType": "uint256",
					"name": "tokenId",
					"type": "uint256"
				}
			],
			"name": "getPrice",
			"outputs": [
				{
					"internalType": "uint256",
					"name": "",
					"type": "uint256"
				}
			],
			"stateMutability": "view",
			"type": "function"
		},
		{
			"inputs": [
				{
					"internalType": "uint256",
					"name": "index",
					"type": "uint256"
				}
			],
			"name": "getRoaltyShareForReceiver",
			"outputs": [
				{
					"internalType": "uint256",
					"name": "",
					"type": "uint256"
				}
			],
			"stateMutability": "view",
			"type": "function"
		},
		{
			"inputs": [
				{
					"internalType": "bytes32",
					"name": "role",
					"type": "bytes32"
				}
			],
			"name": "getRoleAdmin",
			"outputs": [
				{
					"internalType": "bytes32",
					"name": "",
					"type": "bytes32"
				}
			],
			"stateMutability": "view",
			"type": "function"
		},
		{
			"inputs": [],
			"name": "getRoyaltyReceivers",
			"outputs": [
				{
					"internalType": "address[]",
					"name": "",
					"type": "address[]"
				}
			],
			"stateMutability": "view",
			"type": "function"
		},
		{
			"inputs": [],
			"name": "getRoyaltyShares",
			"outputs": [
				{
					"internalType": "uint256[]",
					"name": "",
					"type": "uint256[]"
				}
			],
			"stateMutability": "view",
			"type": "function"
		},
		{
			"inputs": [],
			"name": "getSecondaryRoyaltyPercentage",
			"outputs": [
				{
					"internalType": "uint256",
					"name": "",
					"type": "uint256"
				}
			],
			"stateMutability": "view",
			"type": "function"
		},
		{
			"inputs": [
				{
					"internalType": "bytes32",
					"name": "role",
					"type": "bytes32"
				},
				{
					"internalType": "address",
					"name": "account",
					"type": "address"
				}
			],
			"name": "grantRole",
			"outputs": [],
			"stateMutability": "nonpayable",
			"type": "function"
		},
		{
			"inputs": [
				{
					"internalType": "bytes32",
					"name": "role",
					"type": "bytes32"
				},
				{
					"internalType": "address",
					"name": "account",
					"type": "address"
				}
			],
			"name": "hasRole",
			"outputs": [
				{
					"internalType": "bool",
					"name": "",
					"type": "bool"
				}
			],
			"stateMutability": "view",
			"type": "function"
		},
		{
			"inputs": [
				{
					"internalType": "string",
					"name": "name",
					"type": "string"
				},
				{
					"internalType": "string",
					"name": "symbol",
					"type": "string"
				}
			],
			"name": "initialize",
			"outputs": [],
			"stateMutability": "nonpayable",
			"type": "function"
		},
		{
			"inputs": [
				{
					"internalType": "address",
					"name": "owner",
					"type": "address"
				},
				{
					"internalType": "address",
					"name": "operator",
					"type": "address"
				}
			],
			"name": "isApprovedForAll",
			"outputs": [
				{
					"internalType": "bool",
					"name": "",
					"type": "bool"
				}
			],
			"stateMutability": "view",
			"type": "function"
		},
		{
			"inputs": [
				{
					"internalType": "uint256",
					"name": "tokenId",
					"type": "uint256"
				}
			],
			"name": "isRented",
			"outputs": [
				{
					"internalType": "bool",
					"name": "",
					"type": "bool"
				}
			],
			"stateMutability": "view",
			"type": "function"
		},
		{
			"inputs": [
				{
					"internalType": "address",
					"name": "to",
					"type": "address"
				},
				{
					"internalType": "string",
					"name": "uri",
					"type": "string"
				},
				{
					"internalType": "uint256",
					"name": "price",
					"type": "uint256"
				},
				{
					"internalType": "address[]",
					"name": "collaborators",
					"type": "address[]"
				}
			],
			"name": "mint",
			"outputs": [],
			"stateMutability": "nonpayable",
			"type": "function"
		},
		{
			"inputs": [],
			"name": "name",
			"outputs": [
				{
					"internalType": "string",
					"name": "",
					"type": "string"
				}
			],
			"stateMutability": "view",
			"type": "function"
		},
		{
			"inputs": [
				{
					"internalType": "uint256",
					"name": "tokenId",
					"type": "uint256"
				}
			],
			"name": "ownerOf",
			"outputs": [
				{
					"internalType": "address",
					"name": "",
					"type": "address"
				}
			],
			"stateMutability": "view",
			"type": "function"
		},
		{
			"inputs": [],
			"name": "proxiableUUID",
			"outputs": [
				{
					"internalType": "bytes32",
					"name": "",
					"type": "bytes32"
				}
			],
			"stateMutability": "view",
			"type": "function"
		},
		{
			"inputs": [
				{
					"internalType": "bytes32",
					"name": "role",
					"type": "bytes32"
				},
				{
					"internalType": "address",
					"name": "callerConfirmation",
					"type": "address"
				}
			],
			"name": "renounceRole",
			"outputs": [],
			"stateMutability": "nonpayable",
			"type": "function"
		},
		{
			"inputs": [
				{
					"internalType": "bytes32",
					"name": "role",
					"type": "bytes32"
				},
				{
					"internalType": "address",
					"name": "account",
					"type": "address"
				}
			],
			"name": "revokeRole",
			"outputs": [],
			"stateMutability": "nonpayable",
			"type": "function"
		},
		{
			"inputs": [
				{
					"internalType": "address",
					"name": "from",
					"type": "address"
				},
				{
					"internalType": "address",
					"name": "to",
					"type": "address"
				},
				{
					"internalType": "uint256",
					"name": "tokenId",
					"type": "uint256"
				}
			],
			"name": "safeTransferFrom",
			"outputs": [],
			"stateMutability": "nonpayable",
			"type": "function"
		},
		{
			"inputs": [
				{
					"internalType": "address",
					"name": "from",
					"type": "address"
				},
				{
					"internalType": "address",
					"name": "to",
					"type": "address"
				},
				{
					"internalType": "uint256",
					"name": "tokenId",
					"type": "uint256"
				},
				{
					"internalType": "bytes",
					"name": "data",
					"type": "bytes"
				}
			],
			"name": "safeTransferFrom",
			"outputs": [],
			"stateMutability": "nonpayable",
			"type": "function"
		},
		{
			"inputs": [
				{
					"internalType": "address",
					"name": "operator",
					"type": "address"
				},
				{
					"internalType": "bool",
					"name": "approved",
					"type": "bool"
				}
			],
			"name": "setApprovalForAll",
			"outputs": [],
			"stateMutability": "nonpayable",
			"type": "function"
		},
		{
			"inputs": [
				{
					"internalType": "uint256",
					"name": "maxQty",
					"type": "uint256"
				}
			],
			"name": "setMaxQuantity",
			"outputs": [],
			"stateMutability": "nonpayable",
			"type": "function"
		},
		{
			"inputs": [
				{
					"internalType": "address",
					"name": "paymentTokenAddress",
					"type": "address"
				}
			],
			"name": "setPaymentToken",
			"outputs": [],
			"stateMutability": "nonpayable",
			"type": "function"
		},
		{
			"inputs": [
				{
					"internalType": "uint256",
					"name": "tokenId",
					"type": "uint256"
				},
				{
					"internalType": "uint256",
					"name": "price",
					"type": "uint256"
				}
			],
			"name": "setPrice",
			"outputs": [],
			"stateMutability": "nonpayable",
			"type": "function"
		},
		{
			"inputs": [
				{
					"internalType": "address[]",
					"name": "royaltyReceivers",
					"type": "address[]"
				},
				{
					"internalType": "uint256[]",
					"name": "royaltyShares",
					"type": "uint256[]"
				}
			],
			"name": "setRoyaltyReceivers",
			"outputs": [],
			"stateMutability": "nonpayable",
			"type": "function"
		},
		{
			"inputs": [
				{
					"internalType": "uint256",
					"name": "share",
					"type": "uint256"
				}
			],
			"name": "setSecondaryRoyaltyPercentage",
			"outputs": [],
			"stateMutability": "nonpayable",
			"type": "function"
		},
		{
			"inputs": [
				{
					"internalType": "uint256",
					"name": "tokenId",
					"type": "uint256"
				},
				{
					"internalType": "string",
					"name": "uri",
					"type": "string"
				}
			],
			"name": "setTokenUri",
			"outputs": [],
			"stateMutability": "nonpayable",
			"type": "function"
		},
		{
			"inputs": [
				{
					"internalType": "uint256",
					"name": "tokenId",
					"type": "uint256"
				},
				{
					"internalType": "address",
					"name": "renter",
					"type": "address"
				},
				{
					"internalType": "uint256",
					"name": "duration",
					"type": "uint256"
				}
			],
			"name": "startRental",
			"outputs": [],
			"stateMutability": "nonpayable",
			"type": "function"
		},
		{
			"inputs": [
				{
					"internalType": "bytes4",
					"name": "interfaceId",
					"type": "bytes4"
				}
			],
			"name": "supportsInterface",
			"outputs": [
				{
					"internalType": "bool",
					"name": "",
					"type": "bool"
				}
			],
			"stateMutability": "view",
			"type": "function"
		},
		{
			"inputs": [],
			"name": "symbol",
			"outputs": [
				{
					"internalType": "string",
					"name": "",
					"type": "string"
				}
			],
			"stateMutability": "view",
			"type": "function"
		},
		{
			"inputs": [
				{
					"internalType": "uint256",
					"name": "index",
					"type": "uint256"
				}
			],
			"name": "tokenByIndex",
			"outputs": [
				{
					"internalType": "uint256",
					"name": "",
					"type": "uint256"
				}
			],
			"stateMutability": "view",
			"type": "function"
		},
		{
			"inputs": [
				{
					"internalType": "address",
					"name": "owner",
					"type": "address"
				},
				{
					"internalType": "uint256",
					"name": "index",
					"type": "uint256"
				}
			],
			"name": "tokenOfOwnerByIndex",
			"outputs": [
				{
					"internalType": "uint256",
					"name": "",
					"type": "uint256"
				}
			],
			"stateMutability": "view",
			"type": "function"
		},
		{
			"inputs": [
				{
					"internalType": "uint256",
					"name": "tokenId",
					"type": "uint256"
				}
			],
			"name": "tokenURI",
			"outputs": [
				{
					"internalType": "string",
					"name": "",
					"type": "string"
				}
			],
			"stateMutability": "view",
			"type": "function"
		},
		{
			"inputs": [],
			"name": "totalSupply",
			"outputs": [
				{
					"internalType": "uint256",
					"name": "",
					"type": "uint256"
				}
			],
			"stateMutability": "view",
			"type": "function"
		},
		{
			"inputs": [
				{
					"internalType": "address",
					"name": "from",
					"type": "address"
				},
				{
					"internalType": "address",
					"name": "to",
					"type": "address"
				},
				{
					"internalType": "uint256",
					"name": "tokenId",
					"type": "uint256"
				}
			],
			"name": "transferFrom",
			"outputs": [],
			"stateMutability": "nonpayable",
			"type": "function"
		},
		{
			"inputs": [
				{
					"internalType": "address",
					"name": "newImplementation",
					"type": "address"
				},
				{
					"internalType": "bytes",
					"name": "data",
					"type": "bytes"
				}
			],
			"name": "upgradeToAndCall",
			"outputs": [],
			"stateMutability": "payable",
			"type": "function"
		}
	]
}